:020000040800F2
:10000000B0070020C92E0008512E0008532E00080A
:10001000552E0008572E0008592E00080000000039
:100020000000000000000000000000005B2E00083F
:100030005D2E0008000000005F2E0008612E000801
:10004000FD2E0008012F0008052F0008092F0008C9
:100050000D2F0008112F0008152F0008192F000878
:100060001D2F0008212F0008252F0008292F000828
:100070002D2F0008312F0008352F0008392F0008D8
:100080003D2F0008412F0008452F0008492F000888
:100090004D2F0008512F0008552F0008592F000838
:1000A0005D2F0008612F0008652F0008692F0008E8
:1000B0006D2F0008712F0008752F0008792F000898
:1000C0007D2F0008812F0008852F0008892F000848
:1000D0008D2F0008912F0008952F0008992F0008F8
:1000E0009D2F0008A12F0008A52F0008A92F0008A8
:1000F000AD2F0008B12F0008B52F0008B92F000858
:10010000000000000000000000000000BD2F0008FB
:10011000C12F0008C52F0008C92F0008CD2F0008E7
:10012000D12F0008D52F0008D92F0008DD2F000897
:10013000E12F0008E52F000800000000000000008B
:10014000E92F0008ED2F0008F12F00080000000043
:10015000000000000000000000000000000000009F
:100160000000000000000000F52F0008F92F000833
:10017000FD2F00080000000000000000000000004B
:100180000000000001300008F8B500260446009683
:100190000CB90120F2BD04F140056868C1064CD4D9
:1001A000686898BBAE6028612870EE60204600F059
:1001B000ABFB21688868C10028D400F00EF9064620
:1001C0006868C10622D4300020D16868DFF8D021E9
:1001D000DFF8D03120F4885040F0020068602068D9
:1001E000816821F0405181602068816841F0805130
:1001F00081600A201168B1FBF3F34343009302E0EE
:100200000098401E009000980028F9D1206881686D
:10021000CA0002D5806881000FD500F0D3F8A86825
:1002200040F00100A8606868696821F0020141F0AF
:100230001001696001263046F2BD6868C106F3D43A
:100240003000F1D1226890684107EDD46868DFF88A
:100250005831DFF85871DFF8581120F4807040F001
:1002600002006860B2F1A04FDFF848010ED0824270
:1002700008BF4FF0A04009D0BA42DFF83C1108BFD8
:10028000184603D09A420CBF38460020D2F808C066
:100290000CF0030CBCF1010F02D11268D2070ED48E
:1002A00038B1826802F00302012A02D10068C20755
:1002B00005D4086820F44032606810430860A16BE0
:1002C000E069E268012914BF4FF4805C4FF0000C34
:1002D0004CEA40310A43A16841EA020C626A012AF1
:1002E00012D138B9A06A401E400440F4803040EA80
:1002F0000C0C09E0686820F0020040F02000686003
:10030000A86840F00100A860E16A2268012918D0BD
:10031000BA4218BF9A4210D1B1F5307F08BF4FF4EE
:10032000E0710AD0B1F5807F08BF4FF4307104D07E
:10033000B1F5E07F08BF4FF48071206B014341EAC3
:100340000C0C916811F00C0F0BD1D168DFF86C0028
:100350000140D160606BA169400040EA813040EA11
:100360000C0C2168DFF85800CA6802404CEA020011
:10037000C860216920680129016B05D1226A090939
:10038000521E42EA011101E009090901016300203E
:10039000A860696821F0020141F0010169604AE743
:1003A0000C00002040420F000005005000040050E7
:1003B000080300500001005008070050FDBFFFFF78
:1003C00007C0F0FF686820F0020040F0100068608D
:1003D00070470446206881687047204600F00BBAD9
:1003E0002DE9F8410A46002100F1400400912578EA
:1003F000012D08BF022000F06681012323700368ED
:100400009D686E0700F15781576815681F26042FF5
:100410004FF0060C0BD80CFB07F7D3F830C0BE40EA
:100420002CEA060605FA07F737431F631DE00A2F7B
:1004300008D27F1F17FB0CF7D3F834C000F05CF92B
:100440005D6312E00F2F08D20A3F17FB0CF7D3F8B9
:1004500038C000F051F99D6307E00F3F17FB0CF720
:10046000D3F83CC000F048F9DD6307250668B3689F
:1004700013F00C0F3ED1136897680A2B0DD30A3B7B
:1004800003EB430CD6F818E005FA0CF32EEA03034D
:1004900007FA0CF71F43B7610BE003EB430CD6F8E8
:1004A00014E005FA0CF32EEA030307FA0CF71F43D6
:1004B000776103685769DE68D2F810E0F6087600C5
:1004C00006F00606AEF1010E07FA06F6BEF1030FBE
:1004D000DFF88C7332D8DFE80EF0020E1A26D3F85C
:1004E0006080D2F800C007EA080747EA8C6700F08E
:1004F000F3F81E6645E0D3F864C0D2F800E007EADE
:100500000C0747EA8E6700F0E7F85E6639E0D3F83B
:1005100068C0D2F800E007EA0C0747EA8E6700F0EF
:10052000DBF89E662DE0D3F86CC0D2F800E007EA55
:100530000C0747EA8E6700F0CFF821E01E6E00F04E
:10054000CFF803D11E6E26F000461E6603685E6E6D
:1005500000F0C6F803D15E6E26F000465E660368C2
:100560009E6E00F0BDF803D19E6E26F000469E669A
:100570000368DE6E00F0B4F803D1DE6E26F00046AC
:10058000DE6603689E6806F00306012E02D11E682F
:10059000F7073AD41668012707FA06F6D768012F3D
:1005A00006D0D3F8B05025EA0606C3F8B0601AE0CA
:1005B000D3F8B0703E43C3F8B0601768936806681C
:1005C0000A2F08D3093F07EB4707D6F818C000F0F9
:1005D0008DF8B56107E07F1C07EB4707D6F814C01C
:1005E00000F084F87561036838481268B3F1A04FD1
:1005F00016BF8342364D374D102A02D12E6837027E
:1006000003E0112A03D12E68F70159D404E0122A1D
:1006100056D12E68770253D4B3F1A04F0FD0834246
:1006200008BF4FF0A0400AD0DFF83802DFF8D460EE
:10063000834208BF304602D0B34218BF00209E68F4
:1006400006F00306012E02D11E68F70733D438B135
:10065000866806F00306012E02D10068C6072AD478
:10066000102A18D1B3F1A04F2AD12868DFF8F82159
:1006700040F4000028600A201368DFF8F051B3FB53
:10068000F5F545430095009800281EBF0098401ED0
:100690000090F8D114E0112A06D1B3F1A04F0FD188
:1006A000286840F0807004E0122A09D1286840F4DC
:1006B0008000286004E0606840F020006060012154
:1006C000002020700846BDE8F281000000010050C3
:1006D00008030050080700503E4346F000467047AC
:1006E000176806F0F846B6EB876F7047BD402CEAF6
:1006F0000505BB401D437047BE402CEA0606BD40C1
:100700003543704700050050F0B50368584E00228D
:10071000B3F1A04F07D1354600F140042778012FEF
:100720000FD10220F0BDB34208BF4FF0A045F3D077
:100730004C4D4A4CAB420CBF2546A342ECD00120A5
:10074000F0BD012727709F687F0746D4AF687F07F9
:1007500043D4B3F1A04F16BFB342464E464E0B688A
:10076000464F0BB33368D0F834E023F4604C4B6849
:1007700043EA0C0343EA4E3333600068836800F0B9
:1007800036F802D10068C3072CD4A86800F0030033
:10079000012802D12868C30724D43568086889680D
:1007A0002F4007430F4316E0336823F46043336060
:1007B0000068816801F00301012902D10068C107C6
:1007C00010D4A86800F00300012802D12868C107EE
:1007D00008D430680740376004E0616841F02001C8
:1007E00061600122002020701046F0BD936803F084
:1007F0000303012B704738B5FFF7EBFD01F0030150
:1008000001291BD10168CA0718D5816801F00D01C3
:10081000012912D1816841F0020181600320216821
:10082000086000F0FDF9054620688168C80705D515
:1008300000F0F6F9401B0328F6D301E0002032BD9A
:1008400000F001F832BD606C40F010006064A06CF4
:1008500040F00100A0640120704700000005005036
:1008600000F0FF83000400500C00002040420F0005
:10087000000100500803005008070050E0F0FFFF9F
:1008800080B5DFF85403016841F00101016002689E
:1008900002F0010200920099426842F080524260E8
:1008A000406800F0805000900098072000F0CBF9DD
:1008B000002200216FF00B0000F0D2F9002200218D
:1008C0006FF00A0000F0CCF9002200216FF009005F
:1008D00000F0C6F9002200216FF0040000F0C0F91A
:1008E000002200216FF0030000F0BAF9002200217D
:1008F0006FF0010000F0B4F9BDE8084000220021CB
:100900004FF0FF3000F0ACB980B586B00068DFF87A
:10091000CC12B0F1A04F0CD1086840F080500860B4
:100920000322096801F080510091022100F034F89F
:1009300015E0DFF8AC22904214D1086840F0005076
:1009400008600322096801F00051009142F202019F
:100950000098DFF89002019102920021039101A911
:1009600000F0E6F907B000BD0068DFF87C128842AD
:1009700000D0704780B5DFF8740286B0026842F09C
:10098000005202601021006800F000500090032225
:1009900000F002F801A95BE00098019102920021A9
:1009A00003914FF0904070470068DFF8441288428E
:1009B00000D0704700B585B0C0220092122101918D
:1009C0000122029203210391042204926946854880
:1009D00000F0AEF98548016841F40011016000683B
:1009E00000F400100090009805B000BD0068814937
:1009F000884202D1804801220260704700687F4926
:100A0000884200D0704780B5784886B0026842F4CA
:100A1000804202604FF40071006800F4804005904D
:100A200002220598764800F018F8052104910392F7
:100A3000694600F07DF94FF45041009102220021F7
:100A400002910192052103220491039269466548AF
:100A500000F06EF907B000BD0598009101920021E9
:100A600002910322704781B000686649884209D12B
:100A70005948026842F400620260006800F40060B5
:100A80000090009801B0704780B586B00068574963
:100A9000B0F1804F10D1086840F0010000F090F8EC
:100AA00001F0010105914FF40041059800F01CF898
:100AB0004FF09040012111E0534A904212D1086852
:100AC00040F0040000F07CF801F0040105914FF4BF
:100AD000E04105984D4800F007F80221049169466D
:100AE00000F026F907B000BD0091019200210291AB
:100AF0000391704700684349884200D0704700B5B1
:100B000085B04FF4E062009202210022029203922B
:100B100001910622049269464FF0904000F008F9D6
:100B200005B000BD10B586B000F04EF81BD10868C6
:100B300040F4801000F044F801F4801105914FF466
:100B4000805105983248FFF788FF052303920493EC
:100B5000694600F0EDF8042100910222FFF77EFFC4
:100B60000392052125E02B4A904211D1086840F4F8
:100B7000003000F025F801F4003105910C21FFF759
:100B80006BFF07210491039269464FF0904013E0F8
:100B9000214A904212D1086840F4802000F010F8F9
:100BA00001F4802105914FF44071FFF755FF039246
:100BB000072104912046694600F0BAF806B010BD3E
:100BC00008600222096870470068144A0F4C074900
:100BD00090427047000000001810024014100240BC
:100BE0000004005000040048007400401C10024043
:100BF00000540040002800403C04424200380040BD
:100C000000140048002C014000080040000C00487F
:100C100000080048004400400048004000500040E8
:100C200001484068704700BF000000200901020031
:100C300006D52A4A00F00F00104400F8041C704743
:100C4000274B19547047274B19684FF6FF020002D3
:100C5000114000F4E06008432349084318607047DE
:100C600038B5204B1C68C4F30223C3F10704052CDC
:100C700028BF04241D1D072D34BF0023DB1E0125C2
:100C800005FA04F4641E2140994005FA03F35B1E43
:100C90001A401143BDE83440C8E710B5401EB0F11A
:100CA000807F01D3012010BD104C60600F214FF0F8
:100CB000FF30FFF7BBFF0021A1600720206000206C
:100CC00010BD0428094904D1086840F004000860F8
:100CD00070470A6822F004020A60704718ED00E0CD
:100CE00000E400E00CED00E00000FA0510E000E098
:100CF00000F000B8704730B4002513E050F8042B22
:100D0000D30744BFA9F101039A18091F042942F827
:100D1000045BFAD213468C0744BF15809B1CC9079D
:100D200048BF1D7050F8041B0029E7D130BC704744
:100D30002DE9F8470026684A0F230446884632E02A
:100D4000664DAC4214BF052504258D4045EA0E05CD
:100D50004CF82750C74362490D6800F0B3F8ED0323
:100D600048BF40EA0C0CC1F800C04D6800F0AAF87A
:100D7000AD0348BF40EA0C0CC1F804C08D6800F018
:100D8000A1F8ED0248BF40EA0C0CC1F808C0CD68DC
:100D900007EA050CD8F80470BD0248BF40EA0C0C05
:100DA000C1F80CC0761CD8F8001031FA06F000F03B
:100DB00087800127B74017EA0100F3D0D8F8045024
:100DC000B100022D18BF122D12D1F50804EB850CCD
:100DD00001F01C05DCF820E0D8F810A003FA05F9B2
:100DE0002EEA090E0AFA05F545EA0E05CCF8205060
:100DF0004FEA460C4FF0030E256898F804900EFA5F
:100E00000CFE6FEA0E0E09F003090EEA050509FA59
:100E10000CF949EA05052560D8F80450012D18BFE2
:100E2000022D03D0112D18BF122D13D1A568D8F8AB
:100E30000C900EEA050509FA0CF949EA0505A560CA
:100E4000656825EA0707D8F80450C5F30015B540D2
:100E50002F436760E7680EEA0705D8F8087007FABD
:100E60000CF73D43E560D8F80450EF009AD51568BB
:100E7000DFF870C045F00105156001F00C0117683E
:100E800007F00107009703FA01FE009FB7085CF81E
:100E9000275025EA0E0EB4F1904F08BF00250ED062
:100EA000114DAC4208BF012509D0104DAC4208BF1E
:100EB000022504D00E4DAC427FF442AF032544E737
:100EC000BDE8F18707EA050CD8F8045070470AB16D
:100ED000816170478162704718100240001000481D
:100EE00000040140080001400004004800080048D8
:100EF000000C00487FB500F02DFB00F0AAF800F0D0
:100F00005DFA00F099F900F009FA00F05CF900F0E0
:100F100043F9DFF8B845DFF8B80520604FF4E13158
:100F20000C20002260616160A260E2602261A26127
:100F3000E26122626262204600F01EFB00B1FEE721
:100F4000DFF89005206704F184060020A067E067C1
:100F5000C4F880000C217060B060F06030614FF424
:100F600016453160656704F1700000F005FB00B1C3
:100F7000FEE7DFF86405DFF8641501604FF4827264
:100F80004FF4E0614260C1600222012102614161CF
:100F90004FF4802228218261C16100238022072131
:100FA0008360026243628362C1620363436300F051
:100FB000CDFC00B1FEE700F062F900F0BEF9DFF809
:100FC0002005F06535660C2004F582750021306738
:100FD0007166B166F1667167B167F167296004F106
:100FE000E00000F0C9FA00B1FEE7DFF8F804E866B7
:100FF00004F5B876304600F088FE00F03CF9009128
:10100000002201926946304600F094FE00B1FEE7EE
:10101000DFF8D404E86400217F206865296500209A
:10102000FF21E86528666866A96504F5A87420466E
:1010300000F0A8FE00B1FEE74FF40021204600F0CA
:1010400031FF00B1FEE700F057F8002200F0A1F8F0
:10105000FEE7002280B54FF480319EB00B2007924E
:10106000069110220A920D910590012302224FF45D
:10107000E01109930B930C920E9105A800F03AFF32
:1010800000B1FEE7022101910F204FF48061009032
:1010900000220391029204920221684601F0AFF807
:1010A00000F0E9F81291139115914FF480724FF40A
:1010B0000051189219910022DFF830040F904FF47C
:1010C0000071169210911B920FA801F071F900B1F6
:1010D000FEE701F031F94FF47A71B0FBF1F0FFF760
:1010E000DCFD0420FFF7EDFD002200214FF0FF3072
:1010F000FFF7B6FD1FB000BD10B5DFF8F4430022C6
:1011000000F043F8012200F040F83A2200F041F8E4
:10111000092200F03EF8062200F03BF81E2200F003
:1011200038F8392200F035F81B2200F032F86E2230
:1011300000F02FF8562200F02CF87A2200F029F85F
:10114000382200F026F80F2200F023F8012200F0E8
:1011500020F8BDE8104043220021012010B54901CC
:10116000DFF8904341EA801141F01F01217002F045
:101170000F00120921466070A2704FF47A73BDE827
:1011800010400322D44800F036BC40212046FFF72F
:101190009EBE00210020E1E74FF0A04018B5D64CDC
:1011A00000F038F889B02046FEF7EEFF00F02BF88B
:1011B00000B1FEE702210091012200F01EF8019229
:1011C0006946204613E0CD4818B5CD4C00F022F812
:1011D00089B02046FEF7D8FF00F015F800B1FEE711
:1011E000012100910191204600F007F86946FFF7C0
:1011F000F7F800B1FEE70AB010BD0021039102919B
:1012000004910591704700B1FEE7069006A92046BB
:10121000FFF77ABA20600120E062206200210420FA
:1012200060616160A1602161E16161622163E160EF
:101230006163A161A163704710B5B24CB248B34974
:10124000206000220120E0606160A2602261626192
:10125000A261E2612262204601F086F900F00BF8FB
:10126000204601F0D9F900F006F8204601F0E9F92E
:1012700000B1FEE710BD00B1FEE70021704718B5D0
:10128000A34CA448206000216160A160E16021615D
:101290006161A16195B0204601F0FEF9FFF7EBFF17
:1012A000079008910991204607A901F056FCFFF725
:1012B000E2FF0090019100220391059102920492B5
:1012C00006926946204601F011FC00F056F801F044
:1012D0000DFC00B1FEE708226946204601F006FC3D
:1012E000FFF7C9FF0B910D9100224FF400510F91B0
:1012F0000C920E92109200210A9011914FF0007200
:101300001391149112920AA9204601F04CFC00B1ED
:10131000FEE72046FFF7EEFB16B010BD18B57E4C79
:101320004FF0804000F042F887B0204601F0CAF943
:1013300000F033F800F027F817E018B5774C78483C
:1013400000F034F887B0204601F0BCF900F025F831
:1013500000F019F86946204601F0C9F900F00DF8CF
:1013600001F0C5F900B1FEE708226946204601F008
:10137000BEF900B1FEE708B010BD00B1FEE70422DF
:1013800069462046704700B1FEE701220192002124
:101390000091029100220392704700B1FEE7002104
:1013A00004910691204604A901F0D7BB20600021DA
:1013B0006160A160E1602161A161704770B5594829
:1013C0004B4C594D86B0016841F4001101604FF655
:1013D0004876026802F4001205920599026842F408
:1013E00000220260036803F4002300F0A3F842F433
:1013F00080020260036803F4800300F09BF842F46B
:1014000000320260036803F4003300F093F842F402
:1014100080220260036803F4802300F08BF842F41A
:10142000801202600022006800F4801005903146AE
:10143000059BFFF7ABFE002204212846FFF747FD7E
:1014400034203A4900F07AF869462046FFF770FCEC
:10145000012100F074F80392009669462046FFF7D8
:1014600067FC0320324900F069F869462846FFF717
:101470005FFC04210091012200210291039101925D
:1014800069462846FFF754FC012000210090019195
:1014900002914FF090406946FFF74AFC022100F0AC
:1014A0004EF8E020032100900391052200F04BF854
:1014B000022100F044F84FF4C05003210090039142
:1014C0000E2200F040F806B070BD000010000020B1
:1014D00000500040004400409401002000380040CB
:1014E000004800400074004000280040B611010090
:1014F00000100048AC030020F80100200004005058
:101500004C020020A0020020005400400E090020E0
:10151000EC020020002C01402C0300206C03002072
:10152000000800401410024000080048000012109B
:101530000000111005930599026870470090019111
:10154000002202927047049269464FF09040FFF7E4
:10155000EFBB000080B50748016841F01001016051
:101560000320FFF770FB002001F0C6FBFFF788F9AE
:10157000002002BD0020024038B5040009D004F16B
:101580006805697809B900F028F800F00DF801281D
:1015900001D1012032BD606A08B100F023F800F0EB
:1015A00014F821F02A0109E02421697020680268FA
:1015B000520852000260204600F01EB8816000F020
:1015C00014F8BDE8324000F062B92068416821F4A7
:1015D0009041416020688168704700202870204653
:1015E000FFF7A0BA204600F0EFB82068016841F08C
:1015F0000101016020467047F8B504466948266835
:101600003768A168074020690F4361690743E069B3
:101610000F430743376010227168E06821F440519E
:10162000014371600023B768A169206A27F430671D
:1016300000250F435C4907438E42B7605B480AD1DF
:10164000006800F0030003283BD8DFE800F0022622
:101650003914012235E056498E420ED1006810F44B
:1016600040304FD0B0F5803F17D0B0F5003F27D0C5
:10167000B0F5403F25D1022223E04E498E420ED1E3
:10168000006810F440203DD0B0F5802F05D0B0F5B3
:10169000002F15D0B0F5402F10E0042211E046498C
:1016A0008E421FD1006810F440102BD0B0F5801F7F
:1016B000F3D0B0F5001F03D0B0F5401FDBD000E041
:1016C0000822E069B0F5004F40D142B1012A1BD099
:1016D000022A1CD0042A1FD0082A26D02CE000F0B1
:1016E0002EFE1BE035498E42EBD1006810F440001D
:1016F00008D0B0F5800FD0D0B0F5000FE0D0B0F535
:10170000400FDBE70022DCE700F021FE06E0606826
:101710002B4901EB50010CE000F0F0FD61684A0834
:1017200002EB4002B2FBF1F307E06068410801F50B
:101730008031B1FBF0F300E001254FF6F071194064
:10174000C3F3420001432068C16029E042B1012A8D
:1017500009D0022A0AD0042A0DD0082A16D01EE089
:1017600000F0EDFD09E000F0F2FD06E060681549CB
:1017700001EB50010EE000F0C1FD616800EB51008B
:10178000B0FBF1F0216880B2C86009E060684108F0
:1017900001F50041B1FBF0F080B2F06000E00125FE
:1017A0002846F2BDF369FFFF0038014030100240C7
:1017B0000044004000480040004C00400050004001
:1017C0000024F40000127A0090F82410CA0706D50D
:1017D00002685368816A23F400330B43536090F826
:1017E00024108A0706D502685368C16A23F480333F
:1017F0000B43536090F824104A0706D502685368DB
:10180000016B23F480230B43536090F824100A07E4
:1018100006D502685368416B23F400430B435360C1
:1018200090F82410CA0606D502689368816B23F4E9
:1018300080530B43936090F824108A0606D5026803
:101840009368C16B23F400530B43936090F824100A
:101850004A0610D502685368016C23F480130B43C9
:101860005360036CB3F5801F05D15368416C23F4BA
:10187000C0030B43536090F824100A0606D5016894
:101880004A68806C22F4002202434A607047F8B52F
:10189000044604F16805002068606FF07E47FFF79A
:1018A000BFF90646206801680A0708D50097334645
:1018B00000224FF40011204600F016F860B92068AD
:1018C00001684A070AD50097334600224FF4800189
:1018D000204600F009F808B10320F2BD202068700E
:1018E000A87000202870F2BD2DE9F041069C054645
:1018F0000E4690461F462868C1693140B1420CBF70
:1019000001200020404518D114F1010FF3D024B17B
:10191000FFF786F9C01B8442EDD22868016821F4E4
:10192000D071016000F00CF805F1680020214170D1
:10193000817000210170032000E00020BDE8F081EB
:1019400028688168490849008160704770B50400C3
:1019500001D1012070BD0020A06204F15C0568780F
:1019600020B9002129702046FFF748F8022068704E
:1019700000F0C4F9E168B1F5E06F04D90022B1F5D7
:10198000706F03D104E04FF4805201D00020A062B8
:10199000206B30B9B1F5E06F87BF022020630121D1
:1019A00021636368A06821692668034360690B436B
:1019B000A169034301F40071E0690B43216A034309
:1019C000A06A0B4303433360A369606A616B1B0C1D
:1019D00003F004030343E0680B4303431A43236803
:1019E0005A602068C16921F40061C161002068600B
:1019F0000121697070BD2DE9F843044604F14406E5
:101A00000027307E01280D469146984608BF0220E7
:101A100000F0AA8001203076FFF702F9717E0129DB
:101A200018BF02274ED1290018BFB9F1000F00F0EE
:101A3000958003227276F761A163A4F83C90A4F824
:101A40003E90276437807780F760B760A268B2F570
:101A5000004F04D12268136843F480431360226866
:101A600013685D0600F082F840F20175E368626871
:101A7000AB4228D3002A1CBFE28F012A06D122687C
:101A800031F8023BD360E38F5A1EE2878946054650
:101A900005E039F8021BC160E08F411EE187E08F4D
:101AA000002849D0206881688A07F2D4B8F1000F75
:101AB00007D018F1010FF2D0FFF7B2F8401B4045F4
:101AC000EDD303274BE0002A1CBFE28F012A09D186
:101AD0002268E38F022B08D331F8025BD560E28FD6
:101AE000931EE387894605460BE011F8015B1573E9
:101AF000E28F531EF5E739F8021BC160E08F811EAB
:101B0000E187E08FC0B1206881688A0708D5E18F3E
:101B10000229F0D219F8012B0273E08F411EEFE782
:101B2000B8F1000FCDD018F1010FEAD0FFF778F827
:101B3000401B4045E5D3C4E72A46414600F01EF865
:101B400008B12020F061A06830B900972168CA6808
:101B5000009289680091009AF06900B10127012084
:101B60007076002131763846BDE8F28303D41368DD
:101B700043F040031360704702466421204600F0A2
:101B8000A2B82DE9F041069F05460E4690461C4638
:101B9000286881683140B1420CBF012000204045D7
:101BA00030D014F1010FF3D024B1FFF739F8C01B86
:101BB000A042EDD32868416821F0E00141606868E7
:101BC000B0F5827F0BD1A868B0F5004F18BFB0F513
:101BD000806F04D12868016821F040010160A86A83
:101BE000B0F5005F09D12868016821F40051016057
:101BF0002868026842F40052026005F15C0000F0BF
:101C00004FF800E00020BDE8F0812DE9FC41089F7D
:101C10000646884614461D463068816808EA010178
:101C2000A1423AD0B8F5C06F08BF002C04D1007BA8
:101C30008DF800009DF8001015F1010FECD025B1D2
:101C4000FEF7EEFFC01BA842E6D33068416821F0E2
:101C5000E00141607068B0F5827F0BD1B068B0F5EB
:101C6000004F18BFB0F5806F04D13068016821F0D3
:101C700040010160B06AB0F5005F09D130680168C9
:101C800021F4005101603068026842F400520260A1
:101C900006F15C0000F004F800E00020BDE8F681E9
:101CA00001214170002202700320704700962B46EC
:101CB00000228021204664E700962B4600224FF444
:101CC000C0612046A1E77CB50D4616460446009645
:101CD0002B4600224FF4C051FFF797FF28B9FFF7BA
:101CE000E5FF10B9FFF7E8FF08B100F001F876BD95
:101CF000206E40F0200020660320704720680168B5
:101D000021F0400101607047000010B5040001D1CE
:101D1000012010BD207920B9002161712046FEF715
:101D200023FE02202071002121610120207100206A
:101D300010BD000070B54379012B01D1022070BDA8
:101D4000012343710224047140F6FE7503681C6888
:101D50000E68496895400E43AC43964034431C607E
:101D6000C02401680B6804FA02F223EA02020A6046
:101D700000F001F870BD01210171002242710020C4
:101D80007047000070B5040031D0607F20B9002199
:101D900021772046FEF72AFE00F03BF85320216809
:101DA000486200F047F8FF25E8B92168DFF88800AD
:101DB0008A6802408A60226893686668216960695F
:101DC0000E430643334393602068E1680161206855
:101DD0000169A26841EA0241016100F020F808D4DB
:101DE00000F026F828B120684562042161770120BF
:101DF00070BD2068016C21F48021016421680A6CA7
:101E0000A06902430A64012021684D6260770020C6
:101E100070BD02206077CA21226851627047206835
:101E2000C16821F08001C160206881688806704720
:101E3000204603E020461AE0BFFF8FFF38B5044676
:101E40002068C16821F0A001C160FEF7E9FE0546E7
:101E50002068C168880608D4FEF7E2FE401B40F205
:101E6000E9318842F4D3032032BD002032BD38B5B9
:101E700004462068C1684A0612D44FF0FF31C160A1
:101E8000FEF7CEFE05462068C168480608D4FEF776
:101E9000C7FE401B40F2E9318842F4D3032032BD33
:101EA000002032BD10B5027F012A01D1022010BDF1
:101EB0000122027702234377CA2204686262532315
:101EC000026853620268936823F4002393600268F7
:101ED000936819439160012301688A6842F4000203
:101EE0008A60FF2102685162437700210177002058
:101EF00010BD00002DE9F843040018D02078DFF869
:101F00006454C10740F1DB80686800F00C000428CD
:101F100007D0686800F00C0008280AD16868C1037F
:101F200007D500F063F93DD0606800282CD101206E
:101F300050E16068B0F5803F04D1286840F48030FB
:101F4000286014E008B928680AE0B0F5A02F2868D6
:101F500006D140F480202860296841F4803105E0F2
:101F600020F480302860296821F480212960E86A03
:101F7000A168000941EA0010E862606868B1FEF7F4
:101F80004FFE064600F032F940F09980FEF748FE19
:101F9000801B6528F6D303201CE1FEF741FE0646B0
:101FA00000F024F900F08B80FEF73AFE801B6528D4
:101FB000F6D3F0E7FEF734FEC01B022840F2AE80F5
:101FC000E9E7206970B101213160FEF729FE07467B
:101FD00000F007F940F08D80FEF722FEC01B0228BA
:101FE000F6D9D8E73060FEF71BFE074600F0F9F897
:101FF00000F08680FEF714FEC01B0228F6D9CAE75F
:102000000860FEF70DFE074600F072F900F08A80C6
:10201000FEF706FEC01B0228F6D9BCE708B9286AFD
:1020200009E00528286A06D140F004002862286AE1
:1020300040F0010005E0400840002862286A20F0D6
:102040000400286241F28938E06870B1FEF7E8FDCB
:102050008146286A00F04DF940F09480FEF7E0FDDB
:10206000A0EB09004045F4D395E7FEF7D9FD814682
:10207000286A00F03EF900F08580FEF7D1FDA0EB64
:1020800009004045F4D386E7FEF7CAFDC01B0228CD
:1020900040F28B807FE7FEF7C3FD001B022840F271
:1020A000948078E700F0A7F8044600F095F800F077
:1020B0009080FEF7B5FD001B0228F6D96BE720786B
:1020C000DFF8AC6281071BD5686810F00C0F09D0EF
:1020D000686800F00C0008287FF473AF6868C103DB
:1020E0003FF56FAF00F07DF81CBF206901287FF439
:1020F0001EAF2868616920F0F80040EAC10028603E
:10210000207801070ED5A069DFF8681200283FF497
:1021100077AF01220A60FEF783FD074600F0E8F87A
:102120003FF448AF2078410731D5E8690027C10066
:1021300009D4E86940F08050E8610127E86900F0BF
:10214000805000900098DFF83082D8F80000C10578
:1021500013D4D8F8000040F48070C8F80000FEF7EF
:102160005FFD8146D8F80000C10506D4FEF758FD92
:10217000A0EB09006528F5D30DE7E06801287FF49E
:102180004DAF54E71FB1E86920F08050E861E06985
:10219000F8B1696801F00C0108293FF4C8AE0228C3
:1021A0007FF480AF00F027F8074600F015F87FF4C1
:1021B0006BAF6A68606A216A22F4741202430A43B0
:1021C0006A60012000F018F8044600F005F83FF4BA
:1021D00062AF0020BDE8F2832868C0F340600028A9
:1021E00070472868C0F34000002870472868C0F393
:1021F00040400028704700203066FEF711BD2DE9F1
:10220000F0410400884667D05C4E00F06CF802D2C2
:1022100000F064F860D12078524D810705D56A68D6
:10222000A06822F0F00202436A602178C8074BD50B
:102230006168012903D12868C0F3404004E0022905
:10224000286803D1C0F3406018B945E000F051F8A8
:1022500042D06868800841EA80016960FEF7E0FCCE
:1022600007466868616800F00C00B0EB810F2BD066
:10227000FEF7D6FCC01B41F289318842F1D303201E
:1022800020E02078410705D56A68E06822F4E06222
:1022900002436A602178080706D56968206921F43D
:1022A000605141EAC001696000F028F86968344A69
:1022B000C1F30311515C2C4AC8401060002000F0AB
:1022C0001BFD0020BDE8F081306800F0070080456C
:1022D000D7D200F003F8D4D00120F3E73168C90861
:1022E00048EAC1013160306800F00700404570479E
:1022F000686AC0F3400000287047000010B521490B
:102300000A6802F00C00082814D100BF20A3C2F311
:102310008340D203185C896A09D500BF20A4134BFF
:1023200001F00F01625CB3FBF2F2504310BD16499D
:10233000484310BD0D4810BD0B4800687047114858
:10234000094A0168114B1068C1F3022106E00D48EB
:10235000054A01680D4B1068C1F3C221595CC840A1
:1023600070470000001002400C00002000127A00AC
:1023700000004242800442420070004000200240BF
:10238000A42D00080410024000093D00F42E0008AE
:1023900002030405060708090A0B0C0D0E0F1010A6
:1023A0000102030405060708090A0B0C0D0E0F10A5
:1023B0002DE9FC410546DFF8A4612868C10354D526
:1023C000B0690024C10009D4B06940F08050B06108
:1023D0000124B06900F0805000900098DFF880710F
:1023E0003868C10519D4386840F480703860FEF749
:1023F00017FC80463868C1050FD4FEF711FCA0EB2E
:1024000008006528F6D30320A5E0FEF709FCC01BF1
:1024100041F28931884218D3F5E7F06910F4407031
:102420001EBF696801F44071884213D0DFF834118F
:10243000F06901220A60002320F440700B60F06113
:10244000C00707D5FEF7ECFB0746F069C0F3400074
:102450000028DAD0F169686821F440710143F16124
:102460001CB1B06920F08050B0612878C10705D553
:10247000F26AA868920840EA8202F2622978880724
:1024800005D5F16AE86821F440310143F162297809
:10249000480705D5F16A286921F440210143F1621A
:1024A0002978880605D5F16AE86921F01001014311
:1024B000F1622968880305D53168A86B21F4800191
:1024C000014331602978480605D5F16A286A21F070
:1024D00020010143F1622978080705D5F16A68698E
:1024E00021F440110143F1622978C80605D5F16A4B
:1024F000A86921F440010143F1622968880505D5E6
:102500003168E86A21F40001014331602978080646
:1025100005D5B16A686A21F4F8710143B16229688E
:10252000C80505D5B16AA86A21F478510143B162A2
:102530002968C80405D5F16A286B21F4807101432C
:10254000F1622968880405D5F16A686B21F400718D
:102550000143F1620020BDE8F68100000410024052
:10256000007000404004424238B5040001D101200F
:1025700032BD04F14005687820B900212970204659
:10258000FEF712FA00F040F86068216820F07060F1
:1025900008612068816821F400418160E068216859
:1025A0000128A0680CBF40F4004040F4044088605B
:1025B000E068022803D120684FF400614160206880
:1025C000416841F0007141F4004141602068C168F8
:1025D00021F40041C16060692169A269014320685A
:1025E00041EA0221C160206AE16922680143116069
:1025F0002068016841F0010101600020686020212D
:1026000069702063A87032BD24206870206801685A
:10261000490849000160704730B500F14002537825
:10262000202B0CD11478012C09D000F01DF824F4D3
:1026300080541C6003681D682943196020E0022053
:1026400030BD30B500F140025378202B0AD1147808
:10265000012C07D000F008F824F4706444EA012447
:102660001C600DE0022030BD01231370242454703F
:1026700003681D686D086D001D6003681C68704765
:102680000068016841F001010160202050700021C4
:102690001170002030BD000038B5040001D10120C8
:1026A00032BD00F020F818B900F019F8FEF7DBF998
:1026B00002206870211D206800F09EF801206870DB
:1026C000002032BD38B5040001D1012032BD00F038
:1026D0000AF818B900F003F8FEF7D6F9E8E7002188
:1026E00029702046704704F13C0568787047F8B5BA
:1026F000064606F13C040D462078012801D102204F
:10270000F2BD012020700221617082B9EB686A6815
:102710002968306800F098F93068816921F00C016F
:10272000816131688A69A86802438A615EE0042A8F
:1027300011D1EB686A682968306800F0C1F9306827
:10274000816921F44061816130688169AA6841EA48
:10275000022181614AE0082AE9686A682B6823D16E
:102760003768386A20F4807038621B0207F11C0059
:1027700003F42063D0F800C0D7F820E04FEA9C0CA7
:1027800042EA8C0261F3071202602EF420600343D8
:102790003B623068C16921F00C01C1613168CA69CE
:1027A000A8680243CA6121E030681C301B034768F7
:1027B00027F48057476003F420430768D0F804C02B
:1027C00027F4407747EA022761F30F372CF42041C2
:1027D00007600B4343603068C16921F44061C16107
:1027E0003068C169AA6841EA0221C16101206070B4
:1027F000002121700020F2BD2DE9F041A74FD0F853
:1028000000C0A74BA74CA84DA84EDFF8A4E2DFF804
:10281000A482B84218BFB0F1804F04D040451CBF1D
:102820007045B0420DD14A68B8422CF0700C18BF08
:10283000B0F1804F42EA0C0C0BD0404518BF7045F8
:1028400007D0B04218BFA84203D0A04218BF984298
:1028500004D1CA682CF4407C42EA0C0C4A692CF082
:10286000800C42EA0C020260B8428A68C26218BF59
:10287000B0420A68826204D0A8421CBFA0429842BB
:1028800001D10969016301224261BDE8F0810000C4
:102890002DE9F041026ADFF80482DFF810E2814F8F
:1028A000DFF804C2520852000262066A4468856971
:1028B000814A0B6826F0020615408A6816431D43BC
:1028C000404518BF7045764B04D060451CBFB842E8
:1028D00098420DD1CA6826F008061643404518BF35
:1028E000704526F0040605D0604518BFB84201D0F7
:1028F000984205D14B698A6924F440741C431443FF
:1029000044608561496841630662BDE8F08100006A
:10291000F0B5026A22F010020262056A4368846917
:10292000664A0E6814408A6844EA062425F02005A9
:1029300045EA0215594E5D4AB04218BF904208D18F
:10294000CF6825F0800545EA0715B04225F040051F
:102950000AD090421CBF544A904205D0514EB0421A
:102960001CBF4F4A904206D14E698A6923F44063E6
:10297000164343EA860343608461496881630562C4
:10298000F0BDF0B5026A4C4B22F480720262066A16
:102990004468C5690A6826F400761D408B6846EADB
:1029A000032615433D4B414A984218BF904208D137
:1029B000CF6826F4006646EA0726984226F4806629
:1029C0000AD090421CBF384A904205D0354B9842FD
:1029D0001CBF334A904206D14B698A6924F44054A3
:1029E000134344EA03144460C5614968C163066245
:1029F000F0BD70B5026A22F480520262036A446834
:102A0000C5692E4A0E68154045EA06258A68234E98
:102A100023F4005343EA0233B0421CBF234A9042DE
:102A200007D0214EB0421FBF1E4A90421C4EB042FA
:102A300004D14A6924F4804444EA82144460C561A4
:102A400049680164036270BDF0B5046A134E6408FE
:102A500064000462B0428469056A18BFB0F1804F17
:102A60000BD0144EB0421CBF114FB84205D00F4ED0
:102A7000B0421CBF0C4FB84203D1A40842EA840202
:102A800001E044F0010263F3071225F00A0501F0AA
:102A90000A01826129430162F0BD0000002C01405F
:102AA0000048014000440140004001400034014022
:102AB00000080040000400408CFFFEFFFF8CFFFE7A
:102AC00030B5046A24F01004046209018469056ABF
:102AD00024F4407444EA022463F30F3425F0A00583
:102AE00001F0A00184612943016230BD38B500F1D5
:102AF0003C042378012B01D1022032BD0123237035
:102B0000022565706AB1042A0FD0082A11D00C2A58
:102B100013D0102A15D0142A04BF006800F0B2F8B0
:102B200012E00068FFF7B4FE0EE00068FFF7F0FE69
:102B30000AE00068FFF725FF06E00068FFF759FF8D
:102B400002E0006800F074F800F001F832BD0120E6
:102B50006070002121700020704770B590F83C2013
:102B6000012A01D1022070BD012280F83C200368B7
:102B70005A4A5C689D6893421CBF594EB34203D1C8
:102B80004A6824F4700414438A68096824F07004C5
:102B900025F080050C4315435C609D60002280F8A1
:102BA0003C20002070BD30B590F83C20012A01D1B6
:102BB000022030BD012280F83C20CC688A684B6836
:102BC0008D6A24F44074144324F480641C430A681E
:102BD0000B6924F40064144324F480541C434A69B0
:102BE000036824F40054144324F480442C4324F454
:102BF00000442C438A69394D24F4702444EA024489
:102C0000AB421CBF364A93420CD14A6A24F470048A
:102C100044EA0254CA69096A24F08074144324F017
:102C200000740C435C64002280F83C20002030BD1E
:102C300070B5026A2B4B22F480320262046A456846
:102C4000466D0A681E4016438B68244A24F40034FB
:102C500044EA034490421CBF214B984207D0224AC9
:102C600090421FBF214B9842214A904204D14A69A9
:102C700025F4803545EA0225456046654968816549
:102C8000046270BD70B5026A22F480120262036AA7
:102C90004468456D174A0E68154045EA06258A685E
:102CA0000E4E23F4001343EA0253B0421CBF0C4AF9
:102CB000904207D00C4EB0421FBF0C4A90420C4EBF
:102CC000B04204D14A6924F4802444EA8224446056
:102CD00045654968C165036270BD0000002C014074
:102CE000003401408FFFFEFF0040014000440140DE
:102CF00000480140FF8FFFFE38B50D4D0D4B2A787F
:102D000004464FF47A711868B1FBF2F2B0FBF2F0AE
:102D1000FDF7C3FF50B9102C08D2002221464FF016
:102D2000FF30FDF79DFFAC60002032BD012032BDB9
:102D3000000000200C00002010B51448144A01685F
:102D400041F4700101601068124940F00100106008
:102D5000536811480B40536000231468044014600A
:102D6000116821F480211160506820F4FE00506049
:102D7000D06A00090001D062116B0848014011635C
:102D800093604FF000600649086010BD88ED00E0D8
:102D9000001002400CC07FF8FFFFF6FECCFC00FFE5
:102DA00008ED00E000000000000000000102030444
:102DB0000607080930B450F8041B79B1026843686B
:102DC00002440830DC0744BFA9F10104E31852F8BB
:102DD000045B43F8045B091FF9D1ECE730BC704792
:102DE00010B5074979441831064C7C44163404E088
:102DF0000A68081D114488470146A142F8D110BD58
:102E00002C0000004C0000004EF68851CEF200016C
:102E1000086840F470000860BFF34F8FBFF36F8FF6
:102E20004FF00070E1EE100A70470000CBDEFFFFAC
:102E3000A0030000100000200000000079FFFFFF49
:102E400010000000940000000000002000000000BE
:102E50007047FEE7FEE7FEE7FEE770477047704702
:102E600080B500F005F8BDE80140FDF741BF000066
:102E70000248416802788A184260704700000020CA
:102E800000F00DF8002801D0FFF7AAFFAFF3008093
:102E90000020AFF30080FEF72DF800F002F80120CB
:102EA000704700F001B800000746384600F002F80D
:102EB000FBE7000080B5AFF30080024A1100182044
:102EC000ABBEFBE7260002000148804701480047EF
:102ED000392D0008E92E0008010000000000000064
:102EE0001000000000127A00AFF30080FFF78CFFA3
:102EF000FFF7C6FF0000000001020304FFF7FEBF5A
:102F0000FFF7FEBFFFF7FEBFFFF7FEBFFFF7FEBFF5
:102F1000FFF7FEBFFFF7FEBFFFF7FEBFFFF7FEBFE5
:102F2000FFF7FEBFFFF7FEBFFFF7FEBFFFF7FEBFD5
:102F3000FFF7FEBFFFF7FEBFFFF7FEBFFFF7FEBFC5
:102F4000FFF7FEBFFFF7FEBFFFF7FEBFFFF7FEBFB5
:102F5000FFF7FEBFFFF7FEBFFFF7FEBFFFF7FEBFA5
:102F6000FFF7FEBFFFF7FEBFFFF7FEBFFFF7FEBF95
:102F7000FFF7FEBFFFF7FEBFFFF7FEBFFFF7FEBF85
:102F8000FFF7FEBFFFF7FEBFFFF7FEBFFFF7FEBF75
:102F9000FFF7FEBFFFF7FEBFFFF7FEBFFFF7FEBF65
:102FA000FFF7FEBFFFF7FEBFFFF7FEBFFFF7FEBF55
:102FB000FFF7FEBFFFF7FEBFFFF7FEBFFFF7FEBF45
:102FC000FFF7FEBFFFF7FEBFFFF7FEBFFFF7FEBF35
:102FD000FFF7FEBFFFF7FEBFFFF7FEBFFFF7FEBF25
:102FE000FFF7FEBFFFF7FEBFFFF7FEBFFFF7FEBF15
:102FF000FFF7FEBFFFF7FEBFFFF7FEBFFFF7FEBF05
:04300000FFF7FEBF19
:0400000508002EE9D8
:00000001FF
