:020000040800F2
:100000006805002075270008A9270008AD2700080B
:10001000B1270008B5270008B92700080000000034
:100020000000000000000000000000004927000858
:10003000BD270008000000004B2700084D270008DE
:10004000C1270008C5270008C9270008CD270008D8
:10005000D1270008D5270008D9270008DD27000888
:10006000E1270008E5270008E9270008ED27000838
:10007000F1270008F5270008F9270008FD270008E8
:100080000128000805280008092800080D28000894
:100090001128000815280008192800081D28000844
:1000A0002128000825280008292800082D280008F4
:1000B0005127000831280008352800083928000891
:1000C0003D28000841280008452800084928000864
:1000D0004D28000851280008552800085727000817
:1000E000592800085D2800086128000865280008D4
:1000F000692800086D280008712800087528000884
:100100000000000000000000000000007928000846
:100110007D28000881280008852800088928000813
:100120008D280008912800089528000899280008C3
:100130009D280008A1280008000000000000000021
:10014000A5280008A9280008AD2800080000000024
:10015000000000000000000000000000000000009F
:100160000000000000000000B1280008B5280008C9
:10017000B928000800000000000000000000000096
:1001800000000000BD28000838B5040015D004F1B7
:1001900068056878002804D100202870204600F007
:1001A00072FB2420687020680168490849000160DA
:1001B000204600F0C1F8012801D1012032BD606A5B
:1001C000002802D0204600F0CDF92068416821F4D3
:1001D000904141602068816821F02A018160206897
:1001E000016841F0010101602046BDE8324000F0A5
:1001F0001DBA38B504462568E9692A6811F00F0070
:1002000008D18B0606D5930604D52046BDE83240BA
:1002100000F0C7BAAB6800286BD0D80702D412F43C
:10022000907F66D00846C00707D5D00505D50120C8
:100230002862E06E40F00100E066880709D51846A4
:10024000C00706D5022025682862E06E40F0040051
:10025000E066480709D51846C00706D5042025687A
:100260002862E06E40F00200E06608070AD59006BA
:1002700001D4D80706D5082023681862E06E40F044
:100280000800E066E06E002854D0880604D5900689
:1002900002D5204600F085FAE06E000703D42068FE
:1002A000806840061FD5204600F024FA2068816847
:1002B000490613D5816821F040018160606E0028F5
:1002C0000CD00FF251414163606E00F01BFB00281F
:1002D00030D0606E416BBDE8344008472046BDE831
:1002E000324000F036BB204600F033FB0020E066D1
:1002F00031BDC8020ED558020CD54FF480102862CB
:1003000004F169002021017041702046BDE83240AF
:1003100000F020BB080605D5100603D52046BDE831
:100320003240FFE1480605D5500603D52046BDE81A
:10033000324029E231BD000070B50546102100228F
:1003400014462B681E687E480640A8680643286944
:10035000064368690643E86906431E602B685E68C9
:1003600026F44056E86806435E602B689E6826F4D3
:100370003066A8690643286A06439E602868714B68
:1003800098420BD1704B1B6803F00303032B3FD83B
:10039000DFE803F002293D15012139E06B4B98425B
:1003A0000FD1694B1B6813F440335AD0B3F5803F2B
:1003B00019D0B3F5003F2AD0B3F5403F28D1022130
:1003C00026E0634B984210D15F4B1B6813F4402327
:1003D00047D0B3F5802F06D0B3F5002F17D0B3F573
:1003E000402FECD014E0042112E05A4B984226D161
:1003F000554B1B6813F4401333D0B3F5801FF2D074
:10040000B3F5001F03D0B3F5401FD8D000E008219A
:10041000EB69B3F5004F53D1082947D8DFE801F065
:1004200005232D46344646463E0000F0ECFC696844
:100430000A46520802EB4002B2FBF1F237E0464BAB
:100440009842E5D1404B1B6813F4400309D0B3F543
:10045000800FC8D0B3F5000FD9D0B3F5400FAED0A0
:10046000D6E71146D4E700F0D9FC69680A4652087D
:1004700002EB4002B2FBF1F219E06868374901EB88
:100480005001B1FBF0F212E000F09EFC69680A46F0
:10049000520802EB4002B2FBF1F208E06868014644
:1004A000490801F58031B1FBF0F200E001244FF67C
:1004B000F0711140C2F3420001432868C1603DE081
:1004C00008293AD8DFE801F005101B3924393939F9
:1004D0002F0000F098FC696800EB5100B0FBF1F0D0
:1004E00080B22968C86029E000F098FC696800EBD8
:1004F0005100B0FBF1F080B22968C8601EE0696865
:10050000174A02EB5102B2FBF1F189B2C16015E06A
:1005100000F05AFC696800EB5100B0FBF1F080B2CA
:100520002968C8600AE069680A46520802F5004274
:10053000B2FBF1F189B2C16000E00124204670BD38
:10054000F369FFFF003801403010024000440040D2
:1005500000480040004C0040005000400024F400DF
:1005600000127A0090F82410C90706D50268536873
:1005700023F40033816A0B43536090F824108907F9
:1005800006D50268536823F48033C16A0B43536075
:1005900090F82410490706D50268536823F4802395
:1005A000016B0B43536090F82410090706D50268CD
:1005B000536823F40043416B0B43536090F82410BD
:1005C000C90606D50268936823F48053816B0B43F8
:1005D000936090F82410890606D50268936823F486
:1005E0000053C16B0B43936090F82410490611D55A
:1005F0000268536823F48013016C0B435360016C51
:10060000B1F5801F06D10268536823F4C003416C22
:100610000B43536090F82410090606D501684A6818
:1006200022F40022806C02434A6070477CB5044685
:1006300004F168050020686000F022FC064620688E
:10064000006800070BD56FF07E4000903346002213
:100650004FF40011204600F01AF800280FD120684E
:10066000006840070DD56FF07E40009033460022B1
:100670004FF48001204600F00AF8002801D0032042
:1006800076BD20206870A8700020287076BD2DE906
:10069000F04105460E4617469846069C2868C069F4
:1006A0003040B04201D1012000E0002039468842AC
:1006B0001DD114F1010FF1D0002C05D000F0E0FBAA
:1006C000A0EB08008442E9D22868016821F4D071C7
:1006D00001602868816849084900816005F1680067
:1006E00020214170817000210170032000E0002072
:1006F000BDE8F08101680A6822F490720A6001681E
:100700008A68520852008A60202180F86A10704777
:1007100000000000406A00F1520100220A810A80B4
:1007200000F017B900F15202D17D21292AD1118898
:1007300000290BD101680A6822F080020A60006873
:10074000016841F040010160002070478168B1F507
:10075000805F0CD10169002909D1C16C0988C1F3FE
:10076000080103681985C16C891CC16405E0C16C6E
:100770004B1CC3640978006801851088401E1080F6
:10078000002070470220704780B501680A6822F097
:1007900040020A60202180F8691000F077FB0020F9
:1007A00002BD38B500F15A0253880168147C222C2E
:1007B0002BD18C8C8168B1F5805F09D1016900294A
:1007C00006D12340416D0B80416D891C416504E0D9
:1007D000416D4D1C456523400B701188491E1180E9
:1007E00089B200290FD101680B6823F490730B6064
:1007F00001688B685B085B008B602021117400F03E
:1008000046FB002032BD002032BD886940F0080060
:100810008861022032BD30B4002513E050F8042B6B
:10082000D30744BFA9F101039A18091F042942F80C
:10083000045BFAD213468C0744BF15809B1CC90782
:1008400048BF1D7050F8041B0029E7D130BC704729
:1008500080B52848284901604FF4165141600021B5
:100860008160C16001610C21416100218161C16130
:1008700001624162FFF788FC002803D0BDE8014017
:1008800000F068BB01BD10B586B0044601A8142174
:1008900000F062FB20681849884229D11748816816
:1008A00041F480218160816801F4802100910099E8
:1008B000016841F480110160006800F4801000902C
:1008C00000984FF4407001900220029000200390A5
:1008D000032004900720059001A9094800F040FB7F
:1008E00000221146272000F057FC272000F063FC6F
:1008F00006B010BD10000020004800401410024057
:10090000000C004810B5002400F1340290F82110CA
:10091000022903D004205060012418E001680B680C
:1009200023F00E030B6001680B685B085B000B6033
:100930000123D1688B4091684B60012180F8211020
:10094000214680F820101168002900D088472046F1
:1009500010BD7047704700002DE9FC4104001CD019
:10096000DFF8D0542078C00740F10881686800F0B3
:100970000C00042807D0686800F00C0008280ED18D
:100980006868C0030BD52868C0F34040002800F019
:10099000F5806068002840F0F18001208DE16068FA
:1009A000B0F5803F04D1286840F4803028601DE015
:1009B000002808D1286820F480302860286820F4B6
:1009C0008020286012E0B0F5A02F286807D140F4FD
:1009D00080202860286840F48030286006E020F4F9
:1009E00080302860286820F480202860E96A09099E
:1009F000A06850EA0111E962606800280FD000F099
:100A00003FFA06462868C0F34040002840F0B68010
:100A100000F036FA801B6528F4D303204DE100F086
:100A20002FFA06462868C0F34040002800F0A68050
:100A300000F026FA801B6528F4D3EEE700F020FAD8
:100A4000801B022840F2C980E7E7DFF8F413206931
:100A5000002810D00120086000F012FA064628682D
:100A6000C0F34000002840F0E58000F009FA801B48
:100A70000228F4D9D1E70020086000F001FA064608
:100A80002868C0F34000002800F0998000F0F8F9D1
:100A9000801B0228F4D9C0E70020086000F0F0F9BC
:100AA0000646686AC0F34000002800F09C8000F011
:100AB000E7F9801B0228F4D9AFE7002808D1286A9B
:100AC000400840002862286A20F00400286211E0F3
:100AD0000528286A07D140F004002862286A40F0FF
:100AE0000100286206E0400840002862286A20F0E1
:100AF00004002862E068002810D000F0C1F9074621
:100B0000286AC0F34000002840F0A58000F0B8F942
:100B1000C01B41F289318842F2D37EE700F0B0F980
:100B20000746286AC0F34000002800F0948000F0D7
:100B3000A7F9C01B41F289318842F2D36DE700F07A
:100B40009FF9C01B022840F29E8066E700F098F9EA
:100B5000001B022840F2AA805FE70020306600F008
:100B60008FF904462868C0F34060002800F0A48094
:100B700000F086F9001B0228F4D94EE720788007A0
:100B80001DD5686810F00C0F09D0686800F00C00E3
:100B900008287FF45AAF6868C0033FF556AF28684D
:100BA000C0F34000002803D0206901287FF4F5AE8F
:100BB000286820F0F800616940EAC10028602078C8
:100BC000000710D5DFF87C12A06900283FF464AF5D
:100BD0000120086000F054F90646686AC0F340003E
:100BE00000283FF42BAF207840073AD50026E8696B
:100BF000C00009D4E86940F08050E861E86900F07D
:100C00008050009000980126DFF83C723868C005DB
:100C100018D4386840F48070386000F031F98046AC
:100C20003868C0050ED400F02BF9A0EB0800652849
:100C3000F6D3F2E6286820F0F800616940EAC100C6
:100C40002860BCE7E06801287FF437AF286A40F0ED
:100C5000010028624EE7012E03D1E86920F08050A0
:100C6000E861E069002827D0696801F00C010829D3
:100C70003FF493AE724E02287FF46FAF00203066CF
:100C800000F0FEF807462868C0F3406000287FF4B3
:100C900056AF696821F47411606A0143206A014308
:100CA00069600120306600F0EBF804462868C0F364
:100CB000406000283FF44AAF0020BDE8F6812DE9EE
:100CC000F04104460F46002C7CD0604E306800F0A6
:100CD0000700B84209D23068C00857EAC000306047
:100CE000306800F00700B8426CD1524D2078800780
:100CF00005D5696821F0F001A0680143696020789A
:100D0000C00750D56168012905D12868C0F340406B
:100D100000280CD156E00229286804D1C0F34060B5
:100D2000002804D14EE0C0F3400000284AD0686893
:100D3000800851EA8001696000F0A2F88046686886
:100D400000F00C006168B0EB810F2CD000F098F837
:100D5000A0EB080041F289318842F0D3032020E063
:100D60002078400705D5696821F4E061E068014317
:100D700069602078000706D5686820F46050216912
:100D800040EAC100686000F01FF86968304AC1F3AA
:100D90000311515CC84029490860002000F01AFA8C
:100DA0000020BDE8F081306800F007008742D7D20C
:100DB0003068C00857EAC0003060306800F00700B3
:100DC000B842CDD00120ECE722490A6802F00C00BD
:100DD000082813D122A0C2F38343C05C896A00BFF4
:100DE00023A301F00F01595CD20304D5124AB2FBD0
:100DF000F1F1484370471849484370470E4870471F
:100E00000E480068704780B5FFF7FAFF114909687E
:100E1000124AC1F30221515CC84002BD80B5FFF700
:100E2000EFFF0C4909680D4AC1F3C221515CC8406B
:100E300002BD00000010024000127A000C000020E9
:100E40000000424280044242007000400020024004
:100E5000F02500080410024000093D00A02700080A
:100E600002030405060708090A0B0C0D0E0F1010EB
:100E70000102030405060708090A0B0C0D0E0F10EA
:100E800001484068704700BF00000020704770476D
:100E900080B500F0C3F900F00DF800F0D1F9FFF7CC
:100EA000D7FC00F0C5FA00F071FB00F0A1FB00F0E8
:100EB00019FCFEE710B59EB0244C05A82146282257
:100EC00000F062FC6846142100F046F80FA804F117
:100ED00028013C2200F058FC092005904FF4803096
:100EE000069000210791012109910B9102210C919B
:100EF0000D904FF4E0100E9005A8FFF72DFD00288F
:100F000001D000F027F80F2000900220019000206F
:100F100002904FF480600390002004900221684604
:100F2000FFF7CDFE002801D000F014F808480F901C
:100F3000002013904FF4007010900FA800F068FC90
:100F4000002801D000F006F81EB010BD00260008F1
:100F50000400010070470000002200F035BD0000D1
:100F6000F8B402460B46002428E0052103E0574967
:100F70008A42FAD10421B140294347F82C10544940
:100F80000E68C5432E405F68FF0300D506430E6020
:100F90004E682E405F68BF0300D506434E608E68E2
:100FA0002E405F68FF0200D506438E60CE682E405B
:100FB0005D68AD0200D50643CE60641C186801462A
:100FC000E1407AD00121A1400840F6D05D68022DB1
:100FD00001D0122D13D12546ED0802EB8506356AA6
:100FE000A70007F01C074FF00F0C0CFA07FC25EACE
:100FF0000C05D3F810C00CFA07F73D4335621768AB
:1010000065000326AE40F643374093F804C00CF069
:10101000030C0CFA05FC4CEA070717605F68012F08
:1010200005D0022F03D0112F01D0122F10D19768B5
:101030003740D3F80CC00CFA05FC4CEA0707976060
:1010400057688F435968C1F30011A1400F4357609F
:10105000D16831409E6806FA05F52943D160596888
:10106000C900AAD51B490D6845F001050D60096846
:1010700001F0010100910099A4464FEA9C0C164F23
:1010800057F82C50A60006F00C060F21B1408D43F6
:10109000B2F1904F01D100216DE710498A4201D190
:1010A000012168E70E498A4201D1022163E70D4917
:1010B0008A427FF45CAF03215DE7F1BC7047002AF0
:1010C00001D08161704781627047000000100048C4
:1010D00000040140181002400800014000040048CC
:1010E00000080048000C0048344A13684FF6FF011E
:1010F0000B40000200F4E0601843314908431060DF
:1011000070472E480068C0F302207047012200F0AB
:101110001F018A402B49400941F8202070470901EE
:10112000020006D5284A00F00F00104400F8041C05
:10113000704726488154704710B400F00700C0F192
:101140000703052B00D30423041D072C01D2002024
:1011500000E0C01E012404FA03F35B1E1940814025
:1011600004FA00F0401E1040084310BC704710B550
:10117000401EB0F1807F01D3012010BD144C60608F
:101180000F214FF0FF30FFF7CAFF0020A0600720BB
:101190002060002010BDA7E770B504460D46164636
:1011A000FFF7AFFF32462946FFF7C6FF014620464C
:1011B000BDE87040B3E7A9E7D9E700000CED00E017
:1011C0000000FA0500E100E018ED00E000E400E0B6
:1011D00010E000E038B504460E4D4FF47A702978DF
:1011E000B0FBF1F00C490968B1FBF0F0FFF7E4FF48
:1011F000002801D0012032BD102C08D20022214647
:101200004FF0FF30FFF7C8FFAC60002032BD012077
:1012100032BD00BF000000200C00002080B5074850
:10122000016841F0100101600320FFF7B4FF0020C6
:10123000FFF7D0FF00F0E2FB002002BD00200240DB
:101240002DE9F04186B068461421FFF785FE72480B
:10125000016841F400110160016801F40011059179
:101260000599016841F400210160016801F4002141
:1012700005910599016841F480010160016801F45C
:10128000800105910599016841F400310160016810
:1012900001F4003105910599016841F48021016054
:1012A000016801F4802105910599016841F48011DC
:1012B0000160006800F48010059005984FF64874AE
:1012C000564D002221462846FFF7F9FE544E0022D3
:1012D0004FF481513046FFF7F2FE524F00224FF497
:1012E00000613846FFF7EBFEDFF83C810022552114
:1012F0004046FFF7E4FE372000904C480190002064
:10130000029069462846FFF72BFE009401200190C9
:1013100000200290039069462846FFF721FE012035
:10132000009000200190029069464FF09040FFF736
:1013300017FEE02000900220019000200290039010
:101340000520049069464FF09040FFF709FE4FF4E6
:101350008050009001200190002002900390694687
:101360003046FFF7FDFD4FF400740094002001901B
:10137000029069463846FFF7F3FD4FF4C0500090E5
:101380000220019000200290032003900E20049080
:1013900069464FF09040FFF7E3FD4FF40060009086
:1013A00001200190002002900120039069463846F8
:1013B000FFF7D6FD552000900120019000200290FB
:1013C0000120039069464046FFF7CAFD20200090A7
:1013D00001200190002002900120039069463046D0
:1013E000FFF7BEFDC0200090122001900120029066
:1013F000002003900420049069463046FFF7B0FDBA
:10140000009400200190029069463046FFF7A8FD45
:1014100006B0BDE8F0810000141002400010004842
:101420000004004800080048000C004800001210AA
:1014300010B590B00CA81021FFF78EFD07A814215D
:10144000FFF78AFD04A800210A460B4680E80E003B
:1014500068461021FFF780FD4A4C4FF08040206025
:10146000472060600020A0604FF6FF70E060002021
:101470002061A061204600F0DBFA002801D0FFF7D0
:1014800069FD4FF480500C900CA9204600F00BFC35
:10149000002801D0FFF75EFD204600F0E2FA0028A8
:1014A00001D0FFF757FD042007905020089000203E
:1014B00009900B9007A9204600F07AFC002801D083
:1014C000FFF748FD00200490069004A9204600F094
:1014D000DFFD002801D0FFF73DFD00200090012036
:1014E000019000200290039002466946204600F0D9
:1014F00087FB002801D0FFF72DFD0220009001900E
:1015000004226946204600F07BFB002801D0FFF74B
:1015100021FD10B010BD10B586B0044601A81421FD
:10152000FFF71AFD2068B0F1804F29D11648816875
:1015300041F001018160816801F001010091009991
:10154000016841F400310160006800F4003000904F
:1015500000984FF400400190022002900020039078
:1015600004900120059001A94FF09040FFF7F8FC8E
:10157000002211461C20FFF70FFE1C20FFF71BFE68
:1015800006B010BDE40000201410024080B51548DC
:1015900015490160012101714171312181601021E2
:1015A000C16000210161416181610321016200F09C
:1015B0009DFD002803D0BDE80140FFF7CBBC01BD75
:1015C00081B000680849884209D10848016841F0A3
:1015D00040010160006800F040000090009801B0F8
:1015E0007047000024010020003002401410024027
:1015F00080B53748374901604FF48271416000215E
:1016000081604FF4E061C16002210161012141610B
:101610004FF4007181612821C161802101620021A4
:10162000416281620721C16200210163416300F0D0
:101630009DFD002803D0BDE80140FFF78BBC01BD34
:1016400010B586B0044668461421FFF785FC206873
:101650002049884239D12048816841F48041816025
:10166000816801F4804105910599016841F4800188
:101670000160016801F4800105910599016841F458
:1016800080210160006800F48020059005984FF4E7
:10169000007000900220019000200290032003902F
:1016A0000520049069460D48FFF75AFC4FF440406E
:1016B000009002200190002002900320039005205A
:1016C000049069460648FFF74BFC06B010BD0000C9
:1016D0008000002000380040141002400014004830
:1016E0000004004810B586B001A81421FFF734FCAF
:1016F00024A000680090204C2048206000206060FA
:101700007F20A060FF20E060002020616061A06178
:10171000204600F08BFD002801D0FFF71BFC0020C5
:10172000ADF804008DF8060004900590012201A98F
:10173000204600F0D3FD002801D0FFF70BFC01206C
:101740008DF800008DF801008DF8020000208DF862
:10175000030001226946204600F034FE002801D033
:10176000FFF7F8FB06B010BD00680449884202D1BB
:10177000012003490860704748010020002800400C
:101780003C04424200000000103A07D330B4B1E8F4
:101790003810103AA0E83810F9D230BC530724BFF3
:1017A000B1E80810A0E8081044BF51F8043B40F825
:1017B000043BD20724BF31F8022B20F8022B44BF90
:1017C0000B7803707047121F17D35B0009D151F8D3
:1017D000043B20F8023B1B0C121F20F8023BF6D200
:1017E0000BE051F8043B00F8013B1B0A20F8023BD8
:1017F0001B0C121F00F8013BF3D238BF121D521E02
:1018000024BF11F8013B00F8013BF8D870470000F5
:101810002DE9FC410446DFF8A4512068C00355D5EA
:101820000026A869C00009D4A86940F08050A861CA
:10183000A86900F08050009000980126DFF88071C0
:101840003868C00519D4386840F480703860FFF7F4
:1018500017FB80463868C0050FD4FFF711FBA0EBDB
:1018600008006528F6D30320A6E0FFF709FBC01B9C
:1018700041F28931884218D3F5E7E86910F44070E5
:1018800018D0616801F44071884213D0E86920F4EF
:101890004070DFF8301101220A6000220A60E8611E
:1018A000C00707D5FFF7ECFA0746E869C0F3400028
:1018B0000028DAD0E96921F4407160680143E961E8
:1018C000012E03D1A86920F08050A8612078C007BC
:1018D00005D5E96A8908A06850EA8101E9622078A3
:1018E000800705D5E96A21F44031E0680143E962E7
:1018F0002078400705D5E96A21F440212069014399
:10190000E9622078800605D5E96A21F01001E069D6
:101910000143E9622068800305D5296821F480012C
:10192000A06B014329602078400605D5E96A21F0C3
:101930002001206A0143E9622078000705D5E96AA1
:1019400021F4401160690143E9622078C00605D5A1
:10195000E96A21F44001A0690143E9622068800539
:1019600005D5296821F40001E06A01432960207847
:10197000000605D5A96A21F4F871606A0143A962DD
:101980002068C00505D5A96A21F47851A06A0143F1
:10199000A9622068C00405D5E96A21F48071206B32
:1019A0000143E9622068800405D5E96A21F40071E9
:1019B000606B0143E9620020BDE8F681041002403B
:1019C000007000404004424200B500BF130096463C
:1019D0009446103928BFA0E80C50FAD85FEA417C41
:1019E00028BF0CC048BF40F8042BC90728BF20F807
:1019F000022B48BF00F8012B00BD000082B00B484D
:101A0000016841F001010160016801F001010091EC
:101A10000099416841F080514160406800F0805079
:101A200000900098072002B0FFF7B5BB18100240E5
:101A300038B5040001D1012032BD04F13C056878BD
:101A4000002804D1002028702046FFF764FD022002
:101A50006870211D206800F0CAF90120687000201C
:101A600032BD38B5040001D1012032BD04F13C057E
:101A70006878002804D100202870204600F054FD2A
:101A800002206870211D206800F0B1F90120687003
:101A9000002032BD10B5044620680169890717D5BA
:101AA000C168890714D56FF0020101610120207718
:101AB0002068806910F0030F204602D000F035FD49
:101AC00004E000F033FD204600F031FD00202077D7
:101AD00020680169490717D5C168490714D56FF017
:101AE00004010161022020772068806910F4407FA2
:101AF000204602D000F019FD04E000F017FD20465A
:101B000000F015FD0020207720680169090717D52E
:101B1000C168090714D56FF008010161042020771E
:101B20002068C06910F0030F204602D000F0FDFCD1
:101B300004E000F0FBFC204600F0F9FC00202077D8
:101B400020680169C90617D5C168C90614D56FF0A8
:101B500010010161082020772068C06910F4407FDF
:101B6000204602D000F0E1FC04E000F0DFFC20465B
:101B700000F0DDFC0020207720680169C90708D546
:101B8000C168C90705D56FF001010161204600F069
:101B9000CFFC20680169090608D5C168090605D58A
:101BA0006FF080010161204600F0C3FC20680169EC
:101BB000C90508D5C168090605D56FF480710161B2
:101BC000204600F0B7FC20680169490608D5C168C5
:101BD000490605D56FF040010161204600F0ABFCDD
:101BE0002068016989060AD5C168890607D56FF0A2
:101BF000200101612046BDE8104000F09DBC10BDF1
:101C0000F8B507460E46144607F13C05287801282A
:101C100001D10220F2BD0120287002206870726894
:101C2000F36838683168002C0CD100F070F938681E
:101C3000816921F00C01816139688A69B0680243C9
:101C40008A612BE0042C0DD100F0B8F93868816965
:101C500021F44061816138688169B26841EA0221FA
:101C600081611BE0082C0CD100F0D2F93868C16901
:101C700021F00C01C1613968CA69B0680243CA61C8
:101C80000CE000F0DBF93868C16921F44061C16102
:101C90003868C169B26841EA0221C16101206870F7
:101CA00000202870F2BD38B5054605F13C042078C7
:101CB000012801D1022032BD012020700220607075
:101CC0002B689A68DFF8A80202409A60086800282A
:101CD00053D0102856D0202859D030285CD0402826
:101CE00041D050282BD0602833D070280CD0B0F5CC
:101CF000805F03D0B0F5005F15D051E029688A6895
:101D00002A4802408A604BE0CB684A6889682868A4
:101D100000F0B3F92A689168DFF85802014041F0F9
:101D2000770191603CE0CB684A688968286800F0D8
:101D3000A4F92868816841F48041816030E0CA6874
:101D40004968286800F028F95021286800F08DF9CA
:101D500026E0CA684968286800F047F960212868C9
:101D600000F083F91CE0CA684968286800F014F99B
:101D70004021286800F079F912E00021286800F07D
:101D800074F90DE01021286800F06FF908E02021B7
:101D9000286800F06AF903E03021286800F065F94E
:101DA000012060700020207032BD0000F8FFFEFFAF
:101DB00038B5054605F13C042078012801D1022000
:101DC00032BD0120207002206070284600F066F8C5
:101DD0002868C16821F04001C1602868C16821F409
:101DE0008041C160012060700020207032BD10B4BD
:101DF0000468DFF8843198420ED0B0F1804F0BD0E8
:101E0000DFF87821904207D0DFF87421904203D0A8
:101E1000DFF87021904203D124F070044A68144323
:101E200098421AD0B0F1804F17D0DFF8502190427D
:101E300013D0DFF84C2190420FD0DFF848219042B8
:101E40000BD0DFF84421904207D0DFF840219042C8
:101E500003D0DFF83C21904203D124F44074CA68D7
:101E6000144324F080044A69144304608A68C262FF
:101E70000A68826298420BD0424A904208D0424A95
:101E8000904205D0414A904202D0414A904201D14D
:101E9000096901630121416110BC704718B40368EE
:101EA0009C6824F070044A6814433A4A14400A6853
:101EB00014439C604A68402A0CD0502A1BD0602AE8
:101EC0001ED0702A21D10B698A68C968006801B0E8
:101ED00010BCD2E00268136A146A640864001462D9
:101EE0000268946924F0F004096944EA01149461D9
:101EF0000068036209E00A698968006818BC4BE061
:101F00000A698968006818BC6FE011BC704770B43A
:101F1000046A6408640004628469056A164EB0426B
:101F20000ED0B0F1804F0BD0144EB04208D0144EFA
:101F3000B04205D0134EB04202D0134EB04201D190
:101F4000012600E00026002E03D0A40852EA8402F5
:101F500002E0224642F0010263F30712826125F09B
:101F60000A0501F00A012943016270BC70470000B4
:101F70008800FEFF88FFFEFF002C014000040040A7
:101F8000000800400034014000400140004401408E
:101F900000480140F8FFFEFF10B4036A046A6408B9
:101FA00064000462846924F0F00444EA0214846149
:101FB00023F00A031943016210BC704730B4046A6D
:101FC00024F0100404628469056A24F4407444EA2D
:101FD000022463F30F34846125F0A005090101F0A8
:101FE000A0012943016230BC704710B4036A23F09A
:101FF000100303628369046A23F4704343EA0233E3
:10200000836124F0A00444EA0114046210BC704708
:1020100030B4046A24F480740462C469056AA408B4
:1020200052EA840263F30712C26125F420650902B3
:1020300001F420612943016230BC704730B4046A66
:1020400024F480540462C469056A24F4407444EAA8
:10205000022463F30F34C46125F42045090301F41D
:1020600020412943016230BC7047826822F070022F
:10207000114341F007018160704710B4846824F473
:102080007F442143114341EA0321816010BC704722
:1020900030B490F83C20012A01D1022020E0012236
:1020A00080F83C2003685C689D68DFF83820934224
:1020B00003D0DFF83420934203D124F470044A683B
:1020C000144325F080058A68154324F070040968DC
:1020D0000C435C6001688D60002180F83C1008466C
:1020E00030BC7047002C01400034014010B50400A2
:1020F00023D0607F002804D1002020772046FFF7FE
:102100005FFA02206077207900280FD116482168F5
:1021100048612068816821F0180181602168607938
:1021200000280CD14FF0FF3008610AE0E268A16896
:10213000204600F002FA0028F0D0012010BD2069EE
:10214000086121688A6822F06002606902438A603F
:1021500021688A6822F08002A06902438A60012017
:102160006077002010BD0000B71DC10438B5040021
:1021700001D1012032BD0020A06204F15C05687825
:10218000002804D1002028702046FFF759FA0220C9
:1021900068702068016821F040010160E068B0F5D6
:1021A000E06F01D9002101E04FF48051B0F5706F6C
:1021B00004D0B0F5E06F01D00020A062206B0028B1
:1021C00008D1E068B0F5E06F02D90220206301E099
:1021D000012020636268A0680243206902436069AD
:1021E0000243A06900F400700243E0690243206AE0
:1021F0000243A06A024320680260A269120C02F046
:102200000402606A0243606B0243E06802431143C8
:10221000206841602068C16921F40061C16100202B
:10222000686001206870002032BD000010B5040015
:1022300001D1012010BD607F002804D1002020774B
:102240002046FFF791FA02206077CA202168486291
:10225000532021684862204600F035F9002825D136
:1022600021688A68DFF8200202408A6021688A6853
:10227000636820690343606903431A438A60E06826
:102280002168086120680169A26841EA0241016190
:102290002068C16821F08001C160206880688006E4
:1022A0000BD4204600F0F6F8002806D0FF20216865
:1022B000486204206077012010BD2068016C21F481
:1022C0008021016421680A6CA06902430A64FF202E
:1022D0002168486201206077002010BDF8B50446EF
:1022E0000D46207F012801D10220F2BD0120207778
:1022F000022060772068002A806816D1400601D449
:102300000020E870287800F0F9F80746687800F0B7
:10231000F5F80646360246EA0746A87800F0EEF8D9
:102320000643E87846EA004611E0400603D52878DF
:1023300000F0F0F801E00020E87028786E783602AE
:1023400046EA0046A8780643E87846EA0046CA20EE
:1023500021684862532021684862204600F0B3F8A3
:1023600000281ED1DFF8240106402068066020689E
:10237000816821F48021816021688A68EB6828697E
:1023800003431A438A602068C16821F08001C1605C
:102390002068806880060DD4204600F07BF8002875
:1023A00008D0FF2021684862042060770020207751
:1023B0000120F2BDFF2021684862012060770020E3
:1023C0002077F2BDF8B504460D46207F012801D1E3
:1023D0000220F2BD0120207702206077002A06D17A
:1023E0006878C10603D500F0EF000A306870E8781D
:1023F000002A11D100F082F80746687800F07EF8D4
:102400000646360246EA0746A87800F077F8064303
:10241000287846EA403608E06E78360246EA0046FA
:10242000A8780643287846EA4036CA2021684862E0
:10243000532021684862204600F045F8002812D158
:10244000DFF84C000640206846602068C16821F033
:102450008001C1602068806880060DD4204600F0AD
:1024600019F8002808D0FF2021684862042060770E
:10247000002020770120F2BDFF2021684862012062
:10248000607700202077F2BDBFFF8FFF7F7F7F0046
:102490003FFFFF0038B504462068C16821F0A00165
:1024A000C160FEF7EDFC05462068C068800608D4D0
:1024B000FEF7E6FC401B40F2E9318842F4D30320EA
:1024C00032BD002032BD38B504462068C1684906D7
:1024D00012D44FF0FF31C160FEF7D2FC05462068F0
:1024E000C068400608D4FEF7CBFC401B40F2E9313F
:1024F0008842F4D3032032BD002032BD002101E028
:10250000491C0A380246D2B20A2AF9D240EA01101E
:10251000C0B270470146090901EB810200F00F00CB
:1025200000EB4200C0B27047704770477047704779
:102530007047704770477047704710B41F240B46B0
:10254000E340DB0703D423465C1E002BF7D1134680
:10255000082B13D0102B0ED0182B01D1072C0FD223
:10256000036859610068816821F018010A4382609C
:10257000002010BC7047082CF2D301E0102CEFD3E0
:102580000120F6E71448016841F470010160134925
:10259000086840F0010008604A68114802404A603B
:1025A0000A68104802400A60086820F48020086029
:1025B000486820F4FE004860C86A00090001C8624B
:1025C0000A6B094802400A63002088604FF00060EF
:1025D000064908607047000088ED00E000100240E6
:1025E0000CC07FF8FFFFF6FECCFC00FF08ED00E01A
:1025F00000000000000000000102030406070809B3
:1026000000000000000000000000000000000000CA
:1026100000000000000000000000000000000000BA
:1026200000000000000000000000000000000000AA
:10263000000000000000000000000000000000009A
:10264000000000000000000000000000000000008A
:10265000000000000000000000000000000000007A
:102660000000000030B450F8041B79B102684368E0
:1026700002440830DC0744BFA9F10104E31852F812
:10268000045B43F8045B091FF9D1ECE730BC7047E9
:1026900010B5074979441831064C7C44163404E0DF
:1026A0000A68081D114488470146A142F8D110BDAF
:1026B0002C0000004C0000004EF68851CEF20001C4
:1026C000086840F470000860BFF34F8FBFF36F8F4E
:1026D0004FF00070E1EE100A704700003BE1FFFF91
:1026E00058010000100000200000000079FFFFFFEB
:1026F000100000009000000000000020000000001A
:1027000000F00DF8002801D0FFF7C2FFAFF3008002
:102710000020AFF30080FEF7BBFB00F002F80120C1
:10272000704700F001B800000746384600F002F894
:10273000FBE7000080B5AFF30080024A11001820CB
:10274000ABBEFBE7260002007047704700F00AB8F6
:102750000248FFF79FB90248FDF74BBDE400002097
:1027600010000020024841680278891841607047D3
:1027700000000020014880470148004785250008E7
:102780009527000801000000000000001000000074
:1027900000127A00AFF30080FFF78EFFFFF7B0FF63
:1027A0000000000001020304FFF7FEBFFFF7FEBFB9
:1027B000FFF7FEBFFFF7FEBFFFF7FEBFFFF7FEBF4D
:1027C000FFF7FEBFFFF7FEBFFFF7FEBFFFF7FEBF3D
:1027D000FFF7FEBFFFF7FEBFFFF7FEBFFFF7FEBF2D
:1027E000FFF7FEBFFFF7FEBFFFF7FEBFFFF7FEBF1D
:1027F000FFF7FEBFFFF7FEBFFFF7FEBFFFF7FEBF0D
:10280000FFF7FEBFFFF7FEBFFFF7FEBFFFF7FEBFFC
:10281000FFF7FEBFFFF7FEBFFFF7FEBFFFF7FEBFEC
:10282000FFF7FEBFFFF7FEBFFFF7FEBFFFF7FEBFDC
:10283000FFF7FEBFFFF7FEBFFFF7FEBFFFF7FEBFCC
:10284000FFF7FEBFFFF7FEBFFFF7FEBFFFF7FEBFBC
:10285000FFF7FEBFFFF7FEBFFFF7FEBFFFF7FEBFAC
:10286000FFF7FEBFFFF7FEBFFFF7FEBFFFF7FEBF9C
:10287000FFF7FEBFFFF7FEBFFFF7FEBFFFF7FEBF8C
:10288000FFF7FEBFFFF7FEBFFFF7FEBFFFF7FEBF7C
:10289000FFF7FEBFFFF7FEBFFFF7FEBFFFF7FEBF6C
:1028A000FFF7FEBFFFF7FEBFFFF7FEBFFFF7FEBF5C
:1028B000FFF7FEBFFFF7FEBFFFF7FEBFFFF7FEBF4C
:040000050800279533
:00000001FF
