:020000040800F2
:1000000060170020C52B00084D2B00084F2B00085F
:10001000512B0008532B0008552B0008000000004E
:10002000000000000000000000000000572B000846
:10003000592B0008000000005B2B00085D2B000816
:10004000E12B0008E52B0008E92B0008ED2B000848
:10005000F12B0008F52B0008F92B0008FD2B0008F8
:10006000012C0008052C0008092C00080D2C0008A4
:10007000112C0008152C0008192C00081D2C000854
:10008000212C0008252C0008292C00082D2C000804
:10009000612B0008312C0008352C0008392C000891
:1000A0003D2C0008412C0008452C0008492C000874
:1000B0004D2C0008512C0008552C0008592C000824
:1000C0005D2C0008612C0008652C0008692C0008D4
:1000D0006D2C0008712C0008752C0008792C000884
:1000E0007D2C0008812C0008852C0008892C000834
:1000F0008D2C0008912C0008952C0008992C0008E4
:100100000000000000000000000000009D2C00081E
:10011000A12C0008A52C0008A92C0008AD2C000873
:10012000B12C0008B52C0008B92C0008BD2C000823
:10013000C12C0008C52C00080000000000000000D1
:10014000C92C0008CD2C0008D12C000800000000AC
:10015000000000000000000000000000000000009F
:100160000000000000000000D52C0008D92C000879
:10017000DD2C00080000000000000000000000006E
:1001800000000000E12C000870B5044600260CB900
:10019000012070BD04F55C75687818B92E70204692
:1001A00000F090FD0320687000231C200BE000FB92
:1001B00006F12144283101220E704A70CB70CB60C9
:1001C0000B614B61761C61688E42F0D300210026E2
:1001D0000BE000FB01F2224402F5E672117053704D
:1001E000D670D36016615361491C62689142F0D3A6
:1001F00021680120A1F840002068A0F84030226862
:10020000A2F844304FF43F422168A1F850302068F2
:10021000A0F8402084F8243001206870002070BDD0
:1002200080B5012100F057FE002002BD2DE9F84FF6
:100230000021ADF8001000F5E67500F1240940F644
:100240008F7A04462DE0018848F60F721140018034
:100250002068B0F8501099F8042001EBC20300EBBD
:10026000430000F204400088D9F81420C0F30900CC
:10027000C9F81C000244C9F814200021204600F0EF
:1002800065FD99F8002062B1D9F8180048B999F8CD
:100290000010206841F08001A0F84C10002189F87E
:1002A0000010206800F144010A88ADF80020120413
:1002B00040F12781BDF8002012F00F086CD1BDF885
:1002C0000020D306BFD502461388ADF80030BDF834
:1002D00000301B0519D589892B7801EBC30102EB8E
:1002E000410202F20C4204F55D711388AA88C3F33F
:1002F0000903AB6100F025FE206801880AEA0101CC
:100300000180204600F012FDCBE7BDF8000001049B
:10031000C7D510880AEA0000108000F02FFC00EB1F
:10032000430808F20C48B8F80030C3F30903002B67
:10033000AB6107D0AA88296900F003FE2869A96982
:10034000014429610021204600F0F6FC2068B0F845
:10035000501000EB4100E9683F2900F20C4008D33F
:100360004A0911F01F0F08BF521E920242F40042C8
:1003700004E04A08C90748BF521C920202804BF6AB
:100380008F7220680188114081F4405141F400418E
:1003900041F08001018084E700EB88001C22018885
:1003A000ADF8001012FB08F2BDF80010A6180A0400
:1003B0004ED501880AEA010106F5E677018097F833
:1003C00000C02068B97A51B9B0F8501000F0AEF80A
:1003D0002AD0BA8839695B4600F0B3FD24E030F8D2
:1003E0002C104904B0F850100DD511EBCC0100EBE6
:1003F000410202F204421188C1F3090BBBF1000F64
:1004000009D0FA8803E000F091F804D03A895B46FD
:10041000396900F096FD2068397800F075F842F4EB
:10042000004242F0C0020280B9695944B9613A6998
:100430005A443A617B6913B1F9688B4504D2397823
:10044000204600F079FC03E03978204600F0E8FA15
:10045000BDF80000010650D5206800EB880048F682
:100460000F7201881140018016F8283F2768B07A82
:10047000DA0050B9B7F8500000F04DF826D0B28835
:100480003169206800F04BFD20E037F82300430677
:10049000B7F8500004D500F03EF80ED0F28808E01E
:1004A000101807EB400101F20C4100F039F804D0BC
:1004B00032893169206800F032FD2068317800F01F
:1004C00023F842F4404242F08002028020683178F2
:1004D000B0F8502002EBC10200EB420000F20440F1
:1004E0000088C0F30900B0613269024432612046DD
:1004F0007369002B02D100F029FCD2E600F0DBFA90
:10050000CFE60020BDE8F28F00EB810048F68F7344
:1005100002881A407047101807EB400101F20441AD
:100520000B88C3F30903002BB361704711EBCC01B7
:1005300000EB410202F20C421188C1F3090BBBF13E
:10054000000F704738B504462068B0F8441008041E
:1005500044BF2046FFF76AFE2068B0F844104A0501
:100560000AD54FF6FF31A0F84410204600F0FBFBFF
:100570000021204600F051F8206800F140029188E7
:10058000480444BF4BF6FF7191809088810444BFBA
:100590004DF6FF7090809088C30411D515884FF6F2
:1005A000FB710D4015804FF6F770138803401380E0
:1005B000204600F0F8FB20684EF6FF71A0F84410CA
:1005C000216801F140008288110510D5028842F0AF
:1005D000080202804FF2FF718180028842F004021B
:1005E00002808088C1045CBF204600F0CEFB2068FA
:1005F000B0F844108A0506D54FF6FF51A0F8441014
:10060000204600F0ACFB2068B0F84410CA0544BF97
:100610004FF6FF61A0F8441031BD90F87023012A15
:1006200001D102207047012280F870230B0003BF24
:1006300080210268A2F84C1080F82410002180F874
:1006400070130020704700002DE9F04B814601F047
:100650007F051C20454309EB05000D064CBF00F14A
:10066000280500F5E67501F07F002870C90969705A
:10067000EA60EB7099F87003012808BF022000F0CF
:100680001481012089F8700348F68F10E978032956
:100690001AD8DFE801F002140C0FD9F800302E78D8
:1006A00003EB86010F88384040F400700BE000F047
:1006B00004F908E000F001F940F4C06003E000F044
:1006C000FCF840F4806008802878D9F8001001EB2D
:1006D000800748F68F763C88344048F280032043F8
:1006E000184338804BF68F77A87A2C7800284CF284
:1006F000800C48F6BF7E48F2C00856D1B5F804B069
:100700004FF6FE7000EA0B0B68780028B1F8500035
:1007100000EBC40019D001EB400404F58064A4F898
:1007200000B02A7801EB820007887A0604D5078892
:100730003E4048EA06060680287801EB80000188E2
:100740000EEA010181F0200183E001EB400000F599
:1007500081603F2AA0F800B0B1F850002C7800EB7F
:10076000C40001EB400404F20C4408D3500912F019
:100770001F0F08BF401E800240F4004004E05008F4
:10078000D20748BF401C80022080287801EB8000FF
:100790000288520404D5028816404CEA06060680F8
:1007A00000F085F887F440577AE001EB8400028876
:1007B000324042F4014242F080020280B1F850001F
:1007C0002A7800EBC20001EB400000F58064EA8863
:1007D0004FF6FE7002402280B1F850402A7804EBB8
:1007E000C20001EB40042A8904F581644FF6FE70D3
:1007F000024022802C78687801EB840258BB148870
:10080000600404D5148834404CEA04001080287831
:1008100001EB80000288520604D50288324048EA83
:1008200002020280287801EB80000288164048EA24
:10083000060606802E7801EB86000288174087F4B2
:1008400040571F430780287801EB800001880EEA9B
:1008500001010B4325E01088440404D51088304082
:100860004CEA000010802A7801EB820004886206BE
:1008700004D50488344048EA04020280287801EB59
:100880008000028816404CEA060606802E7801EBAE
:10089000860002880EEA02021A43028000F007F87E
:1008A0003B430380002089F87003BDE8F08B287873
:1008B00001EB800001880F407047D9F800102B78B9
:1008C00001EB83010E88304070472DE9F04302466A
:1008D00001F07F031C204343D0180B064CBF00F1EE
:1008E000280300F5E67301F07F001870C9095970FC
:1008F00092F87003012808BF022000F089800120CF
:1009000082F87003D2F800801978587808EB8107D4
:10091000997A4BF68F764CF2800948F2800448F6BB
:10092000BF7548F2C00C48F68F7ED1B900283888D0
:100930000BD0410605D538880EEA00004CEA0000CD
:100940003880197808EB810032E0410405D53888F9
:100950000EEA000049EA00003880197808EB8100AF
:100960004FE00028388828D1410405D538880EEAA0
:10097000000049EA00003880197808EB81000788F8
:10098000790605D507880EEA07074CEA07070780AE
:10099000187808EB800001880EEA01014CEA010199
:1009A00000F038F80E4026430680187808EB8000E7
:1009B00001880D402C43048027E0410405D5388888
:1009C0000EEA000049EA00003880197808EB81003F
:1009D0000788790605D507880EEA07074CEA07015C
:1009E0000180187808EB800001880EEA010149EACD
:1009F000010100F00FF80D4025430580187808EB41
:100A0000800001880E4026430680002082F8700393
:100A1000BDE8F0830180197808EB810001887047F8
:100A2000F0B501F07F051C246543441904F5E67414
:100A300001F07F01226163610022A2616270217076
:100A40006269E368934232BFD21A134600226261A0
:100A50005D085E090768B7F8502002EBC10107EB9B
:100A6000410C3F2B03F001000CF20C4C09D313F0A6
:100A70001F0F08BF761EB60246F40046ACF80060B1
:100A800004E000B16D1CAD02ACF800504BF68F7065
:100A9000217807EB81010A88024082F4405200F07D
:100AA0005FF8F0BD01F07F011C2251430844D0F8EB
:100AB000E40180B2704770B5044601F07F051C2048
:100AC0004543601900F128050020A8616B61686941
:100AD000EE682A6101F07F010122864232BF801B4D
:100AE0000646002068616A7029702068AA7A62B997
:100AF000AA882969B3B200F012FA00F03FF800EBBF
:100B0000430000F2044006801DE030F821104A0640
:100B100029694CBF2A89EA88B3B200F000FA6878E4
:100B200048F68F7130B900F022F841F4004141F0ED
:100B3000C00107E0012806D100F019F841F4404156
:100B400041F0800101802068297800EB810148F69E
:100B5000BF700A88024082F0300200F001F870BDD8
:100B600042F4004242F080020A8000207047206870
:100B70002A7800EB82000388194070472068B0F89B
:100B800050102A7801EBC203704730B590F87023FB
:100B9000012A01D1022030BD012280F870231C23DC
:100BA0000C060A4606D502F07F025A43024402F1BF
:100BB000280303E05A43024402F5E67301229A70C7
:100BC00048F2800501F07F021A70C9095970046863
:100BD00052B922884BF6BF710A4082F4805282F0EB
:100BE00010021543258011E004EB820200291388CE
:100BF00005D048F6BF710B4083F0100304E04BF6BC
:100C00008F710B4083F480531D431580002280F8C0
:100C10007023002030BDF0B51C230C060A4605D514
:100C200002F07F025A430244283203E05A4302444E
:100C300002F5E6720023937001F07F041470C90975
:100C4000517090F87013012901D10220F0BD0121EB
:100C500080F8701304681378517804EB8305002939
:100C60002F8848F2800348F68F760FD0790606D594
:100C70002F883E4046F4004646F0C0062E8048F6D7
:100C8000BF7100F019F884F030040EE0790406D545
:100C90002F883E4046F4404646F080062E804BF6B4
:100CA0008F7100F009F884F440542343138000222C
:100CB00080F870230020F0BD127804EB82021488C3
:100CC0000C40704700687E49884200D0704710B5DC
:100CD0007C4C86B0206840F40030206002222168FD
:100CE00001F4003100914FF4C0510098019102923B
:100CF0000021039103220E230492059301A94FF0D2
:100D0000904000F073F9A06840F40000A060002259
:100D1000A06800F40000009000210098142000F06A
:100D200065FA142000F07FFA06B010BD00F55D7181
:100D3000D0F8A40300F0D2BA0B461C225343C218C9
:100D4000D0F8A403D2F8DC2100F0F3BA0B461C2241
:100D50005343C218D0F8A403926B00F01DBBD0F827
:100D6000A40300F096BB10B50446A068022818BF83
:100D700000F0C6FCD4F8A403012100F079FBD4F8FC
:100D8000A403BDE8104000F053BB10B50446D4F8EE
:100D9000A40300F070FBA06920B14B48016841F04A
:100DA0000601016010BDD0F8A40300F06CBB10B5C3
:100DB000044646484249C0F8A4430822C4F8200229
:100DC000426002230022016083600361826102624B
:100DD000FFF7DAF908B100F093FCD4F820021823E9
:100DE0000022002100F081F8D4F8200258230022CC
:100DF000802100F07AF8D4F82002C023002281215B
:100E000000F073F8D4F820024FF488730022012117
:100E100000F06BF8D4F820024FF480730022822196
:100E200000F063F8002010BD80B5D0F82002FFF775
:100E3000F7F9BDE802404FE010B51C461346D0F864
:100E400020022246FFF700FCBDE8104044E080B5D8
:100E5000D0F82002FFF739FDEBE780B5D0F820028B
:100E6000FFF793FEE5E780B5D0F82002FFF7D3FE49
:100E7000DFE7D0F8202201F07F031C204343D01885
:100E8000090602D590F82A00704790F8CE01704705
:100E900080B5D0F82002FFF7C0FBCAE780B5D0F8D4
:100EA0002002FFF708FEC4E780B5D0F82002FFF764
:100EB000B7FDBEE7D0F82002FFF7F4BD0448704745
:100EC000005C00401410024010ED00E050090020CA
:100ED0001C0F0020704770470146002021B10229F5
:100EE00001D1012070470220704730B51C240D0647
:100EF00005D501F07F0161430844283003E06143D8
:100F0000084400F5E6701AB900218172838004E07C
:100F1000C38001211B0C81720381002030BD10B5FC
:100F200000EB42005B1C00F580605B0807E00A787C
:100F30004C7842EA0422891C20F8042B5B1EF6D16F
:100F400010BD10B500EB420000F580605A0806E0C5
:100F500030F8044B0C70240A4C70891C521EF7D1D7
:100F600003EBD3725208B3EB42031CBF0088087036
:100F700010BDF0B40246106895681318506803EB72
:100F80005004C0071DD54D441BE013F8017B05F844
:100F9000017B491EF9D1A0B1B60813F8011B06F078
:100FA0000306032E08BF13F8016B01EB062149422B
:100FB000801C294405D011F8016B05F8016B401E17
:100FC000F9D1A3420ED013F8016B16F0030104BF50
:100FD00013F8011BC91C30090F28DAD113F8010BD3
:100FE0000F30D6E7F0BC02F10C0070472DE9F8474E
:100FF00000266A4A0F230446884632E0684DAC4218
:1010000014BF052504258D4045EA0E054CF82750F0
:10101000C74364490D6800F0B3F8ED0348BF40EAE8
:101020000C0CC1F800C04D6800F0AAF8AD0348BF31
:1010300040EA0C0CC1F804C08D6800F0A1F8ED0284
:1010400048BF40EA0C0CC1F808C0CD6807EA050C9F
:10105000D8F80470BD0248BF40EA0C0CC1F80CC0BF
:10106000761CD8F8001031FA06F000F087800127CE
:10107000B74017EA0100F3D0D8F80450B100022DB0
:1010800018BF122D12D1F50804EB850C01F01C05D8
:10109000DCF820E0D8F810A003FA05F92EEA090ED2
:1010A0000AFA05F545EA0E05CCF820504FEA460C41
:1010B0004FF0030E256898F804900EFA0CFE6FEAC4
:1010C0000E0E09F003090EEA050509FA0CF949EAC2
:1010D00005052560D8F80450012D18BF022D03D056
:1010E000112D18BF122D13D1A568D8F80C900EEA57
:1010F000050509FA0CF949EA0505A560656825EAC0
:101100000707D8F80450C5F30015B5402F436760B2
:10111000E7680EEA0705D8F8087007FA0CF73D43B0
:10112000E560D8F80450EF009AD51568DFF878C06C
:1011300045F00105156001F00C01176807F0010783
:10114000009703FA01FE009FB7085CF8275025EAD4
:101150000E0EB4F1904F08BF00250ED0134DAC42D7
:1011600008BF012509D0124DAC4208BF022504D0AA
:10117000104DAC427FF442AF032544E7BDE8F18750
:1011800007EA050CD8F8045070470AB1816170472E
:1011900081627047426951404161704718100240B6
:1011A000001000480004014008000140000400480D
:1011B00000080048000C00480901020006D5294A31
:1011C00000F00F00104400F8041C7047264B19541F
:1011D0007047264B19684FF6FF020002114000F4D9
:1011E000E0600843224908431860704738B51F4B38
:1011F0001C68C4F30223C3F10704052C28BF042490
:101200001D1D072D34BF0023DB1E012505FA04F444
:10121000641E2140994005FA03F35B1E1A401143F6
:10122000BDE83440C8E7012200F01F01114BFFE781
:101230008A40400943F82020704710B5401EB0F1A5
:10124000807F01D3012010BD0B4C60600F214FF057
:10125000FF30FFF7B1FF0021A160072020600020D0
:1012600010BD000018ED00E000E400E00CED00E02F
:101270000000FA0500E100E010E000E038B508B930
:10128000022032BD00F5FE74A3690BB10025A561F3
:1012900001B16161012121700270FFF788FD00201A
:1012A00032BD0246002011B1C2F81412704702206C
:1012B000704780B5FFF7B8FD002002BD10B5D0F82B
:1012C000142202241AB11268904700B90024204663
:1012D00010BD80B5D0F814225368E6E038B5044656
:1012E00004F50275284600F0A2FB04F5FA7001210E
:1012F0000160428B017D426011F01F0003D0022883
:101300000BD005D30EE02946204600F0FDF90EE093
:101310002946204600F093FA09E02946204600F0CD
:10132000A9FA04E001F080012046FFF796FD0020B5
:1013300032BD38B5044610460A0004F5FA7320D1D0
:101340001968032926D104F586714A680D68AA42F6
:101350000AD2AD1A0D60954238BF2A46014692B2B4
:10136000204600F0C1FB15E0196A086928B1187A17
:10137000032802D1096920468847204600F0BCFBBB
:1013800008E01A6A906928B1187A032802D1926994
:1013900020469047002032BD38B5044610460A006A
:1013A00004F5FA7539D12968022930D1E269216A38
:1013B000914207D2521AE261014692B2204600F0F1
:1013C00081FB11E0A269B2FBF1F001FB102090B9A2
:1013D0008A4210D3686882420DD200220021204642
:1013E00000F070FB002068600023002200212046EE
:1013F000FFF75AFD0BE0296AC86828B1287A03284C
:1014000002D1C96820468847204600F07CFB287B33
:1014100001280BD10021297308E02A6A506928B1FC
:10142000287A032802D1526920469047002032BD15
:1014300010B50446402300220021FFF7FDFC4022A6
:10144000C4F810214023002280212046FFF7F4FC3D
:10145000402004F5FE7220620121D069117028B18C
:10146000926961685368C9B220469847002010BD50
:1014700001740020704700F5FE700422017841706D
:1014800002700020704700F5FE7041780170002066
:10149000704780B500F5FE710A78032A03D1896987
:1014A000C96901B18847002002BD9847002002BDEC
:1014B00078B591B000F02EFB00F0D8F800F0CAF833
:1014C0008A488B4C01688B4D41F4800101600CAE61
:1014D000026802F4800201920199026842F400124B
:1014E0000260036803F4001301930199026842F457
:1014F000003202600022006800F4003001904FF4D6
:10150000807101982046FFF740FE4FF480710791EB
:101510000122002109910A91089207A92046FFF7AC
:1015200065FD00F097F800BF76A00168724828605A
:1015300001914FF4A07000217D22E8606960AA60EB
:1015400029616961A961284600F0F6FA1520002199
:101550008DF81C008DF81D108DF81E100A910B914E
:10156000012207A9284600F034FB062104228DF849
:1015700004108DF80520142118228DF806108DF81E
:10158000072001A90122284600F0A9FB00F096FCE3
:10159000012202A9284600F07DFB01226946284667
:1015A00000F0F5FB9DF80200010930318DF8301094
:1015B00000F054F870702E20B0709DF80100010901
:1015C0003031F17000F04AF8307132212E20707104
:1015D000B1713020F0719DF8030001093031317292
:1015E00000F03CF8707240209DF80810B0720909B4
:1015F0003031F1729DF80800C10800EB1172120938
:10160000A0EB0210303030733A2070739DF809005F
:1016100001093031B17300F021F8F0733A203074D1
:101620009DF80A0001093031717400F017F8B074A8
:1016300014210CA800F08AFC4FF4FA7000F09EFC14
:101640004FF480712046FFF7A5FD4FF4FA7000F0CB
:1016500095FC9DE707A8142100F0A4BCC20800EB8C
:1016600012710909A0EB01103030704710B59EB01F
:10167000224C05A82146282200F098FC6846FFF776
:10168000EAFF0FA804F128013C2200F08FFC092199
:10169000059101234FF48031069109930B930D912D
:1016A000002202234FF4801107920C930E9105A89B
:1016B00000F088FC022101910F204FF4806100901E
:1016C00000220391029204920121684600F0FFFD7E
:1016D0004FF440300F904FF400714FF4800210919E
:1016E0001D920FA800F0B4FE1EB010BD14100240F1
:1016F000001000483C130020002800407C2A00080D
:101700007047000000000000F8B50D4604466878F8
:10171000092804F5FE7646D8DFE800F0647B4574BE
:10172000450905455323204600F008F980E0A888C4
:10173000002804BFE888002835D13078AF78032826
:1017400007F07F072FD0B77039462046FFF7A0FB80
:1017500000F08DF8002F07BF01213170022030709A
:1017600066E0344F688838703978084602281AD203
:101770003278022A1AD0032A15D131B902203070EA
:1017800061602046FFF7A5FD50E0616888424DD0BA
:10179000C9B22046FFF79DFD397861602046FFF70A
:1017A0008DFD022842D100F047F841E000293DD0EC
:1017B0006060032030702046FFF780FD0228F2D0E1
:1017C00034E0E8880128EED13178022904D00329D9
:1017D000E9D10122211D11E00020A060012204F1C5
:1017E00008010BE03078801E0128DCD8B0680121A8
:1017F00000B10321E160022204F10C01204600F057
:1018000059F915E06888012812D10121B1602946F3
:1018100008E03078801E0128C5D86A88012A07D1DF
:101820000020B0602046B2699368984700F01FF826
:101830000020F2BD5D130020294620460CE138B59A
:10184000044604F5FE720D46107803280BD1287962
:10185000022808D29269936820469847E88820B900
:1018600000F005F801E0FFF7E8FF002032BD204658
:1018700000F042B970B50D4604462878297900F089
:101880006000202804F5FE7602D100F051F84DE00A
:101890006A78002A01F07F0026D0012A0FD0032A9F
:1018A00044D13078022810D003283DD16888B0B9DF
:1018B00000291EBF80292046FFF7CFFA0FE03278BB
:1018C000022A02D0032A04D02EE000292ED080293B
:1018D00011E06A8852BB20B12046FFF7C4FA00F03D
:1018E00027F8FFF7C4FF21E03278022A02D0032A4A
:1018F00006D019E0002819D02046FFF7AEFA15E00F
:1019000004EB00100B064CBF00F1140500F58275C6
:101910002046FFF7AEFA00B10120286002222946D6
:10192000204600F0C7F801E0FFF786FF002070BDF9
:10193000B2699368294620461847000038B50D461D
:1019400004466888030A012B04F5047208D0022BB0
:1019500021D0032B2CD0062B56D0072B5BD063E075
:101960001268207C136869469847BDF8001000296A
:101970001CBFE98800290DD0BDF80010EA8891420B
:1019800088BF1146ADF800100146BDF80020204682
:1019900000F090F831BD207C51680028684604D1E1
:1019A000896A884702224270DFE7C96A8847F9E7F7
:1019B000C0B2052838D8DFE800F003090F151B2155
:1019C0001268207C536869469847CEE71268207CED
:1019D000936869469847C8E71268207CD3686946CF
:1019E0009847C2E71268207C136969469847BCE7AC
:1019F0001268207C536969469847B6E71268207CD4
:101A0000936969469847B0E7207C68B951684A6B8A
:101A100068469047A9E7207C30B951680A6B684650
:101A2000904707214170A0E7FFF707FF31BD10B5D0
:101A30000A7802704B7843708A78CB7802EB0324E3
:101A400044800A794B7902EB032484808A79C9792E
:101A500002EB0123C38010BD10B504468021FFF7BF
:101A6000FCF92046BDE810400021FFF7F6B9002838
:101A70000B4600D1704770B50146002400E0641C9D
:101A800011F8015B002DFAD12406E40DA41C14808A
:101A90001188197003225A70022207E010F8011B06
:101AA000D4B2521C1955D6B2521C9D55017800294A
:101AB000F4D170BD80B513460222C0F8F4218361D1
:101AC000C36101E080B513460A460021FFF7E6F93D
:101AD000002002BD80B513460322C0F8F42100F5B2
:101AE00084721360536001E080B513460A460021FA
:101AF000FFF7DAF9002002BD80B50421C0F8F41127
:101B000000230022E1E780B50521C0F8F41100238D
:101B10000022ECE780B50748016841F01001016040
:101B20000320FFF756FB002000F06EFD00F08CFD57
:101B3000002002BD0020024070B5040031D0607F5B
:101B400020B900212177204600F094FD00F03BF8F9
:101B500053202168486200F09BF8FF25E8B921680E
:101B6000DFF884028A6802408A60226893686668A7
:101B7000216960690E430643334393602068E1683E
:101B8000016120680169A26841EA0241016100F037
:101B900074F808D400F07AF828B12068456204216E
:101BA0006177012070BD2068016C21F480210164FF
:101BB00021680A6CA06902430A64012021684D6211
:101BC0006077002070BD02206077CA2122685162D0
:101BD0007047F8B500F002F901D10220F2BD00F023
:101BE000C8F82068806813D141065CBF0020E87007
:101BF000287800F033F9064600F0EEF8070200F00E
:101C0000E8F847EA06470743E87847EA004711E063
:101C1000410603D5287800F02CF901E00020E87097
:101C20006F782978A8783F0247EA0147E9780743A7
:101C300047EA01472168CA2048625322206842626D
:101C400000F026F8FF26B0B92168DFF8A0010740B0
:101C50000F602068826822F48022826021688A688E
:101C6000EB68286903431A438A6000F006F803D43E
:101C700000F00CF800B182E074E02068C16821F047
:101C80008001C16020688168880670472046B1E005
:101C90002046C8E038B500680C46816A6160036977
:101CA000C3F30E03A3600168DFF840010140080C94
:101CB00000F03F0323700D0A00F040006570A17032
:101CC000E0703AB9207800F0D4F800F005F800F0A0
:101CD0007CF8A070002032BD20706078C9E0F8B5B3
:101CE00004460E46207F012801D10220F2BD00F0FB
:101CF00040F875782CD1E80603D505F0EF050A35D4
:101D00007570F07800F0AAF80746707800F0A6F831
:101D10000502B07800F0A2F845EA0745054330789F
:101D200045EA40352068CA214162532221684A624F
:101D3000FFF7AEFFFF2650B92168DFF8B400054079
:101D40004D60FFF79AFF0DD4FFF7A0FF50B116E0EA
:101D5000F07831782D0245EA0045B078054345EA30
:101D60004135DFE720684662012161770020207756
:101D7000F2BD0120207702216177002A7047206898
:101D8000466204216177002020770120F2BD38B53A
:101D90000C460168DFF8580049680140A1700D0A3F
:101DA0000B0C05F01F05490BE370657001F007018E
:101DB000217042B9E07800F05CF8E070FFF78DFF29
:101DC00000F003F8A070002032BD6070A07850E0F1
:101DD0000602A87842E0074668783FE004460D46D0
:101DE000207F012870470000BFFF8FFF7F7F7F00AB
:101DF0003FFFFF0038B504462068C16821F0A0010C
:101E0000C16000F045FC05462068C168880608D41A
:101E100000F03EFC401B40F2E9318842F4D303203D
:101E200032BD002032BD38B504462068C1684A067C
:101E300012D44FF0FF31C16000F02AFC0546206843
:101E4000C168480608D400F023FC401B40F2E93189
:101E50008842F4D3032032BD002032BD002101E0CE
:101E6000491C0A38C2B20A2AFAD240EA0110C0B2AA
:101E7000704701090A2200F00F0012FB0100C0B2F6
:101E8000704730B4002513E050F8042BD30744BF4B
:101E9000A9F101039A18091F042942F8045BFAD238
:101EA00013468C0744BF15809B1CC90748BF1D7093
:101EB00050F8041B0029E7D130BC704710B5104C16
:101EC000104900222046FFF7D9F908B1FFF718FCA6
:101ED0000D492046FFF7E5F908B1FFF711FC0B4962
:101EE000204600F0B5FC08B1FFF70AFC2046FFF7DA
:101EF000E0F918B1BDE81040FFF702BC10BD00BF0B
:101F0000F80C0020300100201C00002020010020DF
:101F100038B5184C184D002205F57A71204600F0AE
:101F20009EFC2946204600F0A2FC002032BD002085
:101F300070470020704710B501460E4C204600F057
:101F400096FC204600F0AFFC002010BD10B5094CF7
:101F5000D4F818320A46D3F8141209B1012010BD82
:101F60000146204600F07BFC2046BDE8104000F012
:101F700084BC0000F80C00208001002038B5044625
:101F800000F086FB14F1010F054602D004480178E9
:101F9000641800F07DFB401BA042FAD331BD00BFA6
:101FA00000000020002200F091BC00004AB10000B7
:101FB00011F8013B521E00F8013B1CBF11F8013B18
:101FC000F8E770472DE9F843040018D02078DFF8CF
:101FD0003854C10740F1DB80686800F00C00042829
:101FE00007D0686800F00C0008280AD16868C103AF
:101FF00007D500F063F93DD0606800282CD101209E
:1020000050E16068B0F5803F04D1286840F480302A
:10201000286014E008B928680AE0B0F5A02F286805
:1020200006D140F480202860296841F4803105E021
:1020300020F480302860296821F480212960E86A32
:10204000A168000941EA0010E862606868B100F028
:102050001FFB064600F032F940F0998000F018FBB3
:10206000801B6528F6D303201CE100F011FB064617
:1020700000F024F900F08B8000F00AFB801B65283B
:10208000F6D3F0E700F004FBC01B022840F2AE805C
:10209000E9E7206970B10121316000F0F9FA0746E3
:1020A00000F007F940F08D8000F0F2FAC01B022822
:1020B000F6D9D8E7306000F0EBFA074600F0F9F8FF
:1020C00000F0868000F0E4FAC01B0228F6D9CAE7C7
:1020D000086000F0DDFA074600F072F900F08A802F
:1020E00000F0D6FAC01B0228F6D9BCE708B9286A66
:1020F00009E00528286A06D140F004002862286A11
:1021000040F0010005E0400840002862286A20F005
:102110000400286241F28938E06870B100F0B8FA32
:102120008146286A00F04DF940F0948000F0B0FA42
:10213000A0EB09004045F4D395E700F0A9FA8146E9
:10214000286A00F03EF900F0858000F0A1FAA0EBCB
:1021500009004045F4D386E700F09AFAC01B022834
:1021600040F28B807FE700F093FA001B022840F2D8
:10217000948078E700F0A7F8044600F095F800F0A6
:10218000908000F085FA001B0228F6D96BE72078D2
:10219000DFF8806281071BD5686810F00C0F09D04A
:1021A000686800F00C0008287FF473AF6868C1030A
:1021B0003FF56FAF00F07DF81CBF206901287FF468
:1021C0001EAF2868616920F0F80040EAC10028606D
:1021D000207801070ED5A069DFF83C1200283FF4F3
:1021E00077AF01220A6000F053FA074600F0E8F8E2
:1021F0003FF448AF2078410731D5E8690027C10096
:1022000009D4E86940F08050E8610127E86900F0EE
:10221000805000900098DFF80482D8F80000C105D3
:1022200013D4D8F8000040F48070C8F8000000F023
:102230002FFA8146D8F80000C10506D400F028FA2C
:10224000A0EB09006528F5D30DE7E06801287FF4CD
:102250004DAF54E71FB1E86920F08050E861E069B4
:10226000F8B1696801F00C0108293FF4C8AE0228F2
:102270007FF480AF00F027F8074600F015F87FF4F0
:102280006BAF6A68606A216A22F4741202430A43DF
:102290006A60012000F018F8044600F005F83FF4E9
:1022A00062AF0020BDE8F2832868C0F340600028D8
:1022B00070472868C0F34000002870472868C0F3C2
:1022C0004040002870470020306600F0E1B92DE959
:1022D000F0410400884667D0514E00F06CF802D2FD
:1022E00000F064F860D12078474D810705D56A6811
:1022F000A06822F0F00202436A602178C8074BD53B
:102300006168012903D12868C0F3404004E0022934
:10231000286803D1C0F3406018B945E000F051F8D7
:1023200042D06868800841EA8001696000F0B0F935
:1023300007466868616800F00C00B0EB810F2BD095
:1023400000F0A6F9C01B41F289318842F1D3032085
:1023500020E02078410705D56A68E06822F4E06251
:1023600002436A602178080706D56968206921F46C
:10237000605141EAC001696000F028F86968294AA3
:10238000C1F30311515C214AC8401060002000F0E5
:102390003BF90020BDE8F081306800F0070080457F
:1023A000D7D200F003F8D4D00120F3E73168C90890
:1023B00048EAC1013160306800F0070040457047CD
:1023C000686AC0F3400000287047000010B5164945
:1023D0000A6802F00C00082814D100BF14A3C2F34D
:1023E0008340D203185C896A09D500BF14A4084B46
:1023F00001F00F01625CB3FBF2F2504310BD0B49D8
:10240000484310BD024810BD001002400C000020DF
:1024100000127A00000042428004424200700040F4
:10242000002002406C2A00080410024000093D0010
:1024300002030405060708090A0B0C0D0E0F101005
:102440000102030405060708090A0B0C0D0E0F1004
:102450002DE9FC410546DFF8A4612868C10354D585
:10246000B0690024C10009D4B06940F08050B06167
:102470000124B06900F0805000900098DFF880716E
:102480003868C10519D4386840F48070386000F0AD
:10249000FFF880463868C1050FD400F0F9F8A0EBCA
:1024A00008006528F6D30320A5E000F0F1F8C01B72
:1024B00041F28931884218D3F5E7F06910F4407091
:1024C0001EBF696801F44071884213D0DFF83411EF
:1024D000F06901220A60002320F440700B60F06173
:1024E000C00707D500F0D4F80746F069C0F34000F4
:1024F0000028DAD0F169686821F440710143F16184
:102500001CB1B06920F08050B0612878C10705D5B2
:10251000F26AA868920840EA8202F2622978880783
:1025200005D5F16AE86821F440310143F162297868
:10253000480705D5F16A286921F440210143F16279
:102540002978880605D5F16AE86921F01001014370
:10255000F1622968880305D53168A86B21F48001F0
:10256000014331602978480605D5F16A286A21F0CF
:1025700020010143F1622978080705D5F16A6869ED
:1025800021F440110143F1622978C80605D5F16AAA
:10259000A86921F440010143F1622968880505D545
:1025A0003168E86A21F400010143316029780806A6
:1025B00005D5B16A686A21F4F8710143B1622968EE
:1025C000C80505D5B16AA86A21F478510143B16202
:1025D0002968C80405D5F16A286B21F4807101438C
:1025E000F1622968880405D5F16A686B21F40071ED
:1025F0000143F1620020BDE8F681000004100240B2
:10260000007000404004424238B50D4D0D4B2A7811
:1026100004464FF47A711868B1FBF2F2B0FBF2F0A5
:10262000FEF70BFE50B9102C08D2002221464FF0C5
:10263000FF30FEF7DBFDAC60002032BD012032BD73
:10264000000000200C0000200E4881B0016841F01D
:1026500001010160026802F00102009200994268E3
:1026600042F080524260406800F080500090009834
:1026700001B0704700680449884202D10348012232
:102680000260704718100240002800403C0442429B
:1026900001484068704700BF0000002070B5064642
:1026A0000025307C30B94FF4007300F031F84FF45E
:1026B000007303E0402300F02BF8402302220121A5
:1026C0003046FEF7B9FB0823032282213046FEF78D
:1026D000B3FB4FF40770FEF7F1FB040006F506703C
:1026E00008BF0125046011D040680168884704F5DF
:1026F0000170056145610268307C00280CBF4FF411
:102700000073402301213046FEF7CEFB284670BD02
:10271000022281213046FEF78FBB10B5044681218D
:10272000FEF795FB01212046FEF791FB8221204612
:10273000FEF78DFB04F50674206838B160684168C7
:1027400088472068FEF7C6FB00202060002010BDEF
:10275000F8B50D46044604F5067329781E6811F095
:1027600060001ED0202824D1EA88A2B1687809062A
:1027700006D55B689F683146B847EA88314615E060
:1027800006F500710870E88848703146EA882046EE
:10279000FFF7A0F90DE05B6868789C682946A047C0
:1027A00007E068780A2804D1012224492046FFF76F
:1027B00081F90020F2BDD0F8180220B10021C0F844
:1027C0001412002070470220704770B500F506749F
:1027D000256805F50176FEF76DFBB060206838B11D
:1027E00062683068D36805F503719847002070BDB2
:1027F000022070BD10B500F5067043680168002B1B
:102800001EBF01F500742078FF2804D062789B6811
:102810009847FF202070002010BD43210180084808
:1028200070474321018007487047432101800648D3
:1028300070470A2101800548704700005C130020A2
:102840009800002054000020DC0000201000002030
:102850000246022011B1C2F81C1200207047D0F8C5
:10286000180200F502700160826000207047D0F805
:102870001802C0F804120020704710B5D0F81812E2
:1028800079B101F50272D16849B90124D46081217E
:10289000936812689BB2FEF701FB002010BD012077
:1028A00010BD022010BD80B5D0F8181261B1D1F86A
:1028B0000422017C00290CBF4FF400734023012146
:1028C000FEF7F2FA002002BD022002BD00B500BFF3
:1028D000130096469446103928BFA0E80C50FAD849
:1028E0005FEA417C28BF0CC048BF40F8042BC907F1
:1028F00028BF20F8022B48BF00F8012B00BD0000C4
:10290000122008801A487047042008801948704730
:102910002DE9104000F028F827A004E02DE9104030
:1029200000F022F82AA02146FFF7A1F8204610BDAA
:1029300038B51A20088010494C68086889680F4D1E
:10294000081809D00822A91C00F022F8042205F179
:102950001201204600F01CF8284632BD2DE9104037
:1029600000F002F81FA0DEE70A46054C70470000A1
:102970004C01002060010020ACF7FF1F6401002023
:102980003C1100202DE91040FFF7EEFF18A0CAE728
:1029900030B5002393420DDA040F0A2C2CBF3734D4
:1029A000303401F8134001EB4305002400016C7042
:1029B0005B1CEFE730BD000053544D3332205669A5
:1029C000727475616C20436F6D506F7274000000FB
:1029D00053544D6963726F656C656374726F6E6991
:1029E0006373000043444320436F6E6669670000D1
:1029F00043444320496E746572666163650000005C
:102A000010B51448144A016841F47001016010685F
:102A1000124940F001001060536811480B405360A8
:102A20000023146804401460116821F480211160AF
:102A3000506820F4FE005060D06A00090001D062A6
:102A4000116B08480140116393604FF00060064924
:102A5000086010BD88ED00E0001002400CC07FF857
:102A6000FFFFF6FECCFC00FF08ED00E000000000D8
:102A7000000000000102030406070809000000002E
:102A80000000000000000000000000000000000046
:102A90000000000000000000000000000000000036
:102AA0000000000000000000000000000000000026
:102AB0000000000000000000000000000000000016
:102AC0000000000000000000000000000000000006
:102AD00000000000000000000000000000000000F6
:102AE00010B5074979441831064C7C44163404E08B
:102AF0000A68081D114488470146A142F8D110BD5B
:102B00002C000000480000004EF68851CEF2000173
:102B1000086840F470000860BFF34F8FBFF36F8FF9
:102B20004FF00070E1EE100A7047000057F3FFFF0E
:102B3000E0110000800100200000000037E4FFFFEA
:102B4000A4010000A6010000000000207047FEE77D
:102B5000FEE7FEE7FEE770477047704700F006B8F3
:102B60000148FDF7EFBC0000500900200248416811
:102B700002788A18426070470000002000F00DF8CB
:102B8000002801D0FFF7ACFFAFF300800020AFF3C7
:102B90000080FEF78DFC00F002F80120704700F085
:102BA00001B800000746384600F002F8FBE70000D5
:102BB00080B5AFF30080024A11001820ABBEFBE7DE
:102BC000260002000148804701480047012A00080A
:102BD000D52B0008AFF30080FFF796FFFFF7CEFF7D
:102BE000FFF7FEBFFFF7FEBFFFF7FEBFFFF7FEBF19
:102BF000FFF7FEBFFFF7FEBFFFF7FEBFFFF7FEBF09
:102C0000FFF7FEBFFFF7FEBFFFF7FEBFFFF7FEBFF8
:102C1000FFF7FEBFFFF7FEBFFFF7FEBFFFF7FEBFE8
:102C2000FFF7FEBFFFF7FEBFFFF7FEBFFFF7FEBFD8
:102C3000FFF7FEBFFFF7FEBFFFF7FEBFFFF7FEBFC8
:102C4000FFF7FEBFFFF7FEBFFFF7FEBFFFF7FEBFB8
:102C5000FFF7FEBFFFF7FEBFFFF7FEBFFFF7FEBFA8
:102C6000FFF7FEBFFFF7FEBFFFF7FEBFFFF7FEBF98
:102C7000FFF7FEBFFFF7FEBFFFF7FEBFFFF7FEBF88
:102C8000FFF7FEBFFFF7FEBFFFF7FEBFFFF7FEBF78
:102C9000FFF7FEBFFFF7FEBFFFF7FEBFFFF7FEBF68
:102CA000FFF7FEBFFFF7FEBFFFF7FEBFFFF7FEBF58
:102CB000FFF7FEBFFFF7FEBFFFF7FEBFFFF7FEBF48
:102CC000FFF7FEBFFFF7FEBFFFF7FEBFFFF7FEBF38
:102CD000FFF7FEBFFFF7FEBFFFF7FEBFFFF7FEBF28
:102CE000FFF7FEBF430100012210081005127A0011
:102CF0000A0600020B22401810079D2600081B2719
:102D000000085104211F12F50812B70452CB1061BC
:102D100001132328281104122B04123304100D0967
:102D2000024300020100C0320904000001020B103E
:102D30001E052400100105240100010424020205DF
:102D4000240600010705820308001009040100029F
:102D50000A4E1002070501027B200107058107F2D8
:102D6000280044224007228107200100090744F27D
:102D7000130444F207FF441003111F00082F04122C
:102D80003304123704130129E01104121D04121137
:102D900004123104125D041285041212431006025B
:102DA000020040830440577917020345F0050804E8
:072DB0000309041A030001EE
:0400000508002BD5EF
:00000001FF
