:020000040800F2
:1000000068080020B5140008911400089314000833
:1000100095140008971400089914000800000000C7
:100020000000000000000000000000009B14000819
:100030009D140008000000009F140008A11400088F
:10004000E1140008E5140008E9140008ED140008A4
:10005000F1140008F5140008F9140008FD14000854
:100060000115000805150008091500080D15000800
:100070001115000815150008191500081D150008B0
:100080002115000825150008291500082D15000860
:100090003115000835150008391500083D15000810
:1000A0004115000845150008491500084D150008C0
:1000B0005115000855150008591500085D15000870
:1000C0006115000865150008691500086D15000820
:1000D0007115000875150008791500087D150008D0
:1000E0008115000885150008891500088D15000880
:1000F0009115000895150008991500089D15000830
:10010000000000000000000000000000A115000831
:10011000A5150008A9150008AD150008B1150008BF
:10012000B5150008B9150008BD150008C11500086F
:10013000C5150008C91500080000000000000000F7
:10014000CD150008D1150008D515000800000000E5
:10015000000000000000000000000000000000009F
:100160000000000000000000D9150008DD1500089F
:10017000E115000800000000000000000000000081
:1001800000000000E51500082DE9F843040018D030
:100190002078DFF83854C10740F1DB80686800F050
:1001A0000C00042807D0686800F00C0008280AD169
:1001B0006868C10307D500F063F93DD06068002886
:1001C0002CD1012050E16068B0F5803F04D128684F
:1001D00040F48030286014E008B928680AE0B0F5DF
:1001E000A02F286806D140F480202860296841F4B7
:1001F000803105E020F480302860296821F48021D6
:100200002960E86AA168000941EA0010E8626068B4
:1002100068B100F0FFF9064600F032F940F099802D
:1002200000F0F8F9801B6528F6D303201CE100F0EC
:10023000F1F9064600F024F900F08B8000F0EAF9AD
:10024000801B6528F6D3F0E700F0E4F9C01B022814
:1002500040F2AE80E9E7206970B10121316000F021
:10026000D9F9074600F007F940F08D8000F0D2F987
:10027000C01B0228F6D9D8E7306000F0CBF907465A
:1002800000F0F9F800F0868000F0C4F9C01B0228E5
:10029000F6D9CAE7086000F0BDF9074600F072F928
:1002A00000F08A8000F0B6F9C01B0228F6D9BCE73E
:1002B00008B9286A09E00528286A06D140F0040038
:1002C0002862286A40F0010005E0400840002862EA
:1002D000286A20F00400286241F28938E06870B191
:1002E00000F098F98146286A00F04DF940F09480BA
:1002F00000F090F9A0EB09004045F4D395E700F039
:1003000089F98146286A00F03EF900F0858000F006
:1003100081F9A0EB09004045F4D386E700F07AF9B3
:10032000C01B022840F28B807FE700F073F9001BAE
:10033000022840F2948078E700F0A7F8044600F025
:1003400095F800F0908000F065F9001B0228F6D9BE
:100350006BE72078DFF8806281071BD5686810F0B2
:100360000C0F09D0686800F00C0008287FF473AF08
:100370006868C1033FF56FAF00F07DF81CBF2069CE
:1003800001287FF41EAF2868616920F0F80040EA78
:10039000C1002860207801070ED5A069DFF83C1263
:1003A00000283FF477AF01220A6000F033F90746D6
:1003B00000F0E8F83FF448AF2078410731D5E8690C
:1003C0000027C10009D4E86940F08050E8610127A6
:1003D000E86900F0805000900098DFF80482D8F8B7
:1003E0000000C10513D4D8F8000040F48070C8F8AC
:1003F000000000F00FF98146D8F80000C10506D4CE
:1004000000F008F9A0EB09006528F5D30DE7E068D6
:1004100001287FF44DAF54E71FB1E86920F0805008
:10042000E861E069F8B1696801F00C0108293FF45E
:10043000C8AE02287FF480AF00F027F8074600F02E
:1004400015F87FF46BAF6A68606A216A22F474124F
:1004500002430A436A60012000F018F8044600F0E5
:1004600005F83FF462AF0020BDE8F2832868C0F3CE
:100470004060002870472868C0F34000002870479B
:100480002868C0F34040002870470020306600F024
:10049000C1B82DE9F0410400884667D0514E00F004
:1004A0006CF802D200F064F860D12078474D8107E3
:1004B00005D56A68A06822F0F00202436A602178DC
:1004C000C8074BD56168012903D12868C0F34040B3
:1004D00004E00229286803D1C0F3406018B945E060
:1004E00000F051F842D06868800841EA80016960F4
:1004F00000F090F807466868616800F00C00B0EB07
:10050000810F2BD000F086F8C01B41F28931884260
:10051000F1D3032020E02078410705D56A68E06820
:1005200022F4E06202436A602178080706D5696810
:10053000206921F4605141EAC001696000F028F8A7
:100540006968294AC1F30311515C214AC84010600F
:10055000002000F065F80020BDE8F081306800F070
:1005600007008045D7D200F003F8D4D00120F3E78C
:100570003168C90848EAC1013160306800F00700FD
:1005800040457047686AC0F340000028704700008B
:1005900010B516490A6802F00C00082814D100BFF3
:1005A00014A3C2F38340D203185C896A09D500BF43
:1005B00014A4084B01F00F01625CB3FBF2F250434C
:1005C00010BD0B49484310BD024810BD0010024049
:1005D0000C00002000127A000000424280044242D7
:1005E0000070004000200240381300080410024050
:1005F00000093D0002030405060708090A0B0C0D5B
:100600000E0F10100102030405060708090A0B0C5F
:100610000D0E0F1001484068704700BF0000002019
:1006200038B50D4D0D4B2A7804464FF47A71186891
:10063000B1FBF2F2B0FBF2F000F049F850B9102C27
:1006400008D2002221464FF0FF3000F023F8AC60C2
:10065000002032BD012032BD000000200C0000202F
:100660000901020006D5244A00F00F00104400F8EA
:10067000041C7047214B19547047214B19684FF6E1
:10068000FF020002114000F4E06008431D490843E6
:100690001860704738B51A4B1C68C4F30223C3F1C5
:1006A0000704052C28BF04241D1D072D34BF00237B
:1006B000DB1E012505FA04F4641E2140994005FA69
:1006C00003F35B1E1A401143BDE83440C8E710B580
:1006D000401EB0F1807F01D3012010BD0A4C606044
:1006E0000F214FF0FF30FFF7BBFF0021A160072073
:1006F0002060002010BD000018ED00E000E400E0E4
:100700000CED00E00000FA0510E000E02DE9F847EC
:100710000026684A0F230446884632E0664DAC4204
:1007200014BF052504258D4045EA0E054CF82750D9
:10073000C74362490D6800F0B3F8ED0348BF40EAD3
:100740000C0CC1F800C04D6800F0AAF8AD0348BF1A
:1007500040EA0C0CC1F804C08D6800F0A1F8ED026D
:1007600048BF40EA0C0CC1F808C0CD6807EA050C88
:10077000D8F80470BD0248BF40EA0C0CC1F80CC0A8
:10078000761CD8F8001031FA06F000F087800127B7
:10079000B74017EA0100F3D0D8F80450B100022D99
:1007A00018BF122D12D1F50804EB850C01F01C05C1
:1007B000DCF820E0D8F810A003FA05F92EEA090EBB
:1007C0000AFA05F545EA0E05CCF820504FEA460C2A
:1007D0004FF0030E256898F804900EFA0CFE6FEAAD
:1007E0000E0E09F003090EEA050509FA0CF949EAAB
:1007F00005052560D8F80450012D18BF022D03D03F
:10080000112D18BF122D13D1A568D8F80C900EEA3F
:10081000050509FA0CF949EA0505A560656825EAA8
:100820000707D8F80450C5F30015B5402F4367609B
:10083000E7680EEA0705D8F8087007FA0CF73D4399
:10084000E560D8F80450EF009AD51568DFF870C05D
:1008500045F00105156001F00C01176807F001076C
:10086000009703FA01FE009FB7085CF8275025EABD
:100870000E0EB4F1904F08BF00250ED0114DAC42C2
:1008800008BF012509D0104DAC4208BF022504D095
:100890000E4DAC427FF442AF032544E7BDE8F1873B
:1008A00007EA050CD8F8045070470AB18161704717
:1008B0008162704718100240001000480004014097
:1008C000080001400004004800080048000C0048EF
:1008D0002DE9FC410546DFF8A4612868C10354D521
:1008E000B0690024C10009D4B06940F08050B06103
:1008F0000124B06900F0805000900098DFF880710A
:100900003868C10519D4386840F480703860FFF742
:1009100081FE80463868C1050FD4FFF77BFEA0EB4F
:1009200008006528F6D30320A5E0FFF773FEC01B7F
:1009300041F28931884218D3F5E7F06910F440702C
:100940001EBF696801F44071884213D0DFF834118A
:10095000F06901220A60002320F440700B60F0610E
:10096000C00707D5FFF756FE0746F069C0F3400001
:100970000028DAD0F169686821F440710143F1611F
:100980001CB1B06920F08050B0612878C10705D54E
:10099000F26AA868920840EA8202F262297888071F
:1009A00005D5F16AE86821F440310143F162297804
:1009B000480705D5F16A286921F440210143F16215
:1009C0002978880605D5F16AE86921F0100101430C
:1009D000F1622968880305D53168A86B21F480018C
:1009E000014331602978480605D5F16A286A21F06B
:1009F00020010143F1622978080705D5F16A686989
:100A000021F440110143F1622978C80605D5F16A45
:100A1000A86921F440010143F1622968880505D5E0
:100A20003168E86A21F40001014331602978080641
:100A300005D5B16A686A21F4F8710143B162296889
:100A4000C80505D5B16AA86A21F478510143B1629D
:100A50002968C80405D5F16A286B21F48071014327
:100A6000F1622968880405D5F16A686B21F4007188
:100A70000143F1620020BDE8F6810000041002404D
:100A800000700040400442422DE9F04186B06846C3
:100A9000142100F0BDF85248524D0468524E534F95
:100AA000DFF84C8144F4001404604FF608740168C8
:100AB00001F4001105910599026842F400220260D8
:100AC000036803F4002300F097F842F48002026008
:100AD000036803F4800300F08FF842F400320260F0
:100AE000036803F4003300F087F842F480120260D8
:100AF000036803F4801300F07FF842F48022026060
:100B00000022006800F480200590214605982846C0
:100B1000FFF7CBFE00224FF402414FF09040FFF769
:100B2000C4FE00224FF400613046FFF7BEFE0022F3
:100B300055213846FFF7B9FE002220214046FFF735
:100B4000B4FE37202B4900900191002202926946A1
:100B50002846FFF7DBFD012001900022029203925C
:100B6000009469462846FFF7D1FD0120002100903E
:100B7000019102914FF090406946FFF7C7FD0021B7
:100B8000019102914FF40074009469463046FFF7DA
:100B9000BDFD4FF4024100F033F84FF09040FFF7F5
:100BA000B5FD4FF4006100F02BF83046FFF7AEFDC5
:100BB000552100F025F83846FFF7A8FD202100F068
:100BC0001FF84046FFF7A2FD002101910291009419
:100BD00069464046FFF79AFD06B0BDE8F081000087
:100BE000141002400010004800080048000C0048A3
:100BF0000004004800001210059305990268704730
:100C000000910122002102910391019269467047EF
:100C1000002200F01DB830B4002513E050F8042B7A
:100C2000D30744BFA9F101039A18091F042942F808
:100C3000045BFAD213468C0744BF15809B1CC9077E
:100C400048BF1D7050F8041B0029E7D130BC704725
:100C500000B500BF130096469446103928BFA0E89F
:100C60000C50FAD85FEA417C28BF0CC048BF40F85E
:100C7000042BC90728BF20F8022B48BF00F8012B1E
:100C800000BD000070B500F0A7F800F059F8FFF7BC
:100C9000FBFE00F0B3F800F00FF900F065F9484CE6
:100CA000484D494E012200F041F8002200F03EF884
:100CB00001224FF4004100F03BF800224FF40041C4
:100CC00000F036F8012200F02CF8002200F029F89C
:100CD000012200F031F8002200F02EF80122042158
:100CE00000F02BF80022042100F027F80122102147
:100CF00000F023F80022102100F01FF8012240210B
:100D000000F01BF80022402100F017F801222021FA
:100D10002046FFF7CAFD002220212046FFF7C5FD2F
:100D2000C0E74FF400613046FFF7BFBD4FF40071DC
:100D30004FF09040FFF7B9BD01212846FFF7B5BD40
:100D400010B59EB0214C05A82146282200F058F984
:100D500068461421FFF75CFF0FA804F128013C222C
:100D600000F04EF903214FF4A022059106920021D4
:100D7000012207910992102102220A910C924FF44C
:100D800080314FF4E0120D910E9205A8FFF7FCF9A7
:100D9000022101910F204FF4806100900022039105
:100DA0000292049202216846FFF773FB08480F90F5
:100DB000002116911D910FA8FFF78AFD1EB010BDEE
:100DC00000040048000C00480008004848130008D0
:100DD000200002007047000080B50748016841F01C
:100DE000100101600320FFF748FC0020FFF718FC0A
:100DF00000F012F9002002BD0020024010B5294C7D
:100E000029482A49206000220120E0606160A26038
:100E100022616261A261E2612262204600F016F95D
:100E200008B1FFF7D7FF0021204600F067F908B1AD
:100E3000FFF7D0FF0021204600F075F918B1BDE89A
:100E40001040FFF7C7BF10BD38B586B0044601A8F3
:100E50001421FFF7DDFE2468134DAC4220D1144C61
:100E6000206840F4802020601222216801F4802153
:100E70000091C02100980F48019102920121039135
:100E8000032204210591049201A9FFF73FFCA06809
:100E900040F40010A060A06800F4001000900098DA
:100EA00007B030BD1C040020005400400E09002093
:100EB000141002400004004880B528482849016009
:100EC0004FF482724FF44071C16042600821C161E9
:100ED00000230721C1624FF400720821836003617F
:100EE000436182610362436283620363416300F092
:100EF00045F918B1BDE80140FFF76CBF01BD38B539
:100F000086B0044601A81421FFF782FE2468144D20
:100F1000AC4221D11348416841F48051416041689D
:100F200001F4805100910099026842F4003202609D
:100F3000E021006800F40030009002220098019146
:100F4000029200210391032205210591049201A937
:100F50004FF09040FFF7DAFB07B030BDB803002038
:100F6000003001401410024080B52248224901603F
:100F700008220223002142608360C1600361816115
:100F8000016200F057F918B1BDE80140FFF722BF38
:100F900001BD38B586B0044601A81421FFF738FE1C
:100FA0002468154DAC4222D1144C206840F4003026
:100FB00020600222216801F4003100914FF4C051F9
:100FC0000098019102920021039103220E210591C4
:100FD000049201A94FF09040FFF798FBA06840F4FD
:100FE0000000A060A06800F400000090009807B026
:100FF00030BD000010000020005C004014100240D2
:101000004AB1000011F8013B521E00F8013B1CBF21
:1010100011F8013BF8E770470B4882B0016841F0D6
:1010200001010160026802F0010200920099426829
:1010300042F080524260406800F08050009000987A
:10104000072002B0FFF719BB1810024038B50400A2
:1010500001D1012032BD04F14005687820B900219A
:1010600029702046FFF7F0FE00F040F86068216824
:1010700020F0706008612068816821F4004181607F
:10108000E06821680128A0680CBF40F4004040F4EB
:1010900004408860E068022803D120684FF40061B2
:1010A00041602068416841F0007141F400414160B5
:1010B0002068C16821F40041C16060692169A269AA
:1010C0000143206841EA0221C160206AE169226887
:1010D000014311602068016841F0010101600020B6
:1010E0006860202169702063A87032BD2420687078
:1010F00020680168490849000160704730B500F177
:1011000040025378202B0CD11478012C09D000F028
:101110001DF824F480541C6003681D68294319607D
:1011200020E0022030BD30B500F140025378202B82
:101130000AD11478012C07D000F008F824F4706468
:1011400044EA01241C600DE0022030BD012313702D
:101150002424547003681D686D086D001D600368C9
:101160001C6870470068016841F00101016020209F
:10117000507000211170002030BD000070B50400D7
:1011800001D1012070BD0020A06204F15C056878E7
:1011900020B9002129702046FFF7B1FE02206870B7
:1011A00000F041F8E168B1F5E06F04D90022B1F533
:1011B000706F03D104E04FF4805201D00020A06290
:1011C000206B30B9B1F5E06F87BF022020630121A9
:1011D00021636368A06821692668034360690B4343
:1011E000A169034301F40071E0690B43216A0343E1
:1011F000A06A0B4303433360A369606A616B1B0CF5
:1012000003F004030343E0680B4303431A432368DA
:101210005A602068C16921F40061C16100206860E2
:101220000121697070BD2068016821F040010160F2
:101230007047000070B5044600260CB9012070BD4F
:1012400004F55C75687818B92E702046FFF7A1FE8A
:101250000320687000231C200BE000FB06F12144F2
:10126000283101220E704A70CB70CB600B614B614C
:10127000761C61688E42F0D3002100260BE000FB53
:1012800001F2224402F5E67211705370D670D360F9
:1012900016615361491C62689142F0D321680120B4
:1012A000A1F840002068A0F840302268A2F844303D
:1012B0004FF43F422168A1F850302068A0F8402048
:1012C00084F8243001206870002070BD10B51448E7
:1012D000144A016841F4700101601068124940F03D
:1012E00001001060536811480B40536000231468DC
:1012F00004401460116821F480211160506820F4CA
:10130000FE005060D06A00090001D062116B0848ED
:101310000140116393604FF000600649086010BD02
:1013200088ED00E0001002400CC07FF8FFFFF6FEE1
:10133000CCFC00FF08ED00E0000000000000000011
:101340000102030406070809000000000000000075
:10135000000000000000000000000000000000008D
:10136000000000000000000000000000000000007D
:10137000000000000000000000000000000000006D
:10138000000000000000000000000000000000005D
:10139000000000000000000000000000000000004D
:1013A00000000000000000000000000030B450F811
:1013B000041B79B10268436802440830DC0744BF6B
:1013C000A9F10104E31852F8045B43F8045B091F18
:1013D000F9D1ECE730BC704710B5074979441831B2
:1013E000064C7C44163404E00A68081D1144884702
:1013F0000146A142F8D110BD2C0000004C000000B5
:101400004EF68851CEF20001086840F47000086082
:10141000BFF34F8FBFF36F8F4FF00070E1EE100AF4
:1014200070470000F3F7FFFF580400001000002091
:101430000000000079FFFFFF10000000880000009E
:10144000000000200000000000F00DF8002801D08E
:10145000FFF7C2FFAFF300800020AFF30080FFF77B
:1014600011FC00F002F80120704700F001B8000004
:101470000746384600F002F8FBE7000080B5AFF3FE
:101480000080024A11001820ABBEFBE726000200D4
:101490007047FEE7FEE7FEE7FEE7704770477047DC
:1014A00000F000B80248416802788A18426070472C
:1014B000000000200148804701480047CD12000885
:1014C000D51400080100000000000000100000001A
:1014D00000127A00AFF30080FFF792FFFFF7B4FF2E
:1014E000FFF7FEBFFFF7FEBFFFF7FEBFFFF7FEBF30
:1014F000FFF7FEBFFFF7FEBFFFF7FEBFFFF7FEBF20
:10150000FFF7FEBFFFF7FEBFFFF7FEBFFFF7FEBF0F
:10151000FFF7FEBFFFF7FEBFFFF7FEBFFFF7FEBFFF
:10152000FFF7FEBFFFF7FEBFFFF7FEBFFFF7FEBFEF
:10153000FFF7FEBFFFF7FEBFFFF7FEBFFFF7FEBFDF
:10154000FFF7FEBFFFF7FEBFFFF7FEBFFFF7FEBFCF
:10155000FFF7FEBFFFF7FEBFFFF7FEBFFFF7FEBFBF
:10156000FFF7FEBFFFF7FEBFFFF7FEBFFFF7FEBFAF
:10157000FFF7FEBFFFF7FEBFFFF7FEBFFFF7FEBF9F
:10158000FFF7FEBFFFF7FEBFFFF7FEBFFFF7FEBF8F
:10159000FFF7FEBFFFF7FEBFFFF7FEBFFFF7FEBF7F
:1015A000FFF7FEBFFFF7FEBFFFF7FEBFFFF7FEBF6F
:1015B000FFF7FEBFFFF7FEBFFFF7FEBFFFF7FEBF5F
:1015C000FFF7FEBFFFF7FEBFFFF7FEBFFFF7FEBF4F
:1015D000FFF7FEBFFFF7FEBFFFF7FEBFFFF7FEBF3F
:0815E000FFF7FEBFFFF7FEBF9D
:04000005080014D506
:00000001FF
