:020000040800F2
:1000000020080020E54700085D4700085F4700081A
:1000100061470008634700086547000800000000CA
:10002000000000000000000000000000674700081A
:1000300069470008000000006B4700086D47000892
:100040000F48000813480008174800081B4800081C
:100050001F48000823480008274800082B480008CC
:100060002F48000833480008374800083B4800087C
:100070003F48000843480008474800084B4800082C
:100080004F48000853480008574800085B480008DC
:100090005F48000863480008674800086B4800088C
:1000A0006F48000873480008774800087B4800083C
:1000B0007F48000883480008874800088B480008EC
:1000C0008F48000893480008974800089B4800089C
:1000D0009F480008A3480008A74800087147000887
:1000E000AB480008AF480008B3480008B74800080C
:1000F000BB480008BF480008C3480008C7480008BC
:10010000000000000000000000000000CB480008D4
:10011000CF480008D3480008D7480008DB4800084B
:10012000DF480008E3480008E7480008EB480008FB
:10013000EF480008F348000800000000000000003D
:10014000F7480008FB480008FF48000800000000CE
:10015000000000000000000000000000000000009F
:1001600000000000000000000349000807490008E3
:100170000B49000800000000000000000000000023
:10018000000000000F4900082DE9F04F0FF2A41CF9
:10019000A1B0DCE90089CDE900892A9DDFF8DC9B6C
:1001A000049100248DF843500D944FF0FF3882469F
:1001B00016461F460FE0B3462C461BF8011B049859
:1001C000D0470028049000F0A2800D98401C641EC7
:1001D0000D90F2D176193078252808D1002100221F
:1001E0000791089209910A920B910C920DE06A46D0
:1001F0004146304600F0DAFF050001D10D98A1E03C
:10020000D9D50125E6E741F0010116F8010F2028B4
:10021000F9D023280CD02B2804D02D2805D0302845
:1002200009D076E041F00201EFE741F00401ECE78C
:1002300041F00801E9E741F01001E6E70F9209E01B
:100240000F98484505DA00EB800402EB4402303A8F
:100250000F92761C3278A2F130000A28F0D3307861
:100260002E2818BFCDF8388022D116F8010F2A2881
:1002700007D138683860761C50F8042B38600E922D
:1002800016E02D280CBF761C002000220E920AE0FA
:1002900040B90E9A4A4505DA02EB820403EB4403A7
:1002A000303B0E93761C3378A3F130020A2AEFD349
:1002B000ADF8401021A0317800F082FF08B116F8A7
:1002C000010B8DF842009DF84200682804D1307877
:1002D00068280AD1622105E06C2804BF30786C28B8
:1002E00003D171218DF84210761C12A806903A466F
:1002F00016F8013B02A9504600F064F838B912AA7A
:1003000002A9504600F0C8F900287FF564AF4046C6
:1003100018E02A2892D13A683A6052F8040B3A6001
:1003200000280F9003D540420F9041F00401761C45
:1003300095E700000000000000000000686A6C748F
:100340007A4C000021B0BDE8F08F622820D06828E8
:1003500011D06A2803D06C2827D0712825D10868CD
:10036000C01D20F007000860D0E9002308300860B5
:10037000194610467047002A0A680A60106803D0C0
:10038000121D0A6000B217E0121D0A6080B217E069
:10039000002A0A680A60106803D0121D0A6040B281
:1003A0000AE0121D0A60C0B20AE0002A0A680A6068
:1003B000106803D0121D0A60C1177047121D0A6031
:1003C000002170477CB50D4611461C462E69B4F1DC
:1003D000250200F04F811C3A00F08480121F022A8F
:1003E00040F280800E3A00F00981521F59D0093A3C
:1003F00078D0921E16D0521E35D0521E022A71D9C4
:10040000121F30D0521F00F09880521E49D0521E49
:1004100000F0E280D21E00F0FF80921E41D0D21E7A
:100420003FD02DE195F83A406C2C09D06869421C08
:100430006A610A680A6052F8043B0A60335429E191
:100440000A680A6052F8043B0A6000930022019295
:100450004FF0FF332B636A46294600F098F90028D5
:1004600040F1188103E195F83A000122FFF76DFF92
:10047000C5E90001002904D56869411C69612D2284
:100480000DE0288F810704D56869411C69612B2222
:1004900005E0C00721D56869411C696120223254FA
:1004A0001BE095F83A000022FFF74FFFC5E9000175
:1004B00095F83800010710D5D5E90023002B08BFB7
:1004C000002A0AD044F02000782806D1686930213B
:1004D0003154401C421C6A613454214668693044DE
:1004E000E86087E00868C01D20F007000860D0E9D8
:1004F000002308300860C5E90023D5E90001C80FD2
:1005000004D06869411C69612D220DE0288F8107A4
:1005100004D56869411C69612B2205E0C00704D538
:100520006869411C69612022325468693044E8607E
:100530002146284600F036FAACE005F13A02507840
:1005400020B14FF0FF340FF6043074E010786228C9
:1005500008D0682824D06A2812D06C282ED07128A0
:100560000ED02BE00A680A6052F8040B0A6020B92A
:100570004FF0FF340FF6EC205DE0E96A017089E08E
:100580000A680A6052F8040B0A6020B94FF0FF3481
:100590000FF6D0204FE0EA6AD317C0E9002379E0D4
:1005A0000A680A6052F8040B0A6020B94FF0FF3461
:1005B0000FF6B0203FE0E96A01806BE00A680A604C
:1005C00052F8040B0A6020B94FF0FF340FF6942064
:1005D00031E0E96A01605DE00A680A6052F8040BE4
:1005E0000A60002120F0000221F0FF33C5E900235A
:1005F000EE607821284600F02DF94BE06C2285F85A
:100600003A200B680B6053F8042B0B6052BB4FF081
:10061000FF340FF684200EE095F83A206C2AF0D0D3
:100620000868086050F8044B0860EC603CB94FF073
:10063000FF340FF6482000F0EBFD201A76BD2E6B3C
:10064000002E04D5204600F003FE044608E03246A2
:100650000021204600F026FE002814BF041B34466B
:10066000AC6117E0294600F092F8002812D54FF04F
:10067000FF3076BD6869411C69612522325409E06A
:100680006969481C686125227254210002D0431C0C
:100690006B613454002076BD2DE9F0410E460546CD
:1006A0009046726B7069316AB46A121AB069521A54
:1006B000716A121AF069521A121A96F83800141B4D
:1006C00041070DD4002C0BDD2746B0682021A84738
:1006D0000028B06057D0F06A401C7F1EF062F4D151
:1006E000736942463146284600F098FC00284AD1FA
:1006F000376A002F0ADDB0683021A8470028B060B3
:1007000041D0F06A401C7F1EF062F4D1B369F268F8
:100710003146284600F082FCA8BB776A002F09DD2D
:10072000B0683021A847B06068B3F06A401C7F1EF3
:10073000F062F5D1F068B169F36942183146284694
:1007400000F06CFCF8B9B76A002F09DDB068302101
:10075000A847B060B8B1F06A401C7F1EF062F5D1C6
:1007600096F8380041070BD5002C09DDB068202130
:10077000A847B06038B1F06A401C641EF062F5D141
:100780000020BDE8F0814FF0FF30BDE8F0812DE999
:10079000F8470D46A3B02F6B002F0646904648BF82
:1007A0006FF000470FF60C1400F0A8FDD4E9002309
:1007B000696B4018CDE90123812828BF4FF0FF3035
:1007C00042D20024002F33DDD8F8001001AA684679
:1007D00000F0EEFC8146B9F1000F38D4D8F80000E3
:1007E00010B9B9F1010932D44F4521DB6869484499
:1007F00081280AD30021696303AA29463046FFF7FE
:100800004BFF040014D40020686103ABD5F814A09A
:100810004A46694603EB0A0000F076FDCA44C5F873
:1008200014A058F8040B002818BFA7EB0907C9D17A
:100830004CB903AA29463046FFF72EFF044614B9E7
:10084000002068616863204624B0BDE8F0874FF05F
:10085000FF34F8E72DE9FC4307466F293E6908BFDE
:10086000082405D041F02000782814BF0A24102461
:100870003C25D7E90023642918BF69299046994689
:1008800005D1002B03D5D8F1000869EB4909B9F16E
:10089000000F08BFB8F1000F1FD1386BE8B9082C62
:1008A0004CD197F83800010748D530203B2586F811
:1008B0003B0043E000280ED597F8380000F0140004
:1008C000102808D17B6B7969386A5B1A1B1A9A1A4F
:1008D000002AC8BF3A62BDE8F3838DF80010404695
:1008E00049462246E31700F01BFD3032D0B26D1EA0
:1008F0003A28019504DB9DF80000A0F151018A1807
:100900007255404649462246E31700F009FD8046ED
:100910005FEA010908BFB8F1000F03D0F868711948
:100920008842DCD3082C09D197F83800010705D597
:10093000705D302802D06D1E30207055C5F13C022C
:10094000BA617119F960386B8242B3DA821A3A627D
:100950004FF6EF70398F01403987BDE8F3832DE9F9
:10096000D04306460F4614464FF00008DFF81094B7
:1009700012E0E00707D542464B463046394600F0C4
:10098000E7FD06460F464046494642464B4600F0C4
:10099000DFFD641080468946002CEAD13046394696
:1009A000BDE8D0832DE9F84F05468A464AF0200479
:1009B0008EB0D5E90089612C02AE09D0286B0028E1
:1009C00048BF062003D408BF672C01D1012028634B
:1009D000D5E900014A005215521C0DD10B030BD072
:1009E000AAF1610103201A29A86102D20FF2CC6199
:1009F00010E00FF2CC610DE04A005215521C0ED1EE
:100A00000B030CD1AAF1610103201A29A86116D3A6
:100A10000FF2B461E868032200F076FCC0E1CDE992
:100A20000C01DDE90C2323F00043B3F5801F0DD248
:100A30000027002B08BF002A019703D111E00FF215
:100A40008461E7E701AA00F055FE0AE0CD48CE49EF
:100A500000EB1350DDE90C2301900B40CB4910460D
:100A60001943C5E90001612C0DD1E86830210170FE
:100A7000821CBAF1610FEA600CBF782158214170E5
:100A80006869801C6861D5E90001CDE90C01DDE9E8
:100A90000C2333F0004104BF0028002300F04881FC
:100AA000612C40F0A080286B494600284CBF4FF0D5
:100AB000210B00F1010B404600220023DDE90C89E7
:100AC00000F050FE01990BF1010738BF89F0004991
:100AD000091F002F01918DF808200DF1090040F346
:100AE0003581A94900910646404649460022002327
:100AF00000F050FE80F029814800400D00F11C02FA
:100B000011D0002A0FDD40F2FF739A4205DBA049A5
:100B100009F000400143002011E0009B194041EA28
:100B2000025140460BE028F0000039F0004108BFB8
:100B300000280FBF49461C22494600F043FE80466C
:100B4000894600F0DDFEFF1F002F044609DD00F09E
:100B5000F5FE02460B464046494600F001FF80463E
:100B60008946F01D072104E004F00F0200F8012D72
:100B70002411002C01DD491EF6D5491E5CBF002260
:100B800000F8012DF9D5DCE00020194602AA0A443C
:100B900000E05B1E12F80149491E8442F9D00F287B
:100BA00004D10DF10900425C521C4254002904D5C5
:100BB0000198001D02AE5B1C0190581E0CD4311828
:100BC000AAF13A040A783032D7B23A2FA8BFA21855
:100BD000401E01F80129F5D5286B002840F1A780B7
:100BE000591E2963A3E001996A4A47F2975041438D
:100BF00091FBF2F2019229F00046D2F1070204DDE6
:100C000040463146FFF7ABFE0AE0524200206249FF
:100C1000FFF7A5FE02460B464046314600F012FFA4
:100C20008046662C286B06BF019F0A3706273F18AF
:100C3000142FC8BF142730208DF8080089460DF105
:100C4000090000E03046002F34DD064640464946A4
:100C500001F01CF801460A4606F1080304200A26A2
:100C6000B2FBF6F606EB860EA2EB4E02303203F82C
:100C7000012C0A22B6FBF2F202EB820EA6EB4E0624
:100C80003036401E03F8026DE9D1083F002F03F112
:100C90000806D7DD084601F00DF802460B4640462F
:100CA000494600F05DFE00223C4B00F051FC8046BE
:100CB0008946CBE70DF10901401A0DF1090604E060
:100CC0000199491E401E0191761C31783029F7D0D8
:100CD000662C02D10199491C03E0652C0CBF01214F
:100CE00000212B6BCB189842B8BF431E002B1ED49B
:100CF000834204DAF05C3528A8BF392000DA3020BE
:100D00001946721E02EB010800E05B1E18F80199FB
:100D1000491E8145F9D0392802D1705C401C7054BD
:100D2000002904D50198401C16465B1C01900198CF
:100D300000B200901BB232465146284600F034F80B
:100D40002EE0C61D002F3FF7CFAE30460DF1090152
:100D5000401A03465845C8BF5B46002B0DF10906F3
:100D60003FF53AAF8342BFF60FAF0DF10900C15C0A
:100D700007297FF709AF0F2007E70000CBCCCC0C89
:100D80000000244002FCFFFFFFFF0F800000E03F57
:100D90000000F07FA08601000000F03F84D797415B
:100DA0000FB0BDE8F08F00002DE9F84783B006468C
:100DB0008A461746984600F0FDF9B8F1000F406AE0
:100DC000356B90F8009002DC4FF00108BFA74AF0A5
:100DD0002000BDF93040662808BF641C15D0672884
:100DE00040F0848014F1040FC0F28680AC4280F29F
:100DF000838096F83800641C010702D4A845B8BF68
:100E0000454620B22D1A48BF00250FFA84FAF06833
:100E1000B169BAF1000F25DC4A1C30234354002D80
:100E200003DC96F83800010703D5F06800F802905B
:100E3000521C15EB0A0FB8BF6C4220B24419414254
:100E40004445B8BFA046B26171620FFA88F5F561FA
:100E5000F068B3692A463946184400F055FA641B15
:100E6000B462C4E022B29045084417DA42463946DB
:100E700000F04AFAB0694044B061AAEB0801002DC5
:100E8000716203DC96F838100A0705D5F16801F89D
:100E90000090F069401CF061B562A8E0394600F0AE
:100EA00033FAB069002D5044A8EB040803DC96F82F
:100EB00038100A0703D5F16801F80090401CB061B2
:100EC0000FFA88F08542F368B069B8BFA8460FFAF8
:100ED00088F207EB0A01184400F016FAB1690FFA1C
:100EE00088F00144B161281A706280E0BAF1610FA4
:100EF00014D14FF0700A16E0A84504DA96F83810BD
:100F00000A0758BF45466D1E48BF0025BAF1670F56
:100F100014BF4FF0450A4FF0650A04E0BAF1410FE3
:100F200008BF4FF0500AB169F368481CB061002D4A
:100F300017F8012B5A5403DC96F838100A071BD512
:100F4000F168431CB36101F80090002D14DDA8F195
:100F500001080FFA88F039468542F768B8BFA846FD
:100F60000FFA88F2F81800F0CFF9B0690FFA88F19B
:100F700008446D1AB0617562F068B1690844002CCC
:100F800080F800A003D42B224270811C03E02D21A5
:100F900041706442811C00206A460AE023460A240C
:100FA00093FBF4F404EB8405A3EB450302F8013B47
:100FB000401C24B2002CF1DC012806DC4AF020029F
:100FC000652A04BF302201F8012B48B9302001F80E
:100FD000010B07E0401E1DF80030303301F8013BE3
:100FE0000028F7DCF268B0691044091AF16196F83C
:100FF000380000F0140010280DD17269B169706AD0
:101000008A18F1698218B06A8A188218706B824255
:10101000BCBF821A326204B0BDE8F087F8B505465D
:101020000E4617461C46002074B117F8011BB06825
:10103000A847B06030B1F06A401CF0620020641E26
:10104000F3D1F2BD4FF0FF30F2BD00007072696E57
:1010500074665F733A20256E20646973616C6C6FEF
:10106000776564007072696E74663A20626164200C
:10107000256E20617267756D656E74007072696EA1
:1010800074665F733A206261642025732061726721
:10109000756D656E740000007072696E74665F73C2
:1010A0003A2062616420256C7320617267756D65FA
:1010B0006E74000000000000000000006E616E0011
:1010C0004E414E00696E6600494E46003000F0B455
:1010D0000246106895681318506803EB5004C00767
:1010E0001DD54D441BE013F8017B05F8017B491E1B
:1010F000F9D1A0B1B60813F8011B06F00306032EC0
:1011000008BF13F8016B01EB06214942801C2944FA
:1011100005D011F8016B05F8016B401EF9D1A3420F
:101120000ED013F8016B16F0030104BF13F8011B76
:10113000C91C30090F28DAD113F8010B0F30D6E79C
:10114000F0BC02F10C0070471B48704770B4536844
:10115000D418042B09DA41B1057804F8015B10F8C2
:10116000016B16B15B1C491EF3E7536070BC7047FE
:1011700038B514461D4661B1FFF7E8FF61686A6B38
:10118000204690476FF00102811A02D0491E01D01B
:1011900001E003E005E00021616032BD6FF0010075
:1011A00032BD4FF0FF3032BDDA6B1047024BDFE744
:1011B000014BF9E701487047640000202C00002033
:1011C000C9B202788A421AB11CBF10F8012FF9E7A0
:1011D00018BF0020704730B4002513E050F8042BEE
:1011E000D30744BFA9F101039A18091F042942F843
:1011F000045BFAD213468C0744BF15809B1CC907B9
:1012000048BF1D7050F8041B0029E7D130BC70475F
:1012100080B500B906A005490B681BB12222002148
:10122000984701E000F053FD222002BD1404002085
:10123000636F6E73747261696E742068616E646C42
:1012400065723A20626164206D6573736167650041
:1012500000F10103810704D010F8011B820781B15E
:10126000FAD10268A2F10131914311F0803104BF3B
:1012700050F8042FF6E709BAB1FA81F100EBD1007A
:10128000401CC01A7047B1F5807F02D34FF0FF3089
:1012900070470170012070470078401E8041C043B4
:1012A000C00F7047C9B2830706D0521E22D310F870
:1012B000013B9942F7D11FE0083A13D302F104022F
:1012C00041EA012141EA014150F8043B121F21BFCC
:1012D0004B40A3F1013C2CEA030C1CF0803FF3D0FF
:1012E000C9B2001F083210F8013B521E28BF91EA14
:1012F000030FF8D818BF0120401E704780B5FFF7D4
:1013000023FF006C02BD00004AB1000011F8013B50
:10131000521E00F8013B1CBF11F8013BF8E7704773
:10132000BBBBE1B1B2F5803F80F07E80022A1ED9BE
:101330008C46B1FBF2F102FB11C31B0443EA1043DC
:10134000B3FBF2FC02FB1C3380B240EA0343B3FB65
:10135000F2F002FB103240EA0C4000237047022AF0
:1013600005D98446B0FBF2F002FB10C270474AB1C7
:1013700005D100F0010249085FEA30007047002201
:101380000023704700F0A6BC0B00020000210020E3
:101390007047904271EB030CF6D3B3F5803F2FD228
:1013A000F0B5B3FA83F7B1FA81F4A7F10F0E3D1B44
:1013B0005340CEF1200602FA0EF2F3415340B5F14C
:1013C0000F0746D80F3C2C444140C4F12006A040F2
:1013D000F1414140B1FBF3F603FB1611A2FB0645B8
:1013E000001BA94102D2761E8018594180EA0102F1
:1013F00021FA0EF362FA0EF200215A403046F0BD97
:1014000030B4B1FBF3FC03FB1C11A2FB0C45001B29
:10141000A94103D2ACF1010C8018594130BC0246FD
:101420000B46604600217047B2F1807F65D3F0B56E
:10143000B2FA82F7B1FA81F4C7F10F063D1B22FA26
:1014400006F307F1110EF24120355A40B5F10F07AE
:10145000B8D94140C4F12006A040F1414140B1FB60
:10146000F3FC03FB1C11A2FB0C45001BA94103D29A
:10147000BCF1010C801859410F2F12D30F3FC90343
:1014800041EA5041B1FBF3F603FB1611A2FB0645FE
:10149000D4EBC030A94102D2761E8018594146EAE9
:1014A000CC3C07B34140C7F12006B840F141414070
:1014B000B1FBF3F603FB1611A2FB0645001BA94185
:1014C00002D2761E8018594180EA010221FA0EF3F9
:1014D000C7F1200462FA0EF20CFA07F05A402CFA17
:1014E00004F13043F0BD80EA010221FA0EF300213D
:1014F00062FA0EF260465A40F0BD8C46B1FBF2F142
:1015000002FB11C31B0243EA1063B3FBF2FC02FBB4
:101510001C331B024CEA002043EA1063B3FBF2FCCD
:1015200002FB1C331B024CEA002043EA1063B3FBAE
:10153000F2FC02FB1C331B024CEA002043EA10635E
:10154000B3FBF2FC02FB1C324CEA00200023704784
:10155000B0B581EA030C0CF0004C40F2FF7515EABF
:1015600011541DBF15EA1357AC42AF4239E0E419DC
:1015700023EA455343F48013C90241F0004141EA94
:10158000505EC7021100A7FB020200284FF00000C6
:10159000EEFB01204FF00001E3FB072118BF42F0F2
:1015A0000102401800214941E3FB0E01A4F58064CB
:1015B0000F0302D252004041494154F101046CDD55
:1015C000470872F1004250F1000051EB0451A1F5BF
:1015D00080115CBF41EA0C01B0BD4CEA055100200E
:1015E000B0BD05EA1357AC4214BFAF4241E050EA28
:1015F000410E1CBF52EA430E02E061460020B0BD1E
:1016000024423C441BD15FEA070EF6D0090302BF17
:1016100001460020AEF1140EB1FA81F7AEEB0704DB
:1016200001FA07FE0C37C7F1200100FA07F7C8409E
:101630004EEA000E23EA455343F48013A2E733F049
:101640000043B3FA83F704BFB2FA82FE77440B3F3C
:10165000E41BB7F1200E2FBF02FA0EF3BB40C7F117
:10166000200E22FA0EFE38BF43EA0E03BA40641C75
:1016700082E750EA410E14BF52EA430E6FF00001B8
:101680004FF4001717EB430F8ABF194617EB410FB2
:10169000B5E74CEA05510020B0BDD4F10104B4F126
:1016A00020070FDAC4F12007520828BF42F00102D8
:1016B00010FA07F501FA07F7E1BF2A43E040384383
:1016C000E1400FE0352C98DCC7F1200452EA4002DB
:1016D00020FA07F218BF42F0010231FA07F0A140E8
:1016E0000A43002172F1004250F1000051EB0C015D
:1016F000B0BD000010B5144600F002F8226010BD25
:10170000C1F30A5343B14A0012F5001F28D2A3F2D5
:10171000FE32A1EB0251704750EA410C20D001F09B
:10172000004C31EA0C01B1FA81F204BFB0FA80F347
:10173000D2180B3AB2F120032CBF00FA03F191400A
:1017400041EA0C013EBFC2F1200C20FA0CF3194310
:101750009040524240F2FD33D21A01EB03517047E0
:10176000002270474FF4001C1CEB410F94BF1CEB90
:10177000430F09E041EA030C50EA4C0C52EA0C0C0E
:1017800003D2994208BF9042704714BF8B428242F5
:10179000704700004FF4001C1CEB410F94BF1CEB82
:1017A000430F09E041EA030C50EA4C0C52EA0C0CDE
:1017B00003D28B4208BF8242704714BF99429042C5
:1017C00070470000124254D440F2FF7C1CEA1153CF
:1017D0000FD0634531D09B1863453CBF01EB0251EC
:1017E000704701F0004141EA0C510020AFF3008046
:1017F000704750EA410320D001F0004C91EA0C01FF
:101800001CD0B1FA81F30B3B9A420DD9D21A994000
:1018100051EA0C01C3F1200C20FA0CFC6144984001
:10182000531C40F2FF7CD7E7914041EA0C01C2F122
:10183000200C20FA0CF3194390407047B0FA80F363
:101840001533202BE0D3202AEED3203A203B9A42B6
:1018500009D9D21A00FA03F141EA0C010020531C05
:1018600040F2FF7CB8E700FA02F141EA0C010020E7
:101870007047524240F2FF7C1CEA11530DD0634581
:10188000DBD0B2EB030C3CBFA1EB025170470CF173
:10189000010221EA035141F4801150EA410CCCD0FD
:1018A00001F0004C352A27DC30B481EA0C01B2F19A
:1018B000200309DAC2F12003044601FA03F5D040FF
:1018C0002843D1409C400CE0C3F12002450020FA9F
:1018D00003F418BF44F0010421FA03F091400C43D3
:1018E000002174F1004550F1000051EB0C0124423D
:1018F00030BC7FF47BAF70476146002076E7000084
:10190000C1F30A5340F2FE329B1A14DDD3F12003D7
:101910004FEAE17208DDC90241EA505141F000404E
:10192000D84080185040704703F2E13010B1D243E4
:1019300082F000407047002070470000C11768B176
:101940004840401AB0FA80F29040D21CC907C2F554
:10195000846241EA025202EBD02140057047000048
:1019600070B44FF0004591EA030F40F1B5816B4030
:10197000841A71EB030603D2001BB14112197341A3
:101980004FF4001C1CEB410F34BF7CEB430442E0DE
:101990000C0DA4EB1356352E4FDC45EAC323DB0AAE
:1019A00045EAC121C912B6F120050DDD63FA05F63D
:1019B000EB4086EA0305124218BF45F00105C01846
:1019C00051F100010CD213E062FA06F5F2405540E5
:1019D000F3415A40B340F3405A408018594107D36D
:1019E00049085FEA30005FEA350528BF45F0010588
:1019F00001F58011420875F1004250F1000041EB01
:101A000004514E0016F5001F70BC38BF704700200F
:101A1000090D090570471CEB410F10D252EA43062D
:101A20000BD0BCEB410F05D80C0DAB43661E342E1A
:101A3000B6DD02E0AB438018594170BC704770BC02
:101A400070470000F0B540F2FF7581EA030C0CF01E
:101A5000004C15EA11541DBF15EA1357AC42AF42B2
:101A6000E5E0BC41C1F31301C3F31303801A9941AC
:101A700043F4801304D2641E400049418018594148
:101A8000C90241EA5051B1FBF3F603FB1611A2FB68
:101A90000675D7EBC020A94102D2761E80185941A5
:101AA000C90241EA5051B1FBF3FE03FB1E11A2FB38
:101AB0000E75D7EBC020A94103D2AEF1010E8018FC
:101AC0005941890241EA9051760546EA8E2EB1FBD2
:101AD000F3F603FB1611A2FB0675D7EB8020A94194
:101AE00002D2761E80185941C90241EA50514EEA8D
:101AF000060EB1FBF3F603FB1611A2FB0675D7EB3E
:101B0000C020A94102D2761E80185941C90241EA7B
:101B10005051B1FBF3F703FB1711A2FB0735D3EBD1
:101B2000C020A94167F100070CBF004247F0010740
:101B300066F3D5274FEA1E31B80814F5806412DD2C
:101B4000BD0775F1004250EB0E5051EB045111F5F9
:101B5000801F5CBF41EA0C01F0BD4CF07F6141F099
:101B6000E0410020F0BDBD076D0840EA0E5041F491
:101B70008011D4F10104B4F120060ADAC4F1200680
:101B80000200E04001FA06F3E1401843B240154379
:101B90000EE0342C13DCC6F1200445EA40056D0844
:101BA00020FA06F2154321FA06F0A1400D43002168
:101BB00075F1004250F1000051EB0C01F0BD002026
:101BC0005FEA0C01F0BDCFB992185B41B3FA83F71D
:101BD00004BFB2FA82F6BF190B3FB7F120062FBF40
:101BE00002FA06F3BB40C7F1200622FA06F638BF18
:101BF0003343BA401CB1E419641E33E77F4231F02D
:101C00000041B1FA81F404BFB0FA80F6A4190B3C8C
:101C1000B4F120062FBF00FA06F1A140C4F120065E
:101C200020FA06F638BF3143A0403C1B1AE7AC420D
:101C30001ABF05EA1357AF4212E050EA41061CBF33
:101C400052EA4306BFE750EA4107304661461CBFEF
:101C500041EA0551F0BD52EA430C08BFC143F0BD53
:101C600000204FF4001616EB410F98BF16EB430F00
:101C700008BF16EB410F24BFC14305E016EB430F2D
:101C80000CBF61464CEA0551F0BD0000400D4918FB
:101C900040EA81200CD2490DA1F58061491C40F039
:101CA000004005DBD1F11F0154BFC840C017704789
:101CB00000207047014648B1B0FA80F18840C91C45
:101CC000C1F58461090501EBD02140057047012071
:101CD00000F0B8B870470000841A71EB030604D214
:101CE0006E40001BB141121973414FF4001C1CEBF4
:101CF000410F34BF7CEB430683E00C0DA4EB13567D
:101D0000362E00F37C80012E45EAC32341DC43EAF2
:101D1000525312BFD20292025B08240545EAC12148
:101D200041EA5051D2EBC020994125D407D1B0FAF5
:101D300080F610FA06F162D00020203608E0B1FAF1
:101D400081F6B140C6F1200220FA02F21143B04000
:101D50004FEAF474B4EB465434F001064FEA7404CD
:101D60000AD8D6F50016760D04F00044F04061FA6A
:101D700006F25040F1404840C00A40EA415021F08C
:101D8000004128BF5FEA500550F1000044EBD1212B
:101D900035E0DB0A45EAC121C90AB6F120050EDDAE
:101DA00042EA0242120CC5F1200603FA06F6EB40A5
:101DB00042EA06056D42984161F100010DE062FAC8
:101DC00006F5F240554063FA06FC82EA0C02F34045
:101DD0005A406D42904161EB030111F4801F05D11F
:101DE000641E620502D06D004041494121F480111A
:101DF000430875F1004350F1000041EB045170BC01
:101E000070471CEB410F15D223F0004352EA430602
:101E10000BD04FEA4C0CBCEB410F04D80C0D661EE6
:101E2000342EB7DDEBE7801A994150EA410608BF2E
:101E30000021E4E708BF1CEB430F28BF6FF000014F
:101E4000DDE7000080B500F007F8024A1100182015
:101E5000ABBEFBE72600020080B500F054F802009C
:101E60000023DB431068984204D011000220ABBE6F
:101E7000002010605068984204D0111D0220ABBEB3
:101E80000020506001BD0000F0B583B0040000F0F8
:101E90003AF8A10047183D680026F643B54216D12E
:101EA00000F01AF83D68B5420FD100BF09A00090BC
:101EB000002C01D1002000E00420019003200290BA
:101EC00069460120ABBE05003D6000F014F8280013
:101ED00003B0F0BD3A7474000C480121BFF35F8F6A
:101EE000D0E84F3FC0E8421F002AF9D1BFF35F8F0F
:101EF000002BF3D170470548BFF35F8F00210170BD
:101F0000BFF35F8F70470248704700001C04002039
:101F1000A401002038B5040009D004F168056978EF
:101F200009B900F028F800F00DF8012801D10120CE
:101F300032BD606A08B100F023F800F014F821F017
:101F40002A0109E0242169702068026852085200C1
:101F50000260204600F016B9816000F014F8BDE878
:101F6000324000F05ABA2068416821F49041416043
:101F700020688168704700202870204600F051BB1F
:101F8000204600F0E7B92068016841F001010160D6
:101F90002046704710B500F150035C7E202C18D10C
:101FA00009B1140001D1012010BD1C7E012C10D0FC
:101FB00001241C76C1641A805A800021D961212233
:101FC0005A7619760068026842F0800202600020AA
:101FD00010BD022010BD30B500F158039C7C202CB0
:101FE0002ED109B1140001D1012030BD1C7C012C7F
:101FF00026D001251D7441651A805A80FF22816810
:10200000B1F5805F04D1016929B940F2FF1202E005
:1020100029B9016909B99A8001E07F2199800022DC
:102020005A61222199741A7401688A6842F0010287
:102030008A600068016841F490710160002030BD41
:10204000022030BD70B504462568E9692A6811F0A0
:102050000F0007D18B0605D5960603D52046BDE8AF
:1020600070408DE2AB68002863D0D80702D412F428
:10207000907F5ED0C80707D5D60505D50120286218
:10208000E56E45F00105E566880708D5DD0706D54C
:10209000266802203062E06E40F00400E0664807E7
:1020A00008D5DD0706D5266804203062E06E40F0D2
:1020B0000200E06608070AD5950601D4D80706D5C0
:1020C000256808232B62E06E40F00800E066E06EB1
:1020D00000284FD0880604D5910644BF204600F062
:1020E0004FFAE06E010703D42068816848061AD5CC
:1020F000204600F0F1F9206881684A060ED500F00C
:102100003AF858B10FF2ED314163606E00F0C8FA51
:1021100080B3606E416BBDE8704008472046BDE863
:10212000704000F0E2BA204600F0DFFA0020E066DE
:1021300070BDC8020ED55B020CD54FF4801028622A
:10214000202104F16900017041702046BDE8704013
:1021500000F0CCBA080605D5130603D52046BDE825
:102160007040CFE1480605D5510603D52046BDE8AD
:102170007040F8E170BD816821F040018160606EBF
:1021800070470000F8B50446694826683768A168BA
:10219000074020690F4361690743E0690F43074324
:1021A000376010227168E06821F44051014371608A
:1021B0000023B768A169206A27F4306700250F4320
:1021C0005C4907438E42B7605B480AD1006800F063
:1021D000030003283BD8DFE800F00226391401226F
:1021E00035E056498E420ED1006810F440304FD091
:1021F000B0F5803F17D0B0F5003F27D0B0F5403F95
:1022000025D1022223E04E498E420ED1006810F4FF
:1022100040203DD0B0F5802F05D0B0F5002F15D06F
:10222000B0F5402F10E0042211E046498E421FD144
:10223000006810F440102BD0B0F5801FF3D0B0F53B
:10224000001F03D0B0F5401FDBD000E00822E0699A
:10225000B0F5004F40D142B1012A1BD0022A1CD058
:10226000042A1FD0082A26D02CE000F063FC1BE0D3
:1022700035498E42EBD1006810F4400008D0B0F52B
:10228000800FD0D0B0F5000FE0D0B0F5400FDBE705
:102290000022DCE700F056FC06E060682B4901EB09
:1022A00050010CE000F028FC61684A0802EB400293
:1022B000B2FBF1F307E06068410801F58031B1FB42
:1022C000F0F300E001254FF6F0711940C3F342002E
:1022D00001432068C16029E042B1012A09D0022AE5
:1022E0000AD0042A0DD0082A16D01EE000F022FCE5
:1022F00009E000F027FC06E06068154901EB500199
:102300000EE000F0F9FB616800EB5100B0FBF1F06A
:10231000216880B2C86009E06068410801F50041A9
:10232000B1FBF0F080B2F06000E001252846F2BD7C
:10233000F369FFFF003801403010024000440040C4
:1023400000480040004C0040005000400024F400D1
:1023500000127A0090F82410CA0706D50268536864
:10236000816A23F400330B43536090F824108A07EA
:1023700006D502685368C16A23F480330B43536067
:1023800090F824104A0706D502685368016B23F4BD
:1023900080230B43536090F824100A0706D5026887
:1023A0005368416B23F400430B43536090F82410AF
:1023B000CA0606D502689368816B23F480530B43E9
:1023C000936090F824108A0606D502689368C16B62
:1023D00023F400530B43936090F824104A0610D561
:1023E00002685368016C23F480130B435360036C41
:1023F000B3F5801F05D15368416C23F4C0030B4330
:10240000536090F824100A0606D501684A68806C6B
:1024100022F4002202434A607047F8B5044604F1F2
:102420006805002068606FF07E4700F0BBFB064641
:10243000206801680A0708D50097334600224FF448
:102440000011204600F016F860B9206801684A07BC
:102450000AD50097334600224FF48001204600F051
:1024600009F808B10320F2BD20206870A870002090
:102470002870F2BD2DE9F041069C05460E469046B7
:102480001F462868C1693140B1420CBF01200020BD
:10249000404518D114F1010FF3D024B100F082FBB4
:1024A000C01B8442EDD22868016821F4D07101601C
:1024B00000F00CF805F168002021417081700021C6
:1024C0000170032000E00020BDE8F08128688168E9
:1024D000490849008160704701680A6822F49072D7
:1024E0000A6001688A68520852008A60202180F8D8
:1024F0006A107047406A00F1520100220A810A8086
:1025000000F0F3B810B500F15202D37D212B28D191
:10251000118851B901680A6822F080020A600068D7
:10252000016841F04001016019E08168B1F5805F08
:1025300004BF0169002909D1C16C04680B88C3F389
:1025400008032385C16C8B1CC36405E0C16C4B1C64
:10255000C3640068097801851188481E1080002036
:1025600010BD022010BD80B501680A6822F040024B
:102570000A60202180F8691000F01AFB002002BDDB
:1025800038B500F15A0201685388147C222C28D1F6
:102590008C8C8168B1F5805F04BF0169002906D188
:1025A000416D23400B80436D9C1C446504E0416DEC
:1025B0004D1C456523400B701188491E118089B25E
:1025C00069B901680B6823F490730B6001688B682C
:1025D0005B085B008B602021117400F0EBFA002097
:1025E00032BD886940F008008861022032BD0000D9
:1025F00080B52748274901604FF4165200230C216B
:1026000042608360C360036141618361C3610362AF
:102610004362FFF77FFC18B1BDE8014000F053BBF7
:1026200001BD38B586B0044601A8142100F05EFB58
:102630002468184DAC4229D11748816841F48021A3
:102640008160816801F4802100910099026842F460
:10265000801202604FF44071006800F48010009016
:10266000022200980D480191029200210391032259
:1026700007210591049201A900F03CFB00220021F2
:10268000272000F037FC272000F051FC07B030BDB8
:102690002C0200200048004014100240000C0048AA
:1026A00038B590F821100024022900F1340203D03B
:1026B00004205060012416E001680B6823F00E032B
:1026C0000B60012301680D686D086D000D60D16815
:1026D00095688B406B60012180F8211080F82040C4
:1026E000116801B18847204632BD7047704700002D
:1026F0002DE9F843040018D02078DFF85C54C107B6
:1027000040F1DB80686800F00C00042807D068689E
:1027100000F00C0008280AD16868C10307D500F052
:1027200063F93DD0606800282CD1012050E1606839
:10273000B0F5803F04D1286840F48030286014E070
:1027400008B928680AE0B0F5A02F286806D140F43F
:1027500080202860296841F4803105E020F4803031
:102760002860296821F480212960E86AA1680009AD
:1027700041EA0010E862606868B100F013FA0646AA
:1027800000F032F940F0998000F00CFA801B6528C7
:10279000F6D303201CE100F005FA064600F024F908
:1027A00000F08B8000F0FEF9801B6528F6D3F0E77F
:1027B00000F0F8F9C01B022840F2AE80E9E720697A
:1027C00070B10121316000F0EDF9074600F007F922
:1027D00040F08D8000F0E6F9C01B0228F6D9D8E75A
:1027E000306000F0DFF9074600F0F9F800F086806D
:1027F00000F0D8F9C01B0228F6D9CAE7086000F03B
:10280000D1F9074600F072F900F08A8000F0CAF9A9
:10281000C01B0228F6D9BCE708B9286A09E00528D8
:10282000286A06D140F004002862286A40F00100BE
:1028300005E0400840002862286A20F00400286271
:1028400041F28938E06870B100F0ACF98146286A3D
:1028500000F04DF940F0948000F0A4F9A0EB0900DD
:102860004045F4D395E700F09DF98146286A00F0D1
:102870003EF900F0858000F095F9A0EB0900404595
:10288000F4D386E700F08EF9C01B022840F28B805B
:102890007FE700F087F9001B022840F2948078E778
:1028A00000F0A7F8044600F095F800F0908000F0E2
:1028B00079F9001B0228F6D96BE72078DFF8A462CB
:1028C00081071BD5686810F00C0F09D0686800F00C
:1028D0000C0008287FF473AF6868C1033FF56FAF41
:1028E00000F07DF81CBF206901287FF41EAF286826
:1028F000616920F0F80040EAC100286020780107F3
:102900000ED5A069DFF8601200283FF477AF0122EE
:102910000A6000F047F9074600F0E8F83FF448AFD6
:102920002078410731D5E8690027C10009D4E8695A
:1029300040F08050E8610127E86900F08050009085
:102940000098DFF82882D8F80000C10513D4D8F821
:10295000000040F48070C8F8000000F023F98146C0
:10296000D8F80000C10506D400F01CF9A0EB09005E
:102970006528F5D30DE7E06801287FF44DAF54E7F3
:102980001FB1E86920F08050E861E069F8B169683A
:1029900001F00C0108293FF4C8AE02287FF480AF93
:1029A00000F027F8074600F015F87FF46BAF6A686F
:1029B000606A216A22F4741202430A436A600120A9
:1029C00000F018F8044600F005F83FF462AF00206C
:1029D000BDE8F2832868C0F340600028704728688B
:1029E000C0F34000002870472868C0F3404000282A
:1029F00070470020306600F0D5B82DE9F0410400A2
:102A0000884667D05A4E00F06CF802D200F064F8A5
:102A100060D12078504D810705D56A68A06822F002
:102A2000F00202436A602178C8074BD5616801292A
:102A300003D12868C0F3404004E00229286803D18C
:102A4000C0F3406018B945E000F051F842D0686822
:102A5000800841EA8001696000F0A4F807466868D0
:102A6000616800F00C00B0EB810F2BD000F09AF8F9
:102A7000C01B41F289318842F1D3032020E0207845
:102A8000410705D56A68E06822F4E06202436A60A3
:102A90002178080706D56968206921F4605141EA68
:102AA000C001696000F028F86968324AC1F3031177
:102AB000515C2A4AC8401060002000F063FA0020F0
:102AC000BDE8F081306800F007008045D7D200F003
:102AD00003F8D4D00120F3E73168C90848EAC101FE
:102AE0003160306800F0070040457047686AC0F305
:102AF000400000287047000010B51F490A6802F026
:102B00000C00082814D100BF1EA3C2F38340D203D7
:102B1000185C896A09D500BF1EA4114B01F00F0192
:102B2000625CB3FBF2F2504310BD1449484310BD40
:102B30000B4810BD1048094A0168114B1068C1F3D9
:102B4000022106E00C48054A01680D4B1068C1F3EC
:102B5000C221595CC8407047001002402800002084
:102B600000127A000000424280044242007000409D
:102B700000200240EC4500080410024000093D001E
:102B80000048000802030405060708090A0B0C0D9B
:102B90000E0F10100102030405060708090A0B0CAA
:102BA0000D0E0F1001484068704700BF1C00002048
:102BB00001E0000000BF484901200870704738B5A7
:102BC00000F000FA00F034F800F00EFA00F094FA89
:102BD00000F0F0FAFFF70CFD00F03CFB00F0CAFB40
:102BE000002000F02BFC3D4C3B4D01E000F01AF8BA
:102BF00000F06DF84FF4FA7000F066FC1622291D03
:102C00002046FFF7C7F908B100F05DF800F00AF8B8
:102C10001622291D2046FFF7DEF90028E6D000F035
:102C200052F8E3E728780128FCD100212970704789
:102C300010B59EB02A4C05A821462822FEF764FB59
:102C40006846142100F052F80FA804F128013C2234
:102C5000FEF75AFB002207924FF4803110220691B2
:102C60000A920D910B200590012302224FF4E011EE
:102C700009930B930C920E9105A8FFF739FD08B14B
:102C800000F021F8022101910F204FF480610090A3
:102C9000002203910292049202216846FFF7ADFEE2
:102CA00008B100F010F80022139216924FF400724F
:102CB0000C490F9110920FA800F01AFC08B100F017
:102CC00002F81EB010BD80B500F001F8FEE74FF429
:102CD0008071054800F0E2B8000000202C020020BE
:102CE000FC4500082400010000100048002200F00C
:102CF000DBBC00002DE9F84700266A4A0F23044692
:102D0000884632E0684DAC4214BF052504258D404D
:102D100045EA0E054CF82750C74364490D6800F09A
:102D2000B3F8ED0348BF40EA0C0CC1F800C04D6891
:102D300000F0AAF8AD0348BF40EA0C0CC1F804C08B
:102D40008D6800F0A1F8ED0248BF40EA0C0CC1F814
:102D500008C0CD6807EA050CD8F80470BD0248BF6A
:102D600040EA0C0CC1F80CC0761CD8F8001031FAFF
:102D700006F000F087800127B74017EA0100F3D082
:102D8000D8F80450B100022D18BF122D12D1F50849
:102D900004EB850C01F01C05DCF820E0D8F810A04D
:102DA00003FA05F92EEA090E0AFA05F545EA0E05B9
:102DB000CCF820504FEA460C4FF0030E256898F8E7
:102DC00004900EFA0CFE6FEA0E0E09F003090EEAEB
:102DD000050509FA0CF949EA05052560D8F80450FB
:102DE000012D18BF022D03D0112D18BF122D13D1A4
:102DF000A568D8F80C900EEA050509FA0CF949EA1D
:102E00000505A560656825EA0707D8F80450C5F3ED
:102E10000015B5402F436760E7680EEA0705D8F84C
:102E2000087007FA0CF73D43E560D8F80450EF004E
:102E30009AD51568DFF878C045F00105156001F0F6
:102E40000C01176807F00107009703FA01FE009FC5
:102E5000B7085CF8275025EA0E0EB4F1904F08BF72
:102E600000250ED0134DAC4208BF012509D0124DEC
:102E7000AC4208BF022504D0104DAC427FF442AFF3
:102E8000032544E7BDE8F18707EA050CD8F80450AC
:102E900070470AB181617047816270474269514051
:102EA00041617047181002400010004800040140C2
:102EB000080001400004004800080048000C0048D9
:102EC0000901020006D5294A00F00F00104400F85D
:102ED000041C7047264B19547047264B19684FF64F
:102EE000FF020002114000F4E06008432249084359
:102EF0001860704738B51F4B1C68C4F30223C3F138
:102F00000704052C28BF04241D1D072D34BF0023F2
:102F1000DB1E012505FA04F4641E2140994005FAE0
:102F200003F35B1E1A401143BDE83440C8E7012299
:102F300000F01F01114BFFE78A40400943F82020B1
:102F4000704710B5401EB0F1807F01D3012010BD45
:102F50000B4C60600F214FF0FF30FFF7B1FF0021F5
:102F6000A16007202060002010BD000018ED00E0E7
:102F700000E400E00CED00E00000FA0500E100E0F4
:102F800010E000E038B50D4D0D4B2A7804464FF4A3
:102F90007A711868B1FBF2F2B0FBF2F0FFF7D1FFE3
:102FA00050B9102C08D2002221464FF0FF30FFF715
:102FB000A1FFAC60002032BD012032BD1C0000200A
:102FC0002800002080B50748016841F01001016029
:102FD0000320FFF782FF0020FFF7D4FF00F07EFB05
:102FE000002002BD0020024038B586B0684614219A
:102FF000FFF77CFE3548046844F4001404604FF683
:1030000048350168324C01F40011059105990268B8
:1030100042F400220260036803F4002300F061F828
:1030200042F480020260036803F4800300F059F860
:1030300042F400320260036803F4003300F051F8F8
:1030400042F480220260036803F4802300F049F810
:1030500042F4801202600022006800F480100590A3
:10306000294605982046FFF714FF3720194900909C
:1030700000F033F869462046FFF73CFE012100F0DE
:103080002CF80392009569462046FFF733FE012095
:1030900000210090019102914FF090406946FFF7A6
:1030A00029FE00F019F8E020032100900391052289
:1030B00000F01BF800F010F84FF4C050032100900E
:1030C00003910E2200F011F807B030BD1410024039
:1030D000001000480000121002210191002202920B
:1030E00070470593059902687047049269464FF04E
:1030F0009040FFF7FFBD000010B5294C29482A4930
:10310000206000220120E0606160A26022616261B3
:10311000A261E2612262204600F0FAFA08B1FFF7EC
:10312000D2FD0021204600F04BFB08B1FFF7CBFD9C
:103130000021204600F059FB18B1BDE81040FFF710
:10314000C2BD10BD38B586B0044601A81421FFF7F2
:10315000CDFD2468134DAC4220D1144C206840F4BE
:10316000802020601222216801F480210091C0217A
:1031700000980F480191029201210391032204213A
:103180000591049201A9FFF7B5FDA06840F4001075
:10319000A060A06800F400100090009807B030BD57
:1031A000A0030020005400400E090020141002402B
:1031B0000004004838B586B001A81421FFF796FD39
:1031C000DFF8801022A425681F4C009521607F2025
:1031D0000022A060FF216260E16022616261A26161
:1031E000204600F02DFB08B1FFF76DFD0020ADF883
:1031F00004008DF8060004900590012201A92046E4
:1032000000F06BFB08B1FFF75EFD012119228DF87C
:1032100000108DF801108DF802108DF8032069461A
:103220000122204600F0BAFB08B1FFF74CFD07B0C1
:1032300030BD00680349884202D10448012202607F
:103240007047000000280040EC0300203C0442428C
:103250000000000080B54148414901604FF482728E
:103260004FF4E0614260C1600222012102614161CC
:103270004FF4802228218261C1610023802207212E
:103280008360026243628362C1620363436300F04E
:1032900037FC18B1BDE80140FFF715BD01BD38B5D9
:1032A00086B0044668461421FFF720FD24682C4DA3
:1032B000AC4251D12B48816841F4804181608168E2
:1032C00001F4804105910599026842F48002026090
:1032D000036803F4800305930599026842F4802291
:1032E0000260036803F4802305930599026842F4A1
:1032F000801202604FF40071006800F480100590A5
:10330000022205981848009101920021029103229F
:103310000521049103926946FFF7ECFC022101911B
:10332000002202924FF440400321009003910522B5
:10333000049269460D48FFF7DDFC0221019100224D
:1033400002924FF400400321009003910622049260
:1033500069460748FFF7CEFC07B030BD9C0200204D
:1033600000380040141002400014004800040048D7
:10337000000C004880B58CB0012240213D48FFF789
:1033800088FD0A2000F0A0F83CA10A680BA800F014
:1033900044F800BF3AA10A680AA800F03EF800BF4E
:1033A00038A10A6809A800F038F800BF36A10A68F9
:1033B00008A800F032F800BF34A10A6807A800F09E
:1033C0002CF800BF32A10A6806A800F026F800BF5A
:1033D00030A10A6805A800F020F800BF2EA10A68F5
:1033E00004A800F01AF800BF2CA10A6803A800F096
:1033F00014F800BF2AA10A6802A800F00EF800BF66
:1034000028A10A6801A800F008F800BF26A10A68F0
:10341000684600F002F80DB000BD0260FFE770B52D
:1034200004460025144E322301226119304600F073
:10343000BCFB6D1C032DF6DB70BD00001CB540010C
:10344000A0F18004E4B2214618A000F039FD1F214C
:1034500000228DF800108DF8012024098DF802401B
:103460004FF47A7300F001F813BD03226946024855
:1034700000F09BBB001000489C0200201F0A0300C4
:103480001F0900001F0600001F0E01001F09030096
:103490001F0B01001F0E06001F0605001F0A070074
:1034A0001F0803001F0F00001F01000053656C651B
:1034B0006374696E6720726F772077697468206122
:1034C0006464722025780A0038B50446FFF76AFB69
:1034D00014F1010F054602D0044801786418FFF783
:1034E00061FB401BA042FAD331BD00BF1C0000208D
:1034F0002DE9FC410546DFF8A4612868C10354D5D5
:10350000B0690024C10009D4B06940F08050B061B6
:103510000124B06900F0805000900098DFF88071BD
:103520003868C10519D4386840F480703860FFF7F6
:1035300039FB80463868C1050FD4FFF733FBA0EB99
:1035400008006528F6D30320A5E0FFF72BFBC01B7E
:1035500041F28931884218D3F5E7F06910F44070E0
:103560001EBF696801F44071884213D0DFF834113E
:10357000F06901220A60002320F440700B60F061C2
:10358000C00707D5FFF70EFB0746F069C0F3400000
:103590000028DAD0F169686821F440710143F161D3
:1035A0001CB1B06920F08050B0612878C10705D502
:1035B000F26AA868920840EA8202F26229788807D3
:1035C00005D5F16AE86821F440310143F1622978B8
:1035D000480705D5F16A286921F440210143F162C9
:1035E0002978880605D5F16AE86921F010010143C0
:1035F000F1622968880305D53168A86B21F4800140
:10360000014331602978480605D5F16A286A21F01E
:1036100020010143F1622978080705D5F16A68693C
:1036200021F440110143F1622978C80605D5F16AF9
:10363000A86921F440010143F1622968880505D594
:103640003168E86A21F400010143316029780806F5
:1036500005D5B16A686A21F4F8710143B16229683D
:10366000C80505D5B16AA86A21F478510143B16251
:103670002968C80405D5F16A286B21F480710143DB
:10368000F1622968880405D5F16A686B21F400713C
:103690000143F1620020BDE8F68100000410024001
:1036A000007000404004424200B500BF130096463F
:1036B0009446103928BFA0E80C50FAD85FEA417C44
:1036C00028BF0CC048BF40F8042BC90728BF20F80A
:1036D000022B48BF00F8012B00BD00000B4882B050
:1036E000016841F001010160026802F001020092EC
:1036F0000099426842F080524260406800F0805079
:1037000000900098072002B0FFF7E7BB18100240B6
:1037100038B5040001D1012032BD04F140056878BC
:1037200020B9002129702046FFF70CFD00F040F879
:103730006068216820F0706008612068816821F469
:1037400000418160E06821680128A0680CBF40F456
:10375000004040F404408860E068022803D12068FB
:103760004FF4006141602068416841F0007141F40C
:10377000004141602068C16821F40041C160606976
:103780002169A2690143206841EA0221C160206ADF
:10379000E1692268014311602068016841F001017C
:1037A000016000206860202169702063A87032BD2C
:1037B000242068702068016849084900016070474A
:1037C00030B500F140025378202B0CD11478012C35
:1037D00009D000F01DF824F480541C6003681D68B3
:1037E0002943196020E0022030BD30B500F14002CD
:1037F0005378202B0AD11478012C07D000F008F858
:1038000024F4706444EA01241C600DE0022030BD01
:10381000012313702424547003681D686D086D0023
:103820001D6003681C6870470068016841F0010171
:1038300001602020507000211170002030BD000078
:1038400070B5040031D0607F20B900212177204677
:10385000FFF7EFFC00F03BF853202168486200F0CE
:103860009BF8FF25E8B92168DFF8F8018A68024073
:103870008A60226893686668216960690E4306431E
:10388000334393602068E168016120680169A268A0
:1038900041EA0241016100F074F808D400F07AF8BE
:1038A00028B12068456204216177012070BD20683D
:1038B000016C21F48021016421680A6CA069024333
:1038C0000A64012021684D626077002070BD0220EB
:1038D0006077CA21226851627047F8B500F0BCF8E1
:1038E00001D10220F2BD00F0A3F82068806813D156
:1038F00041065CBF0020E870287800F0EDF806462D
:1039000000F0A8F8070200F0A2F847EA06470743CC
:10391000E87847EA004711E0410603D5287800F02F
:10392000E6F801E00020E8706F782978A8783F0277
:1039300047EA0147E978074347EA01472168CA2077
:10394000486253222068426200F026F8FF26B0B990
:103950002168DFF8140107400F602068826822F4B4
:103960008022826021688A68EB68286903431A43D1
:103970008A6000F006F803D400F00CF800B15DE0B6
:103980004FE02068C16821F08001C1602068816833
:103990008806704720466BE0204682E0F8B5044672
:1039A0000E46207F012801D10220F2BD00F040F830
:1039B00075782CD1E80603D505F0EF050A3575704A
:1039C000F07800F089F80746707800F085F8050275
:1039D000B07800F081F845EA07450543307845EABC
:1039E00040352068CA214162532221684A62FFF7AC
:1039F000D3FFFF2650B92168DFF8700005404D6005
:103A0000FFF7BFFF0DD4FFF7C5FF50B116E0F07808
:103A100031782D0245EA0045B078054345EA413545
:103A2000DFE7206846620121617700202077F2BD40
:103A30000120207702216177002A704720684662C2
:103A400004216177002020770120F2BD0602A878CA
:103A500042E0074668783FE004460D46207F012893
:103A600070470000BFFF8FFF7F7F7F003FFFFF0099
:103A700038B504462068C16821F0A001C160FFF795
:103A800091F805462068C168880608D4FFF78AF8CF
:103A9000401B40F2E9318842F4D3032032BD0020BC
:103AA00032BD38B504462068C1684A0612D44FF0CA
:103AB000FF31C160FFF776F805462068C168480607
:103AC00008D4FFF76FF8401B40F2E9318842F4D385
:103AD000032032BD002032BD002101E0491C0A381C
:103AE000C2B20A2AFAD240EA0110C0B270470109F4
:103AF0000A2200F00F0012FB0100C0B27047000064
:103B000070B5040001D1012070BD0020A06204F155
:103B10005C05687820B9002129702046FFF7BFFBBB
:103B20000220687000F0C4F9E168B1F5E06F04D9D3
:103B30000022B1F5706F03D104E04FF4805201D040
:103B40000020A062206B30B9B1F5E06F87BF022082
:103B50002063012121636368A0682169266803430B
:103B600060690B43A169034301F40071E0690B43F1
:103B7000216A0343A06A0B4303433360A369606A6D
:103B8000616B1B0C03F004030343E0680B43034326
:103B90001A4323685A602068C16921F40061C16139
:103BA000002068600121697070BD2DE9F84304466A
:103BB00004F144060027307E01280D4691469846C0
:103BC00008BF022000F0AA8001203076FEF7EAFF4D
:103BD000717E012918BF02274ED1290018BFB9F103
:103BE000000F00F0958003227276F761A163A4F8BC
:103BF0003C90A4F83E90276437807780F760B760E8
:103C0000A268B2F5004F04D12268136843F48043E0
:103C10001360226813685D0600F082F840F20175B7
:103C2000E3686268AB4228D3002A1CBFE28F012AF6
:103C300006D1226831F8023BD360E38F5A1EE28737
:103C40008946054605E039F8021BC160E08F411E38
:103C5000E187E08F002849D0206881688A07F2D484
:103C6000B8F1000F07D018F1010FF2D0FEF79AFF5C
:103C7000401B4045EDD303274BE0002A1CBFE28FD9
:103C8000012A09D12268E38F022B08D331F8025BA5
:103C9000D560E28F931EE387894605460BE011F855
:103CA000015B1573E28F531EF5E739F8021BC16003
:103CB000E08F811EE187E08FC0B1206881688A07AC
:103CC00008D5E18F0229F0D219F8012B0273E08F99
:103CD000411EEFE7B8F1000FCDD018F1010FEAD087
:103CE000FEF760FF401B4045E5D3C4E72A46414646
:103CF00000F01EF808B12020F061A06830B90097EC
:103D00002168CA68009289680091009AF06900B140
:103D1000012701207076002131763846BDE8F28314
:103D200003D4136843F040031360704702466421D4
:103D3000204600F0A2B82DE9F041069F05460E4648
:103D400090461C46286881683140B1420CBF012072
:103D50000020404530D014F1010FF3D024B1FEF71C
:103D600021FFC01BA042EDD32868416821F0E0018B
:103D700041606868B0F5827F0BD1A868B0F5004F4C
:103D800018BFB0F5806F04D12868016821F04001A8
:103D90000160A86AB0F5005F09D12868016821F4C4
:103DA000005101602868026842F40052026005F187
:103DB0005C0000F04FF800E00020BDE8F0812DE944
:103DC000FC41089F0646884614461D4630688168B7
:103DD00008EA0101A1423AD0B8F5C06F08BF002C33
:103DE00004D1007B8DF800009DF8001015F1010F43
:103DF000ECD025B1FEF7D6FEC01BA842E6D3306852
:103E0000416821F0E00141607068B0F5827F0BD11C
:103E1000B068B0F5004F18BFB0F5806F04D13068BE
:103E2000016821F040010160B06AB0F5005F09D17E
:103E30003068016821F4005101603068026842F482
:103E40000052026006F15C0000F004F800E000207F
:103E5000BDE8F68101214170002202700320704705
:103E600000962B4600228021204664E700962B46D0
:103E700000224FF4C0612046A1E77CB50D461646EE
:103E8000044600962B4600224FF4C051FFF797FFDF
:103E900028B9FFF7E5FF10B9FFF7E8FF08B100F018
:103EA00001F876BD206E40F02000206603207047A8
:103EB0002068016821F040010160704700000000A7
:103EC0000EB4C0B5024603A800210190009101ABD9
:103ED0000121044878440C30FCF756F906BC5DF823
:103EE00010FB00BFDF08000010B50446AFF30080F0
:103EF000204600F005F80446AFF30080204610BDD0
:103F000070B500F10F06F608F600B04240D2082E58
:103F100004D2082602E0083000F047F8DFF8045128
:103F20002C68210005D1002007E00268B24221D2AE
:103F3000011D08680028F8D12068291D0A688242FE
:103F400022D01368B34238BF111DF7D312E0931982
:103F50000B60801B54685C600B6818601660096811
:103F600000291DBF48680028081D0020286002F1B4
:103F7000080070BD61B10A681068A0F10803B3427F
:103F8000E5D250680860EAE700F04EF80028C2D198
:103F9000002070BD10B5040006D0AFF300802046AD
:103FA00000F003F8AFF3008010BD002800D1704787
:103FB00070B4A0F108021368072B2BD913F0070F78
:103FC00028D1184C616809B18A4202D251606260FE
:103FD00013E0486800B3904238BF0146F9D31BE0B4
:103FE000964203D11B180B600A4606E0486810B1E0
:103FF000134498420ED350604A60506850B1136821
:10400000D518854206D1002626600168CB181360BA
:104010004068506070BC704708680E18B242DFD22A
:1040200070BC70470C0400200749086808B10020E4
:1040300070470648C008C00008600549C908C900A3
:10404000091A0160704700BF1804002027080020EB
:10405000200A00202DE9F04107468846387810F004
:10406000030F16461D4633D0384600F099F878BB4A
:10407000B8F1000F1CBFD8E900018619012D2ED11F
:104080003888C10415D5396A07F14402384600F072
:10409000A3F83A6B044602B93A69F968384600F069
:1040A0009BF8361B341A7A69F968384600F094F8A0
:1040B000261A1EB94DB916F1010F09D097F9030060
:1040C0002A46314600F08EF8064616F1010F09D156
:1040D0002320AFF300804FF0FF30BDE8F081022DC8
:1040E000E8D1EBE7388810F4405F0ED07868F860CC
:1040F00038617861B86107F144017868F861396224
:1041000007F13000002178623963B8F1000F05D063
:10411000D8E9020107F13402C2E900013B884CF6FC
:10412000FF6003403B800020BDE8F08170B505468C
:10413000AFF300802888810415D56E680024EA68F2
:1041400095F903003146914212D2521A00F06FF8ED
:1041500010F1010F1CBF00283618F0D10FE04DF60A
:10416000FF70014029802846AFF30080002070BD19
:104170000022002100F05BF810F1010F00D10124B2
:104180006868E860A861E861002C2988E7D041F4FC
:10419000007129802846AFF300804FF0FF3070BDDA
:1041A000F8B5A0B9AFF3008000250A4E08244FF0FF
:1041B000FF37306820B1FFF7B9FF002848BF3D4600
:1041C000361D641EF5D1AFF300802846F2BDBDE870
:1041D000F240ABE784010020914234BF511A002124
:1041E000084670473EB504000D00012A02D100F0D8
:1041F0006BF807E0022A07D100940020019069467D
:104200000C20ABBE2D1801E0002A0CD100940195C2
:1042100069460A20ABBE002805D1002221002800F3
:1042200000F02FF801E00020C04303B030BD80B59E
:10423000002802D400F06AF802BD002002BD000090
:1042400010B4314A002113461C6884421EBF491C29
:104250009C6884421EBF491C1C69844209D09C6929
:10426000491C844205D0491C20331029ECD310BCD2
:104270007047002342F8313002EBC1014B6010BCA3
:10428000704770B4204C002325462E688E421EBF16
:104290005B1CAE688E421EBF5B1C2E698E4209D02D
:1042A000AE695B1C8E4205D05B1C2035102BECD315
:1042B00070BC7047054604EBC303012A04BF59686C
:1042C0004D195D6070BC704710B40F4A0021134651
:1042D0001C6884421EBF491C9C6884421EBF491C46
:1042E0001C6984420AD09C69491C844206D0491C3E
:1042F00020331029ECD310BC0020704702EBC10022
:10430000406810BC70470000AC01002080B5002957
:1043100001D1002002BD012801D0022802D100F005
:1043200004F802BD00F011F802BD30B583B00C00F6
:1043300015000120FDF7A8FD009001940295694643
:104340000520ABBE281A03B030BD18B583B00300FA
:10435000140000930191029469460520ABBE01222E
:104360001900201AFFF78DFF04B010BD10B50446E8
:10437000E068A169884251D3218849F202030B40C9
:10438000022B08D008044CBF4FF400704FF4844057
:10439000014321803BE001F4C042B2F5C04F06D199
:1043A000A168884203D32046FFF7FAFE78BB208835
:1043B00010F4406F02BF606804F14401884217D1D5
:1043C0004FF40070FFF790FD606030B904F14400D5
:1043D0006060E060401CA0600AE0218841F040017C
:1043E0002180E060606100F500726068A260E061B9
:1043F0006068A1682061A161207841070AD5022286
:104400000021204600F00CF810F1010F02D14FF00E
:10441000FF3010BD208840F4C0402080002010BD37
:1044200070B504460D461646AFF3008033462A4663
:1044300000212046FFF70EFE05462046AFF3008020
:10444000284670BD18B401780A0627D51F4A13689C
:104450000021834203D1002442F821401BE053682D
:10446000012183421EBF022193688342F3D0D368A7
:10447000032183421EBF042113698342EBD0536999
:10448000052183421EBF0621936983421EBF072177
:10449000D3698342DFD012BC00F01AB8002101803A
:1044A0004FF0FF3200F14401C270C1604161C1614F
:1044B00000F1440300F1440200F130014360026165
:1044C00082610262416211BC7047000084010020D9
:1044D000FFF760BD38B504000ED0207810F0030F50
:1044E00003D094F90300002809D5AFF300802046DB
:1044F000FFF7A8FFAFF300804FF0FF3032BD20463A
:10450000FFF74EFE0546AFF300802078410644BF1A
:104510006068FFF7DDFF0020606094F90300022867
:1045200004D900F016F808B14FF0FF35E06B48B140
:1045300000F01BF808B14FF0FF35E06BFFF7C8FF44
:104540000020E0632046FFF77DFFAFF300802846A0
:1045500032BD1CB50200009269460220ABBE0400C9
:104560001000FFF76DFE200016BDE0B50090FCF7CF
:104570006FFE019069460E20ABBE03B000BD000087
:1045800010B51448144A016841F4700101601068C4
:10459000124940F001001060536811480B4053600D
:1045A0000023146804401460116821F48021116014
:1045B000506820F4FE005060D06A00090001D0620B
:1045C000116B08480140116393604FF00060064989
:1045D000086010BD88ED00E0001002400CC07FF8BC
:1045E000FFFFF6FECCFC00FF08ED00E0000000003D
:1045F0000000000001020304060708090000000093
:1046000000000000000000000000000000000000AA
:10461000000000000000000000000000000000009A
:10462000000000000000000000000000000000008A
:10463000000000000000000000000000000000007A
:10464000000000000000000000000000000000006A
:10465000000000000000000000000000000000005A
:1046600038B50C46C5B22046AFF30080E068A169BA
:10467000884204D32046FFF779FE00280FD4E06873
:10468000401CE06000F8015D2088010503D440056E
:104690000BD50A2D09D12046FFF782FD28B120460F
:1046A000AFF300804FF0FF3032BD2046AFF3008003
:1046B000284632BD38B50D4D0824286800281CBF97
:1046C000017811F0030F05D090F90310002958BFAD
:1046D000FFF700FF2D1D641EEFD1BDE8384000221A
:1046E00000214FF0FF30FFF7A2BD00BF8401002082
:1046F00010B5074979441831064C7C44163404E05F
:104700000A68081D114488470146A142F8D110BD2E
:104710002C000000480000004EF68851CEF2000147
:10472000086840F470000860BFF34F8FBFF36F8FCD
:104730004FF00070E1EE100A704700009BCAFFFFC7
:1047400074020000AC0100200000000083C9FFFFDC
:10475000C40100004C010000000000207047FEE78B
:10476000FEE7FEE7FEE770477047704700F006B8C7
:104770000148FDF767BC00002C0200200248416898
:1047800002788A18426070471C00002000F00DF883
:10479000002801D0FFF7ACFFAFF300800020AFF39B
:1047A0000080FEF70CFA00F002F80120704700F0DC
:1047B00001B800000746FFF77DFF3846FDF742FBD2
:1047C000FBE738B504460D46284600F005F8A84238
:1047D00018BF0024204632BD0149FFF741BF00BF8A
:1047E000F400002001488047014800478145000847
:1047F000F5470008AFF30080FFF78EFFFFF7C6FF15
:10480000000000000102030400002E004300FFF737
:10481000FEBFFFF7FEBFFFF7FEBFFFF7FEBFFFF7CC
:10482000FEBFFFF7FEBFFFF7FEBFFFF7FEBFFFF7BC
:10483000FEBFFFF7FEBFFFF7FEBFFFF7FEBFFFF7AC
:10484000FEBFFFF7FEBFFFF7FEBFFFF7FEBFFFF79C
:10485000FEBFFFF7FEBFFFF7FEBFFFF7FEBFFFF78C
:10486000FEBFFFF7FEBFFFF7FEBFFFF7FEBFFFF77C
:10487000FEBFFFF7FEBFFFF7FEBFFFF7FEBFFFF76C
:10488000FEBFFFF7FEBFFFF7FEBFFFF7FEBFFFF75C
:10489000FEBFFFF7FEBFFFF7FEBFFFF7FEBFFFF74C
:1048A000FEBFFFF7FEBFFFF7FEBFFFF7FEBFFFF73C
:1048B000FEBFFFF7FEBFFFF7FEBFFFF7FEBFFFF72C
:1048C000FEBFFFF7FEBFFFF7FEBFFFF7FEBFFFF71C
:1048D000FEBFFFF7FEBFFFF7FEBFFFF7FEBFFFF70C
:1048E000FEBFFFF7FEBFFFF7FEBFFFF7FEBFFFF7FC
:1048F000FEBFFFF7FEBFFFF7FEBFFFF7FEBFFFF7EC
:10490000FEBFFFF7FEBFFFF7FEBFFFF7FEBFFFF7DB
:10491000FEBF0000120001401848656C6C6F205704
:104920006F726C6420696E746572727570742100A8
:1049300000010001221008F00507127A0008480063
:10494000080452FF01F2000A14100100000C0C21AF
:104950004CF003162C0000200001200299120008E0
:104960002C4387123C2101100301040000F0441283
:10497000F10452F004211BA108F212DC64100702BA
:1049800004010150030020A00452500421346108A6
:10499000F0041238010020240148600208020200DD
:1049A00040610421015108128044F2126C4812AC9B
:0A49B000B412F404F2063C2C655C1E
:04000005080047F5B3
:00000001FF
