:020000040800F2
:1000000070050020811E0008091E00080B1E000854
:100010000D1E00080F1E0008111E00080000000041
:10002000000000000000000000000000131E000897
:10003000151E000800000000171E0008191E000809
:10004000A51E0008A91E0008AD1E0008B11E00086C
:10005000B51E0008B91E0008BD1E0008C11E00081C
:10006000C51E0008C91E0008CD1E0008D11E0008CC
:10007000D51E0008D91E0008DD1E0008E11E00087C
:10008000E51E0008E91E0008ED1E0008F11E00082C
:10009000F51E0008F91E0008FD1E0008011F0008DB
:1000A000051F0008091F00080D1F0008111F000888
:1000B000151F0008191F00081D1F0008211F000838
:1000C000251F0008291F00082D1F0008311F0008E8
:1000D000351F0008391F00083D1F00081D1E0008BD
:1000E000411F0008451F0008491F00084D1F000858
:1000F000511F0008551F0008591F00085D1F000808
:10010000000000000000000000000000611F000867
:10011000651F0008691F00086D1F0008711F000897
:10012000751F0008791F00087D1F0008811F000847
:10013000851F0008891F0008000000000000000063
:100140008D1F0008911F0008951F00080000000087
:10015000000000000000000000000000000000009F
:100160000000000000000000991F00089D1F00080B
:10017000A11F0008000000000000000000000000B7
:1001800000000000A51F000838B5040009D004F1E4
:100190006805697809B900F028F800F00DF8012821
:1001A00001D1012032BD606A08B100F023F800F0EF
:1001B00014F821F02A0109E02421697020680268FE
:1001C000520852000260204600F016B9816000F02B
:1001D00014F8BDE8324000F05ABA2068416821F4B2
:1001E0009041416020688168704700202870204657
:1001F00000F06DBB204600F0E7B92068016841F0CF
:10020000010101602046704710B500F150035C7E8B
:10021000202C18D109B1140001D1012010BD1C7E81
:10022000012C10D001241C76C1641A805A80002150
:10023000D96121225A7619760068026842F080025C
:100240000260002010BD022010BD30B500F158033F
:100250009C7C202C2ED109B1140001D1012030BD8D
:100260001C7C012C26D001251D7441651A805A8002
:10027000FF228168B1F5805F04D1016929B940F29C
:10028000FF1202E029B9016909B99A8001E07F21D2
:10029000998000225A61222199741A7401688A682F
:1002A00042F001028A600068016841F490710160C7
:1002B000002030BD022030BD70B504462568E969D4
:1002C0002A6811F00F0007D18B0605D5960603D5D5
:1002D0002046BDE870408DE2AB68002863D0D807A7
:1002E00002D412F4907F5ED0C80707D5D60505D595
:1002F00001202862E56E45F00105E566880708D50E
:10030000DD0706D5266802203062E06E40F004006A
:10031000E066480708D5DD0706D526680420306268
:10032000E06E40F00200E06608070AD5950601D4A9
:10033000D80706D5256808232B62E06E40F0080038
:10034000E066E06E00284FD0880604D5910644BFD1
:10035000204600F04FFAE06E010703D42068816860
:1003600048061AD5204600F0F1F9206881684A064F
:100370000ED500F03AF858B10FF2ED314163606EDE
:1003800000F0E4FA80B3606E416BBDE8704008474E
:100390002046BDE8704000F0FEBA204600F0FBFAAF
:1003A0000020E06670BDC8020ED55B020CD54FF48C
:1003B00080102862202104F16900017041702046FC
:1003C000BDE8704000F0E8BA080605D5130603D56D
:1003D0002046BDE87040CFE1480605D5510603D55B
:1003E0002046BDE87040F8E170BD816821F0400111
:1003F0008160606E70470000F8B504466948266861
:100400003768A168074020690F4361690743E069C5
:100410000F430743376010227168E06821F44051B0
:10042000014371600023B768A169206A27F430672F
:1004300000250F435C4907438E42B7605B480AD1F1
:10044000006800F0030003283BD8DFE800F0022634
:100450003914012235E056498E420ED1006810F45D
:1004600040304FD0B0F5803F17D0B0F5003F27D0D7
:10047000B0F5403F25D1022223E04E498E420ED1F5
:10048000006810F440203DD0B0F5802F05D0B0F5C5
:10049000002F15D0B0F5402F10E0042211E046499E
:1004A0008E421FD1006810F440102BD0B0F5801F91
:1004B000F3D0B0F5001F03D0B0F5401FDBD000E053
:1004C0000822E069B0F5004F40D142B1012A1BD0AB
:1004D000022A1CD0042A1FD0082A26D02CE000F0C3
:1004E0007FFC1BE035498E42EBD1006810F44000E0
:1004F00008D0B0F5800FD0D0B0F5000FE0D0B0F547
:10050000400FDBE70022DCE700F072FC06E06068E9
:100510002B4901EB50010CE000F044FC61684A08F3
:1005200002EB4002B2FBF1F307E06068410801F51D
:100530008031B1FBF0F300E001254FF6F071194076
:10054000C3F3420001432068C16029E042B1012A9F
:1005500009D0022A0AD0042A0DD0082A16D01EE09B
:1005600000F03EFC09E000F043FC06E0606815493D
:1005700001EB50010EE000F015FC616800EB51004A
:10058000B0FBF1F0216880B2C86009E06068410802
:1005900001F50041B1FBF0F080B2F06000E0012510
:1005A0002846F2BDF369FFFF0038014030100240D9
:1005B0000044004000480040004C00400050004013
:1005C0000024F40000127A0090F82410CA0706D51F
:1005D00002685368816A23F400330B43536090F838
:1005E00024108A0706D502685368C16A23F4803351
:1005F0000B43536090F824104A0706D502685368ED
:10060000016B23F480230B43536090F824100A07F6
:1006100006D502685368416B23F400430B435360D3
:1006200090F82410CA0606D502689368816B23F4FB
:1006300080530B43936090F824108A0606D5026815
:100640009368C16B23F400530B43936090F824101C
:100650004A0610D502685368016C23F480130B43DB
:100660005360036CB3F5801F05D15368416C23F4CC
:10067000C0030B43536090F824100A0606D50168A6
:100680004A68806C22F4002202434A607047F8B541
:10069000044604F16805002068606FF07E4700F0B2
:1006A000D7FB0646206801680A0708D5009733463D
:1006B00000224FF40011204600F016F860B92068BF
:1006C00001684A070AD50097334600224FF480019B
:1006D000204600F009F808B10320F2BD2020687020
:1006E000A87000202870F2BD2DE9F041069C054657
:1006F0000E4690461F462868C1693140B1420CBF82
:1007000001200020404518D114F1010FF3D024B18D
:1007100000F09EFBC01B8442EDD22868016821F4E2
:10072000D071016000F00CF805F1680020214170E3
:10073000817000210170032000E00020BDE8F081FD
:1007400028688168490849008160704701680A6823
:1007500022F490720A6001688A68520852008A6026
:10076000202180F86A107047406A00F1520100228F
:100770000A810A8000F00FB910B500F15202D37D52
:10078000212B28D1118851B901680A6822F0800212
:100790000A600068016841F04001016019E0816869
:1007A000B1F5805F04BF0169002909D1C16C0468FB
:1007B0000B88C3F308032385C16C8B1CC36405E05D
:1007C000C16C4B1CC3640068097801851188481E00
:1007D0001080002010BD022010BD80B501680A689D
:1007E00022F040020A60202180F8691000F036FBF8
:1007F000002002BD38B500F15A0201685388147C0C
:10080000222C28D18C8C8168B1F5805F04BF0169EE
:10081000002906D1416D23400B80436D9C1C44652B
:1008200004E0416D4D1C456523400B701188491E45
:10083000118089B269B901680B6823F490730B6069
:1008400001688B685B085B008B602021117400F0ED
:1008500007FB002032BD886940F008008861022053
:1008600032BD30B4002513E050F8042BD30744BF49
:10087000A9F101039A18091F042942F8045BFAD26E
:1008800013468C0744BF15809B1CC90748BF1D70C9
:1008900050F8041B0029E7D130BC704780B52748C9
:1008A000274901604FF4165200230C2142608360F7
:1008B000C360036141618361C36103624362FFF707
:1008C00063FC18B1BDE8014000F048BB01BD38B57C
:1008D00086B0044601A8142100F052FB2468184D8C
:1008E000AC4229D11748816841F480218160816838
:1008F00001F4802100910099026842F480120260A4
:100900004FF44071006800F48010009002220098BB
:100910000D480191029200210391032207210591C4
:10092000049201A900F030FB00220021272000F0F2
:100930002BFC272000F045FC07B030BD2C00002028
:100940000048004014100240000C004838B590F8F0
:1009500021100024022900F1340203D00420506049
:10096000012416E001680B6823F00E030B600123DD
:1009700001680D686D086D000D60D16895688B4049
:100980006B60012180F8211080F82040116801B1CE
:100990008847204632BD7047704700002DE9F84374
:1009A000040018D02078DFF85C54C10740F1DB80E8
:1009B000686800F00C00042807D0686800F00C009C
:1009C00008280AD16868C10307D500F063F93DD053
:1009D000606800282CD1012050E16068B0F5803FAC
:1009E00004D1286840F48030286014E008B92868F1
:1009F0000AE0B0F5A02F286806D140F480202860D6
:100A0000296841F4803105E020F4803028602968AD
:100A100021F480212960E86AA168000941EA0010F8
:100A2000E862606868B100F013FA064600F032F937
:100A300040F0998000F00CFA801B6528F6D3032063
:100A40001CE100F005FA064600F024F900F08B8066
:100A500000F0FEF9801B6528F6D3F0E700F0F8F906
:100A6000C01B022840F2AE80E9E7206970B1012185
:100A7000316000F0EDF9074600F007F940F08D8095
:100A800000F0E6F9C01B0228F6D9D8E7306000F084
:100A9000DFF9074600F0F9F800F0868000F0D8F999
:100AA000C01B0228F6D9CAE7086000F0D1F9074652
:100AB00000F072F900F08A8000F0CAF9C01B022829
:100AC000F6D9BCE708B9286A09E00528286A06D1E2
:100AD00040F004002862286A40F0010005E0400868
:100AE00040002862286A20F00400286241F2893818
:100AF000E06870B100F0ACF98146286A00F04DF969
:100B000040F0948000F0A4F9A0EB09004045F4D334
:100B100095E700F09DF98146286A00F03EF900F063
:100B2000858000F095F9A0EB09004045F4D386E7F5
:100B300000F08EF9C01B022840F28B807FE700F0A6
:100B400087F9001B022840F2948078E700F0A7F8AC
:100B5000044600F095F800F0908000F079F9001B51
:100B60000228F6D96BE72078DFF8A46281071BD54D
:100B7000686810F00C0F09D0686800F00C000828B5
:100B80007FF473AF6868C1033FF56FAF00F07DF885
:100B90001CBF206901287FF41EAF2868616920F01E
:100BA000F80040EAC1002860207801070ED5A0694E
:100BB000DFF8601200283FF477AF01220A6000F0EE
:100BC00047F9074600F0E8F83FF448AF20784107BE
:100BD00031D5E8690027C10009D4E86940F08050A8
:100BE000E8610127E86900F0805000900098DFF884
:100BF0002882D8F80000C10513D4D8F8000040F4CA
:100C00008070C8F8000000F023F98146D8F8000091
:100C1000C10506D400F01CF9A0EB09006528F5D346
:100C20000DE7E06801287FF44DAF54E71FB1E86994
:100C300020F08050E861E069F8B1696801F00C01CA
:100C400008293FF4C8AE02287FF480AF00F027F8EF
:100C5000074600F015F87FF46BAF6A68606A216A96
:100C600022F4741202430A436A60012000F018F86B
:100C7000044600F005F83FF462AF0020BDE8F283BF
:100C80002868C0F34060002870472868C0F340001F
:100C9000002870472868C0F34040002870470020B3
:100CA000306600F0D5B82DE9F0410400884667D0E1
:100CB0005A4E00F06CF802D200F064F860D120784F
:100CC000504D810705D56A68A06822F0F002024302
:100CD0006A602178C8074BD56168012903D128686B
:100CE000C0F3404004E00229286803D1C0F340600B
:100CF00018B945E000F051F842D06868800841EA30
:100D00008001696000F0A4F807466868616800F037
:100D10000C00B0EB810F2BD000F09AF8C01B41F211
:100D200089318842F1D3032020E02078410705D59E
:100D30006A68E06822F4E06202436A60217808078A
:100D400006D56968206921F4605141EAC0016960F3
:100D500000F028F86968324AC1F30311515C2A4A4D
:100D6000C8401060002000F057FA0020BDE8F08174
:100D7000306800F007008045D7D200F003F8D4D0E7
:100D80000120F3E73168C90848EAC10131603068E1
:100D900000F0070040457047686AC0F34000002833
:100DA0007047000010B51F490A6802F00C000828BF
:100DB00014D100BF1EA3C2F38340D203185C896A1A
:100DC00009D500BF1EA4114B01F00F01625CB3FBFB
:100DD000F2F2504310BD1449484310BD0B4810BDFA
:100DE0001048094A0168114B1068C1F3022106E05E
:100DF0000C48054A01680D4B1068C1F3C221595CCB
:100E0000C8407047001002402800002000127A00FD
:100E10000000424280044242007000400020024034
:100E2000CC1C00080410024000093D009C1E000874
:100E300002030405060708090A0B0C0D0E0F10101B
:100E40000102030405060708090A0B0C0D0E0F101A
:100E500001484068704700BF1C00002001E000000E
:100E600000BF424901200870704738B500F0F4F91E
:100E700000F029F800F002FA00F07CFA00F0D8FA4D
:100E800000F026FBFFF70AFD394C384D01E000F079
:100E900014F81622291D2046FFF7B6F908B100F014
:100EA0005DF800F00AF81622291D2046FFF7CDF95B
:100EB0000028ECD000F052F8E9E728780128FCD1AE
:100EC00000212970704710B59EB02A4C05A8214614
:100ED000282200F055FB6846142100F051F80FA8B5
:100EE00004F128013C2200F04BFB002207924FF452
:100EF0008031102206910A920D910B20059001235A
:100F000002224FF4E01109930B930C920E9105A865
:100F1000FFF744FD08B100F021F8022101910F20F4
:100F20004FF480610090002203910292049202210A
:100F30006846FFF7B8FE08B100F010F800221392DF
:100F400016924FF400720C490F9110920FA800F006
:100F500023FB08B100F002F81EB010BD80B54FF4BD
:100F60008061064800F0E4F8FEE700000000002081
:100F70002C000020DC1C00082400010000100048A8
:100F8000002200F0E5BB00002DE9F84700266A4A80
:100F90000F230446884632E0684DAC4214BF052555
:100FA00004258D4045EA0E054CF82750C743644997
:100FB0000D6800F0B3F8ED0348BF40EA0C0CC1F82F
:100FC00000C04D6800F0AAF8AD0348BF40EA0C0C21
:100FD000C1F804C08D6800F0A1F8ED0248BF40EAF6
:100FE0000C0CC1F808C0CD6807EA050CD8F80470ED
:100FF000BD0248BF40EA0C0CC1F80CC0761CD8F802
:10100000001031FA06F000F087800127B74017EA98
:101010000100F3D0D8F80450B100022D18BF122DF2
:1010200012D1F50804EB850C01F01C05DCF820E07A
:10103000D8F810A003FA05F92EEA090E0AFA05F508
:1010400045EA0E05CCF820504FEA460C4FF0030E4F
:10105000256898F804900EFA0CFE6FEA0E0E09F05F
:1010600003090EEA050509FA0CF949EA05052560A8
:10107000D8F80450012D18BF022D03D0112D18BF30
:10108000122D13D1A568D8F80C900EEA050509FABF
:101090000CF949EA0505A560656825EA0707D8F84F
:1010A0000450C5F30015B5402F436760E7680EEAAA
:1010B0000705D8F8087007FA0CF73D43E560D8F843
:1010C0000450EF009AD51568DFF878C045F00105A7
:1010D000156001F00C01176807F00107009703FA8B
:1010E00001FE009FB7085CF8275025EA0E0EB4F108
:1010F000904F08BF00250ED0134DAC4208BF01250C
:1011000009D0124DAC4208BF022504D0104DAC42AC
:101110007FF442AF032544E7BDE8F18707EA050CF9
:10112000D8F8045070470AB18161704781627047F6
:101130004269514041617047181002400010004858
:101140000004014008000140000400480008004875
:10115000000C00480901020006D5294A00F00F00E2
:10116000104400F8041C7047264B19547047264B56
:1011700019684FF6FF020002114000F4E0600843D6
:10118000224908431860704738B51F4B1C68C4F3E8
:101190000223C3F10704052C28BF04241D1D072DBD
:1011A00034BF0023DB1E012505FA04F4641E214030
:1011B000994005FA03F35B1E1A401143BDE8344021
:1011C000C8E7012200F01F01114BFFE78A404009E8
:1011D00043F82020704710B5401EB0F1807F01D346
:1011E000012010BD0B4C60600F214FF0FF30FFF766
:1011F000B1FF0021A16007202060002010BD000089
:1012000018ED00E000E400E00CED00E00000FA055D
:1012100000E100E010E000E038B50D4D0D4B2A78FC
:1012200004464FF47A711868B1FBF2F2B0FBF2F0A9
:10123000FFF7D1FF50B9102C08D2002221464FF001
:10124000FF30FFF7A1FFAC60002032BD012032BDAE
:101250001C0000202800002080B50748016841F0EC
:10126000100101600320FFF782FF0020FFF7D4FF89
:1012700000F088FA002002BD0020024038B586B098
:1012800068461421FFF77CFE3548046844F40014D6
:1012900004604FF608750168324C01F400110591A5
:1012A0000599026842F400220260036803F40023F7
:1012B00000F05CF842F480020260036803F48003EB
:1012C00000F054F842F400320260036803F4003383
:1012D00000F04CF842F480120260036803F48013BB
:1012E00000F044F842F4802202600022006800F41A
:1012F00080200590294605982046FFF714FF3720E7
:101300001949009001910022029269462046FFF798
:101310003BFE012101910022029203920095694651
:101320002046FFF731FE012000210090019102913B
:101330004FF090406946FFF727FE022101910022FD
:1013400002924FF4C0500321009003910E220492A8
:1013500069464FF09040FFF717FE07B030BD000020
:101360001410024000100048000012100593059967
:101370000268704710B5294C29482A49206000228C
:101380000120E0606160A26022616261A261E261AD
:101390002262204600F010FA08B1FFF7DFFD0021BD
:1013A000204600F061FA08B1FFF7D8FD0021204681
:1013B00000F06FFA18B1BDE81040FFF7CFBD10BDC7
:1013C00038B586B0044601A81421FFF7D9FD24687A
:1013D000134DAC4220D1144C206840F48020206092
:1013E0001222216801F480210091C02100980F4849
:1013F000019102920121039103220421059104929B
:1014000001A9FFF7C1FDA06840F40010A060A0682A
:1014100000F400100090009807B030BD00010020DB
:10142000005400400E09002014100240000400483F
:1014300038B586B001A81421FFF7A2FDDFF88010AF
:1014400022A425681F4C009521607F200022A06007
:10145000FF216260E16022616261A261204600F0CA
:1014600043FA08B1FFF77AFD0020ADF804008DF8CB
:10147000060004900590012201A9204600F081FA9F
:1014800008B1FFF76BFD012100228DF800108DF8E7
:1014900001108DF802108DF80320694601222046C4
:1014A00000F0D0FA08B1FFF759FD07B030BD006871
:1014B0000349884202D104480122026070470000BB
:1014C000002800404C0100203C0442420000000083
:1014D00080B52848284901604FF482724FF440716A
:1014E000C16042600821C16100230721C1624FF43D
:1014F0000072082183600361436182610362436279
:1015000083620363416300F04FFB18B1BDE8014003
:10151000FFF724BD01BD38B586B0044601A81421EB
:10152000FFF72EFD2468144DAC4221D113484168C9
:1015300041F480514160416801F48051009100996B
:10154000026842F400320260E021006800F40030DA
:10155000009002220098019102920021039103223F
:1015600005210591049201A94FF09040FFF70CFD71
:1015700007B030BD9C000020003001401410024034
:101580004AB1000011F8013B521E00F8013B1CBF9C
:1015900011F8013BF8E770472DE9FC410546DFF8FB
:1015A000A4612868C10354D5B0690024C10009D4DE
:1015B000B06940F08050B0610124B06900F0805003
:1015C00000900098DFF880713868C10519D4386838
:1015D00040F480703860FFF73BFC80463868C105F6
:1015E0000FD4FFF735FCA0EB08006528F6D30320E5
:1015F000A5E0FFF72DFCC01B41F28931884218D3CA
:10160000F5E7F06910F440701EBF696801F440719D
:10161000884213D0DFF83411F06901220A600023F8
:1016200020F440700B60F061C00707D5FFF710FC95
:101630000746F069C0F340000028DAD0F169686815
:1016400021F440710143F1611CB1B06920F0805078
:10165000B0612878C10705D5F26AA868920840EA07
:101660008202F2622978880705D5F16AE86821F4D8
:1016700040310143F1622978480705D5F16A2869AC
:1016800021F440210143F1622978880605D5F16AE9
:10169000E86921F010010143F1622968880305D54A
:1016A0003168A86B21F48001014331602978480634
:1016B00005D5F16A286A21F020010143F1622978F9
:1016C000080705D5F16A686921F440110143F16208
:1016D0002978C80605D5F16AA86921F440010143BB
:1016E000F1622968880505D53168E86A21F40001AE
:1016F000014331602978080605D5B16A686A21F48A
:10170000F8710143B1622968C80505D5B16AA86AB4
:1017100021F478510143B1622968C80405D5F16A02
:10172000286B21F480710143F1622968880405D592
:10173000F16A686B21F400710143F1620020BDE899
:10174000F681000004100240007000404004424254
:1017500000B500BF130096469446103928BFA0E894
:101760000C50FAD85FEA417C28BF0CC048BF40F853
:10177000042BC90728BF20F8022B48BF00F8012B13
:1017800000BD00000B4882B0016841F0010101601A
:10179000026802F0010200920099426842F0805211
:1017A0004260406800F0805000900098072002B02E
:1017B000FFF7DDBC1810024038B5040001D101204C
:1017C00032BD04F14005687820B900212970204617
:1017D000FFF7F6FD00F040F86068216820F07060C7
:1017E00008612068816821F400418160E068216817
:1017F0000128A0680CBF40F4004040F40440886019
:10180000E068022803D120684FF40061416020683D
:10181000416841F0007141F4004141602068C168B5
:1018200021F40041C16060692169A2690143206817
:1018300041EA0221C160206AE16922680143116026
:101840002068016841F001010160002068602021EA
:1018500069702063A87032BD242068702068016818
:10186000490849000160704730B500F140025378E3
:10187000202B0CD11478012C09D000F01DF824F491
:1018800080541C6003681D682943196020E0022011
:1018900030BD30B500F140025378202B0AD11478C6
:1018A000012C07D000F008F824F4706444EA012405
:1018B0001C600DE0022030BD0123137024245470FD
:1018C00003681D686D086D001D6003681C68704723
:1018D0000068016841F00101016020205070002182
:1018E0001170002030BD000070B5040031D0607F61
:1018F00020B9002121772046FFF7D9FD00F03BF801
:1019000053202168486200F09BF8FF25E8B9216860
:10191000DFF8F8018A6802408A6022689368666886
:10192000216960690E430643334393602068E16890
:10193000016120680169A26841EA0241016100F089
:1019400074F808D400F07AF828B1206845620421C0
:101950006177012070BD2068016C21F48021016451
:1019600021680A6CA06902430A64012021684D6263
:101970006077002070BD02206077CA212268516222
:101980007047F8B500F0BCF801D10220F2BD00F0BC
:10199000A3F82068806813D141065CBF0020E8707E
:1019A000287800F0EDF8064600F0A8F8070200F0ED
:1019B000A2F847EA06470743E87847EA004711E0FC
:1019C000410603D5287800F0E6F801E00020E87031
:1019D0006F782978A8783F0247EA0147E9780743FA
:1019E00047EA01472168CA204862532220684262C0
:1019F00000F026F8FF26B0B92168DFF8140107408F
:101A00000F602068826822F48022826021688A68E0
:101A1000EB68286903431A438A6000F006F803D490
:101A200000F00CF800B15DE04FE02068C16821F0E3
:101A30008001C160206881688806704720466BE09D
:101A4000204682E0F8B504460E46207F012801D1E9
:101A50000220F2BD00F040F875782CD1E80603D5DD
:101A600005F0EF050A357570F07800F089F8074643
:101A7000707800F085F80502B07800F081F845EA4A
:101A800007450543307845EA40352068CA21416260
:101A9000532221684A62FFF7D3FFFF2650B921681D
:101AA000DFF8700005404D60FFF7BFFF0DD4FFF772
:101AB000C5FF50B116E0F07831782D0245EA0045B7
:101AC000B078054345EA4135DFE7206846620121E9
:101AD000617700202077F2BD012020770221617715
:101AE000002A704720684662042161770020207731
:101AF0000120F2BD0602A87842E0074668783FE080
:101B000004460D46207F012870470000BFFF8FFF6D
:101B10007F7F7F003FFFFF0038B504462068C16823
:101B200021F0A001C160FFF793F905462068C16864
:101B3000880608D4FFF78CF9401B40F2E93188424F
:101B4000F4D3032032BD002032BD38B504462068EE
:101B5000C1684A0612D44FF0FF31C160FFF778F92F
:101B600005462068C168480608D4FFF771F9401B94
:101B700040F2E9318842F4D3032032BD002032BD67
:101B8000002101E0491C0A38C2B20A2AFAD240EA0E
:101B90000110C0B2704701090A2200F00F0012FBC9
:101BA0000100C0B27047000070B5040001D10120EF
:101BB00070BD0020A06204F15C05687820B90021A6
:101BC00029702046FFF7A7FC0220687000F041F85A
:101BD000E168B1F5E06F04D90022B1F5706F03D16F
:101BE00004E04FF4805201D00020A062206B30B995
:101BF000B1F5E06F87BF0220206301212163636894
:101C0000A06821692668034360690B43A169034307
:101C100001F40071E0690B43216A0343A06A0B439E
:101C200003433360A369606A616B1B0C03F0040318
:101C30000343E0680B4303431A4323685A60206858
:101C4000C16921F40061C1610020686001216970EF
:101C500070BD2068016821F04001016070470000FC
:101C600010B51448144A016841F47001016010680D
:101C7000124940F001001060536811480B40536056
:101C80000023146804401460116821F4802111605D
:101C9000506820F4FE005060D06A00090001D06254
:101CA000116B08480140116393604FF000600649D2
:101CB000086010BD88ED00E0001002400CC07FF805
:101CC000FFFFF6FECCFC00FF08ED00E00000000086
:101CD00000000000010203040607080900000000DC
:101CE00000000000000000000000000000000000F4
:101CF00000000000000000000000000000000000E4
:101D000000000000000000000000000000000000D3
:101D100000000000000000000000000000000000C3
:101D200000000000000000000000000000000000B3
:101D300000000000000000000000000000000000A3
:101D400030B450F8041B79B102684368024408308B
:101D5000DC0744BFA9F10104E31852F8045B43F81F
:101D6000045B091FF9D1ECE730BC704700000000AC
:101D700048656C6C6F20576F726C6420696E746577
:101D800072727570742100000100000000000000F4
:101D90001000000000127A0010B50749794418318C
:101DA000064C7C44163404E00A68081D1144884738
:101DB0000146A142F8D110BD2C0000004C000000EB
:101DC0004EF68851CEF20001086840F470000860B9
:101DD000BFF34F8FBFF36F8F4FF00070E1EE100A2B
:101DE000704700007FEAFFFF400100002C00002048
:101DF000000000004DFFFFFF2C00000070FFFFFF00
:101E000000000020000000007047FEE7FEE7FEE74C
:101E1000FEE770477047704700F006B80148FEF7CC
:101E20004BBA00002C0000200248416802788A1852
:101E3000426070471C00002000F00DF8002801D01F
:101E4000FFF7AAFFAFF300800020AFF30080FFF799
:101E50000CF800F002F80120704700F001B8000013
:101E60000746384600F002F8FBE7000080B5AFF304
:101E70000080024A11001820ABBEFBE726000200DA
:101E80000148804701480047611C0008911E000876
:101E9000AFF30080FFF794FFFFF7CEFF00000000D4
:101EA00001020304FFF7FEBFFFF7FEBFFFF7FEBF0F
:101EB000FFF7FEBFFFF7FEBFFFF7FEBFFFF7FEBF56
:101EC000FFF7FEBFFFF7FEBFFFF7FEBFFFF7FEBF46
:101ED000FFF7FEBFFFF7FEBFFFF7FEBFFFF7FEBF36
:101EE000FFF7FEBFFFF7FEBFFFF7FEBFFFF7FEBF26
:101EF000FFF7FEBFFFF7FEBFFFF7FEBFFFF7FEBF16
:101F0000FFF7FEBFFFF7FEBFFFF7FEBFFFF7FEBF05
:101F1000FFF7FEBFFFF7FEBFFFF7FEBFFFF7FEBFF5
:101F2000FFF7FEBFFFF7FEBFFFF7FEBFFFF7FEBFE5
:101F3000FFF7FEBFFFF7FEBFFFF7FEBFFFF7FEBFD5
:101F4000FFF7FEBFFFF7FEBFFFF7FEBFFFF7FEBFC5
:101F5000FFF7FEBFFFF7FEBFFFF7FEBFFFF7FEBFB5
:101F6000FFF7FEBFFFF7FEBFFFF7FEBFFFF7FEBFA5
:101F7000FFF7FEBFFFF7FEBFFFF7FEBFFFF7FEBF95
:101F8000FFF7FEBFFFF7FEBFFFF7FEBFFFF7FEBF85
:101F9000FFF7FEBFFFF7FEBFFFF7FEBFFFF7FEBF75
:081FA000FFF7FEBFFFF7FEBFD3
:0400000508001E9140
:00000001FF
